{
	"src\\EsperFaucet.sol": {
		"EsperFaucet": {
			"abi": [
				{
					"inputs": [],
					"name": "EmptyTokenInput",
					"type": "error"
				},
				{
					"inputs": [],
					"name": "InsufficientBalance",
					"type": "error"
				},
				{
					"inputs": [],
					"name": "InvalidAmount",
					"type": "error"
				},
				{
					"inputs": [],
					"name": "UnableMint",
					"type": "error"
				},
				{
					"anonymous": false,
					"inputs": [
						{
							"indexed": true,
							"internalType": "address",
							"name": "previousOwner",
							"type": "address"
						},
						{
							"indexed": true,
							"internalType": "address",
							"name": "newOwner",
							"type": "address"
						}
					],
					"name": "OwnershipTransferred",
					"type": "event"
				},
				{
					"inputs": [
						{
							"internalType": "uint256",
							"name": "index",
							"type": "uint256"
						},
						{
							"internalType": "address",
							"name": "token",
							"type": "address"
						},
						{
							"internalType": "uint256",
							"name": "amount",
							"type": "uint256"
						},
						{
							"internalType": "uint8",
							"name": "decimal",
							"type": "uint8"
						}
					],
					"name": "UpdateTokens",
					"outputs": [],
					"stateMutability": "nonpayable",
					"type": "function"
				},
				{
					"inputs": [
						{
							"internalType": "address",
							"name": "token",
							"type": "address"
						},
						{
							"internalType": "uint256",
							"name": "amount",
							"type": "uint256"
						},
						{
							"internalType": "uint8",
							"name": "decimal",
							"type": "uint8"
						}
					],
					"name": "addTokens",
					"outputs": [],
					"stateMutability": "nonpayable",
					"type": "function"
				},
				{
					"inputs": [],
					"name": "claim",
					"outputs": [],
					"stateMutability": "nonpayable",
					"type": "function"
				},
				{
					"inputs": [],
					"name": "getRangeTime",
					"outputs": [
						{
							"internalType": "uint256",
							"name": "",
							"type": "uint256"
						}
					],
					"stateMutability": "view",
					"type": "function"
				},
				{
					"inputs": [
						{
							"internalType": "uint256",
							"name": "index",
							"type": "uint256"
						}
					],
					"name": "getTokenAddressByIndex",
					"outputs": [
						{
							"internalType": "address",
							"name": "",
							"type": "address"
						}
					],
					"stateMutability": "view",
					"type": "function"
				},
				{
					"inputs": [],
					"name": "owner",
					"outputs": [
						{
							"internalType": "address",
							"name": "",
							"type": "address"
						}
					],
					"stateMutability": "view",
					"type": "function"
				},
				{
					"inputs": [
						{
							"internalType": "uint256",
							"name": "index",
							"type": "uint256"
						}
					],
					"name": "removeTokens",
					"outputs": [],
					"stateMutability": "nonpayable",
					"type": "function"
				},
				{
					"inputs": [],
					"name": "renounceOwnership",
					"outputs": [],
					"stateMutability": "nonpayable",
					"type": "function"
				},
				{
					"inputs": [
						{
							"internalType": "uint256",
							"name": "rangeTime",
							"type": "uint256"
						}
					],
					"name": "setRangeTime",
					"outputs": [],
					"stateMutability": "nonpayable",
					"type": "function"
				},
				{
					"inputs": [],
					"name": "tokenLength",
					"outputs": [
						{
							"internalType": "uint256",
							"name": "",
							"type": "uint256"
						}
					],
					"stateMutability": "view",
					"type": "function"
				},
				{
					"inputs": [
						{
							"internalType": "address",
							"name": "newOwner",
							"type": "address"
						}
					],
					"name": "transferOwnership",
					"outputs": [],
					"stateMutability": "nonpayable",
					"type": "function"
				},
				{
					"inputs": [
						{
							"internalType": "address",
							"name": "",
							"type": "address"
						}
					],
					"name": "userCooldown",
					"outputs": [
						{
							"internalType": "uint256",
							"name": "",
							"type": "uint256"
						}
					],
					"stateMutability": "view",
					"type": "function"
				}
			],
			"devdoc": {
				"kind": "dev",
				"methods": {
					"UpdateTokens(uint256,address,uint256,uint8)": {
						"details": "Update Tokens Must only be called by the owner"
					},
					"addTokens(address,uint256,uint8)": {
						"details": "add Tokens Must only be called by the owner"
					},
					"claim()": {
						"details": "Mint Faucet "
					},
					"getRangeTime()": {
						"details": "Get remaining duration before the end of the sale"
					},
					"getTokenAddressByIndex(uint256)": {
						"details": "Returns a token from its \"index\""
					},
					"owner()": {
						"details": "Returns the address of the current owner."
					},
					"removeTokens(uint256)": {
						"details": "remove Tokens Must only be called by the owner"
					},
					"renounceOwnership()": {
						"details": "Leaves the contract without owner. It will not be possible to call `onlyOwner` functions. Can only be called by the current owner. NOTE: Renouncing ownership will leave the contract without an owner, thereby disabling any functionality that is only available to the owner."
					},
					"setRangeTime(uint256)": {
						"params": {
							"rangeTime": "New range time"
						}
					},
					"tokenLength()": {
						"details": "Returns the number of available tokens"
					},
					"transferOwnership(address)": {
						"details": "Transfers ownership of the contract to a new account (`newOwner`). Can only be called by the current owner."
					}
				},
				"version": 1
			},
			"evm": {
				"assembly": "    /* \"src\\\\EsperFaucet.sol\":383:3996  contract EsperFaucet is Ownable {... */\n  mstore(0x40, 0x80)\n    /* \"src\\\\EsperFaucet.sol\":810:816  1 days */\n  0x015180\n    /* \"src\\\\EsperFaucet.sol\":778:816  uint256 private rangeMintTime = 1 days */\n  0x03\n  sstore\n    /* \"src\\\\EsperFaucet.sol\":383:3996  contract EsperFaucet is Ownable {... */\n  callvalue\n  dup1\n  iszero\n  tag_1\n  jumpi\n  0x00\n  dup1\n  revert\ntag_1:\n  pop\n    /* \"@openzeppelin/contracts/access/Ownable.sol\":936:968  _transferOwnership(_msgSender()) */\n  tag_4\n    /* \"@openzeppelin/contracts/access/Ownable.sol\":955:967  _msgSender() */\n  tag_5\n    /* \"@openzeppelin/contracts/access/Ownable.sol\":955:965  _msgSender */\n  shl(0x20, tag_6)\n    /* \"@openzeppelin/contracts/access/Ownable.sol\":955:967  _msgSender() */\n  0x20\n  shr\n  jump\t// in\ntag_5:\n    /* \"@openzeppelin/contracts/access/Ownable.sol\":936:954  _transferOwnership */\n  shl(0x20, tag_7)\n    /* \"@openzeppelin/contracts/access/Ownable.sol\":936:968  _transferOwnership(_msgSender()) */\n  0x20\n  shr\n  jump\t// in\ntag_4:\n    /* \"src\\\\EsperFaucet.sol\":383:3996  contract EsperFaucet is Ownable {... */\n  jump(tag_8)\n    /* \"@openzeppelin/contracts/utils/Context.sol\":640:736  function _msgSender() internal view virtual returns (address) {... */\ntag_6:\n    /* \"@openzeppelin/contracts/utils/Context.sol\":693:700  address */\n  0x00\n    /* \"@openzeppelin/contracts/utils/Context.sol\":719:729  msg.sender */\n  caller\n    /* \"@openzeppelin/contracts/utils/Context.sol\":712:729  return msg.sender */\n  swap1\n  pop\n    /* \"@openzeppelin/contracts/utils/Context.sol\":640:736  function _msgSender() internal view virtual returns (address) {... */\n  swap1\n  jump\t// out\n    /* \"@openzeppelin/contracts/access/Ownable.sol\":2426:2613  function _transferOwnership(address newOwner) internal virtual {... */\ntag_7:\n    /* \"@openzeppelin/contracts/access/Ownable.sol\":2499:2515  address oldOwner */\n  0x00\n    /* \"@openzeppelin/contracts/access/Ownable.sol\":2518:2524  _owner */\n  dup1\n  0x00\n  swap1\n  sload\n  swap1\n  0x0100\n  exp\n  swap1\n  div\n  0xffffffffffffffffffffffffffffffffffffffff\n  and\n    /* \"@openzeppelin/contracts/access/Ownable.sol\":2499:2524  address oldOwner = _owner */\n  swap1\n  pop\n    /* \"@openzeppelin/contracts/access/Ownable.sol\":2543:2551  newOwner */\n  dup2\n    /* \"@openzeppelin/contracts/access/Ownable.sol\":2534:2540  _owner */\n  0x00\n  dup1\n    /* \"@openzeppelin/contracts/access/Ownable.sol\":2534:2551  _owner = newOwner */\n  0x0100\n  exp\n  dup2\n  sload\n  dup2\n  0xffffffffffffffffffffffffffffffffffffffff\n  mul\n  not\n  and\n  swap1\n  dup4\n  0xffffffffffffffffffffffffffffffffffffffff\n  and\n  mul\n  or\n  swap1\n  sstore\n  pop\n    /* \"@openzeppelin/contracts/access/Ownable.sol\":2597:2605  newOwner */\n  dup2\n    /* \"@openzeppelin/contracts/access/Ownable.sol\":2566:2606  OwnershipTransferred(oldOwner, newOwner) */\n  0xffffffffffffffffffffffffffffffffffffffff\n  and\n    /* \"@openzeppelin/contracts/access/Ownable.sol\":2587:2595  oldOwner */\n  dup2\n    /* \"@openzeppelin/contracts/access/Ownable.sol\":2566:2606  OwnershipTransferred(oldOwner, newOwner) */\n  0xffffffffffffffffffffffffffffffffffffffff\n  and\n  0x8be0079c531659141344cd1fd0a4f28419497f9722a3daafe3b4186f6b6457e0\n  mload(0x40)\n  mload(0x40)\n  dup1\n  swap2\n  sub\n  swap1\n  log3\n    /* \"@openzeppelin/contracts/access/Ownable.sol\":2489:2613  {... */\n  pop\n    /* \"@openzeppelin/contracts/access/Ownable.sol\":2426:2613  function _transferOwnership(address newOwner) internal virtual {... */\n  pop\n  jump\t// out\n    /* \"src\\\\EsperFaucet.sol\":383:3996  contract EsperFaucet is Ownable {... */\ntag_8:\n  dataSize(sub_0)\n  dup1\n  dataOffset(sub_0)\n  0x00\n  codecopy\n  0x00\n  return\nstop\n\nsub_0: assembly {\n        /* \"src\\\\EsperFaucet.sol\":383:3996  contract EsperFaucet is Ownable {... */\n      mstore(0x40, 0x80)\n      callvalue\n      dup1\n      iszero\n      tag_1\n      jumpi\n      0x00\n      dup1\n      revert\n    tag_1:\n      pop\n      jumpi(tag_2, lt(calldatasize, 0x04))\n      shr(0xe0, calldataload(0x00))\n      dup1\n      0xaa68f5c3\n      gt\n      tag_15\n      jumpi\n      dup1\n      0xaa68f5c3\n      eq\n      tag_9\n      jumpi\n      dup1\n      0xb8cb65ee\n      eq\n      tag_10\n      jumpi\n      dup1\n      0xc751c0a6\n      eq\n      tag_11\n      jumpi\n      dup1\n      0xde66341e\n      eq\n      tag_12\n      jumpi\n      dup1\n      0xe809290b\n      eq\n      tag_13\n      jumpi\n      dup1\n      0xf2fde38b\n      eq\n      tag_14\n      jumpi\n      jump(tag_2)\n    tag_15:\n      dup1\n      0x161b12a0\n      eq\n      tag_3\n      jumpi\n      dup1\n      0x4e71d92d\n      eq\n      tag_4\n      jumpi\n      dup1\n      0x5715c5b7\n      eq\n      tag_5\n      jumpi\n      dup1\n      0x715018a6\n      eq\n      tag_6\n      jumpi\n      dup1\n      0x898f6637\n      eq\n      tag_7\n      jumpi\n      dup1\n      0x8da5cb5b\n      eq\n      tag_8\n      jumpi\n    tag_2:\n      0x00\n      dup1\n      revert\n        /* \"src\\\\EsperFaucet.sol\":3597:3991  function UpdateTokens(uint256 index , address token , uint256 amount , uint8 decimal) external onlyOwner {... */\n    tag_3:\n      tag_16\n      0x04\n      dup1\n      calldatasize\n      sub\n      dup2\n      add\n      swap1\n      tag_17\n      swap2\n      swap1\n      tag_18\n      jump\t// in\n    tag_17:\n      tag_19\n      jump\t// in\n    tag_16:\n      stop\n        /* \"src\\\\EsperFaucet.sol\":1852:2534  function claim() external {... */\n    tag_4:\n      tag_20\n      tag_21\n      jump\t// in\n    tag_20:\n      stop\n        /* \"src\\\\EsperFaucet.sol\":1424:1596  function getTokenAddressByIndex(uint256 index) external view returns (address) {... */\n    tag_5:\n      tag_22\n      0x04\n      dup1\n      calldatasize\n      sub\n      dup2\n      add\n      swap1\n      tag_23\n      swap2\n      swap1\n      tag_24\n      jump\t// in\n    tag_23:\n      tag_25\n      jump\t// in\n    tag_22:\n      mload(0x40)\n      tag_26\n      swap2\n      swap1\n      tag_27\n      jump\t// in\n    tag_26:\n      mload(0x40)\n      dup1\n      swap2\n      sub\n      swap1\n      return\n        /* \"@openzeppelin/contracts/access/Ownable.sol\":1824:1925  function renounceOwnership() public virtual onlyOwner {... */\n    tag_6:\n      tag_28\n      tag_29\n      jump\t// in\n    tag_28:\n      stop\n        /* \"src\\\\EsperFaucet.sol\":1111:1201  function getRangeTime() external view returns (uint256){... */\n    tag_7:\n      tag_30\n      tag_31\n      jump\t// in\n    tag_30:\n      mload(0x40)\n      tag_32\n      swap2\n      swap1\n      tag_33\n      jump\t// in\n    tag_32:\n      mload(0x40)\n      dup1\n      swap2\n      sub\n      swap1\n      return\n        /* \"@openzeppelin/contracts/access/Ownable.sol\":1201:1286  function owner() public view virtual returns (address) {... */\n    tag_8:\n      tag_34\n      tag_35\n      jump\t// in\n    tag_34:\n      mload(0x40)\n      tag_36\n      swap2\n      swap1\n      tag_27\n      jump\t// in\n    tag_36:\n      mload(0x40)\n      dup1\n      swap2\n      sub\n      swap1\n      return\n        /* \"src\\\\EsperFaucet.sol\":2870:2968  function setRangeTime(uint256 rangeTime) external onlyOwner {... */\n    tag_9:\n      tag_37\n      0x04\n      dup1\n      calldatasize\n      sub\n      dup2\n      add\n      swap1\n      tag_38\n      swap2\n      swap1\n      tag_24\n      jump\t// in\n    tag_38:\n      tag_39\n      jump\t// in\n    tag_37:\n      stop\n        /* \"src\\\\EsperFaucet.sol\":3374:3507  function removeTokens(uint256 index) external onlyOwner {... */\n    tag_10:\n      tag_40\n      0x04\n      dup1\n      calldatasize\n      sub\n      dup2\n      add\n      swap1\n      tag_41\n      swap2\n      swap1\n      tag_24\n      jump\t// in\n    tag_41:\n      tag_42\n      jump\t// in\n    tag_40:\n      stop\n        /* \"src\\\\EsperFaucet.sol\":3053:3285  function addTokens(address token , uint256 amount , uint8 decimal) external onlyOwner {... */\n    tag_11:\n      tag_43\n      0x04\n      dup1\n      calldatasize\n      sub\n      dup2\n      add\n      swap1\n      tag_44\n      swap2\n      swap1\n      tag_45\n      jump\t// in\n    tag_44:\n      tag_46\n      jump\t// in\n    tag_43:\n      stop\n        /* \"src\\\\EsperFaucet.sol\":1271:1360  function tokenLength() external view returns (uint256) {... */\n    tag_12:\n      tag_47\n      tag_48\n      jump\t// in\n    tag_47:\n      mload(0x40)\n      tag_49\n      swap2\n      swap1\n      tag_33\n      jump\t// in\n    tag_49:\n      mload(0x40)\n      dup1\n      swap2\n      sub\n      swap1\n      return\n        /* \"src\\\\EsperFaucet.sol\":723:770  mapping(address => uint256) public userCooldown */\n    tag_13:\n      tag_50\n      0x04\n      dup1\n      calldatasize\n      sub\n      dup2\n      add\n      swap1\n      tag_51\n      swap2\n      swap1\n      tag_52\n      jump\t// in\n    tag_51:\n      tag_53\n      jump\t// in\n    tag_50:\n      mload(0x40)\n      tag_54\n      swap2\n      swap1\n      tag_33\n      jump\t// in\n    tag_54:\n      mload(0x40)\n      dup1\n      swap2\n      sub\n      swap1\n      return\n        /* \"@openzeppelin/contracts/access/Ownable.sol\":2074:2272  function transferOwnership(address newOwner) public virtual onlyOwner {... */\n    tag_14:\n      tag_55\n      0x04\n      dup1\n      calldatasize\n      sub\n      dup2\n      add\n      swap1\n      tag_56\n      swap2\n      swap1\n      tag_52\n      jump\t// in\n    tag_56:\n      tag_57\n      jump\t// in\n    tag_55:\n      stop\n        /* \"src\\\\EsperFaucet.sol\":3597:3991  function UpdateTokens(uint256 index , address token , uint256 amount , uint8 decimal) external onlyOwner {... */\n    tag_19:\n        /* \"@openzeppelin/contracts/access/Ownable.sol\":1094:1107  _checkOwner() */\n      tag_59\n        /* \"@openzeppelin/contracts/access/Ownable.sol\":1094:1105  _checkOwner */\n      tag_60\n        /* \"@openzeppelin/contracts/access/Ownable.sol\":1094:1107  _checkOwner() */\n      jump\t// in\n    tag_59:\n        /* \"src\\\\EsperFaucet.sol\":3722:3723  0 */\n      0x00\n        /* \"src\\\\EsperFaucet.sol\":3712:3718  amount */\n      dup3\n        /* \"src\\\\EsperFaucet.sol\":3712:3723  amount == 0 */\n      sub\n        /* \"src\\\\EsperFaucet.sol\":3709:3747  if(amount == 0) revert InvalidAmount() */\n      tag_62\n      jumpi\n        /* \"src\\\\EsperFaucet.sol\":3732:3747  InvalidAmount() */\n      mload(0x40)\n      0x2c5211c600000000000000000000000000000000000000000000000000000000\n      dup2\n      mstore\n      0x04\n      add\n      mload(0x40)\n      dup1\n      swap2\n      sub\n      swap1\n      revert\n        /* \"src\\\\EsperFaucet.sol\":3709:3747  if(amount == 0) revert InvalidAmount() */\n    tag_62:\n        /* \"src\\\\EsperFaucet.sol\":3771:3778  _tokens */\n      0x01\n        /* \"src\\\\EsperFaucet.sol\":3796:3797  1 */\n      dup1\n        /* \"src\\\\EsperFaucet.sol\":3779:3786  _tokens */\n      dup1\n        /* \"src\\\\EsperFaucet.sol\":3779:3793  _tokens.length */\n      dup1\n      sload\n      swap1\n      pop\n        /* \"src\\\\EsperFaucet.sol\":3779:3797  _tokens.length - 1 */\n      tag_63\n      swap2\n      swap1\n      tag_64\n      jump\t// in\n    tag_63:\n        /* \"src\\\\EsperFaucet.sol\":3771:3798  _tokens[_tokens.length - 1] */\n      dup2\n      sload\n      dup2\n      lt\n      tag_65\n      jumpi\n      tag_66\n      tag_67\n      jump\t// in\n    tag_66:\n    tag_65:\n      swap1\n      0x00\n      mstore\n      keccak256(0x00, 0x20)\n      swap1\n      0x03\n      mul\n      add\n        /* \"src\\\\EsperFaucet.sol\":3754:3761  _tokens */\n      0x01\n        /* \"src\\\\EsperFaucet.sol\":3762:3767  index */\n      dup6\n        /* \"src\\\\EsperFaucet.sol\":3754:3768  _tokens[index] */\n      dup2\n      sload\n      dup2\n      lt\n      tag_69\n      jumpi\n      tag_70\n      tag_67\n      jump\t// in\n    tag_70:\n    tag_69:\n      swap1\n      0x00\n      mstore\n      keccak256(0x00, 0x20)\n      swap1\n      0x03\n      mul\n      add\n        /* \"src\\\\EsperFaucet.sol\":3754:3798  _tokens[index] = _tokens[_tokens.length - 1] */\n      0x00\n      dup3\n      add\n      0x00\n      swap1\n      sload\n      swap1\n      0x0100\n      exp\n      swap1\n      div\n      0xffffffffffffffffffffffffffffffffffffffff\n      and\n      dup2\n      0x00\n      add\n      exp(0x0100, 0x00)\n      dup2\n      sload\n      dup2\n      0xffffffffffffffffffffffffffffffffffffffff\n      mul\n      not\n      and\n      swap1\n      dup4\n      0xffffffffffffffffffffffffffffffffffffffff\n      and\n      mul\n      or\n      swap1\n      sstore\n      pop\n      0x01\n      dup3\n      add\n      sload\n      dup2\n      0x01\n      add\n      sstore\n      0x02\n      dup3\n      add\n      0x00\n      swap1\n      sload\n      swap1\n      0x0100\n      exp\n      swap1\n      div\n      0xff\n      and\n      dup2\n      0x02\n      add\n      exp(0x0100, 0x00)\n      dup2\n      sload\n      dup2\n      0xff\n      mul\n      not\n      and\n      swap1\n      dup4\n      0xff\n      and\n      mul\n      or\n      swap1\n      sstore\n      pop\n      swap1\n      pop\n      pop\n        /* \"src\\\\EsperFaucet.sol\":3805:3812  _tokens */\n      0x01\n        /* \"src\\\\EsperFaucet.sol\":3805:3818  _tokens.pop() */\n      dup1\n      sload\n      dup1\n      tag_72\n      jumpi\n      tag_73\n      tag_74\n      jump\t// in\n    tag_73:\n    tag_72:\n      0x01\n      swap1\n      sub\n      dup2\n      dup2\n      swap1\n      0x00\n      mstore\n      keccak256(0x00, 0x20)\n      swap1\n      0x03\n      mul\n      add\n      0x00\n      dup1\n      dup3\n      add\n      exp(0x0100, 0x00)\n      dup2\n      sload\n      swap1\n      0xffffffffffffffffffffffffffffffffffffffff\n      mul\n      not\n      and\n      swap1\n      sstore\n      0x01\n      dup3\n      add\n      0x00\n      swap1\n      sstore\n      0x02\n      dup3\n      add\n      exp(0x0100, 0x00)\n      dup2\n      sload\n      swap1\n      0xff\n      mul\n      not\n      and\n      swap1\n      sstore\n      pop\n      pop\n      swap1\n      sstore\n        /* \"src\\\\EsperFaucet.sol\":3827:3852  TokenInfo memory newToken */\n      0x00\n        /* \"src\\\\EsperFaucet.sol\":3855:3886  TokenInfo(token,amount,decimal) */\n      mload(0x40)\n      dup1\n      0x60\n      add\n      0x40\n      mstore\n      dup1\n        /* \"src\\\\EsperFaucet.sol\":3865:3870  token */\n      dup6\n        /* \"src\\\\EsperFaucet.sol\":3855:3886  TokenInfo(token,amount,decimal) */\n      0xffffffffffffffffffffffffffffffffffffffff\n      and\n      dup2\n      mstore\n      0x20\n      add\n        /* \"src\\\\EsperFaucet.sol\":3871:3877  amount */\n      dup5\n        /* \"src\\\\EsperFaucet.sol\":3855:3886  TokenInfo(token,amount,decimal) */\n      dup2\n      mstore\n      0x20\n      add\n        /* \"src\\\\EsperFaucet.sol\":3878:3885  decimal */\n      dup4\n        /* \"src\\\\EsperFaucet.sol\":3855:3886  TokenInfo(token,amount,decimal) */\n      0xff\n      and\n      dup2\n      mstore\n      pop\n        /* \"src\\\\EsperFaucet.sol\":3827:3886  TokenInfo memory newToken = TokenInfo(token,amount,decimal) */\n      swap1\n      pop\n        /* \"src\\\\EsperFaucet.sol\":3919:3927  newToken */\n      dup1\n        /* \"src\\\\EsperFaucet.sol\":3893:3900  _tokens */\n      0x01\n        /* \"src\\\\EsperFaucet.sol\":3901:3908  _tokens */\n      dup1\n        /* \"src\\\\EsperFaucet.sol\":3901:3915  _tokens.length */\n      dup1\n      sload\n      swap1\n      pop\n        /* \"src\\\\EsperFaucet.sol\":3893:3916  _tokens[_tokens.length] */\n      dup2\n      sload\n      dup2\n      lt\n      tag_76\n      jumpi\n      tag_77\n      tag_67\n      jump\t// in\n    tag_77:\n    tag_76:\n      swap1\n      0x00\n      mstore\n      keccak256(0x00, 0x20)\n      swap1\n      0x03\n      mul\n      add\n        /* \"src\\\\EsperFaucet.sol\":3893:3927  _tokens[_tokens.length] = newToken */\n      0x00\n      dup3\n      add\n      mload\n      dup2\n      0x00\n      add\n      exp(0x0100, 0x00)\n      dup2\n      sload\n      dup2\n      0xffffffffffffffffffffffffffffffffffffffff\n      mul\n      not\n      and\n      swap1\n      dup4\n      0xffffffffffffffffffffffffffffffffffffffff\n      and\n      mul\n      or\n      swap1\n      sstore\n      pop\n      0x20\n      dup3\n      add\n      mload\n      dup2\n      0x01\n      add\n      sstore\n      0x40\n      dup3\n      add\n      mload\n      dup2\n      0x02\n      add\n      exp(0x0100, 0x00)\n      dup2\n      sload\n      dup2\n      0xff\n      mul\n      not\n      and\n      swap1\n      dup4\n      0xff\n      and\n      mul\n      or\n      swap1\n      sstore\n      pop\n      swap1\n      pop\n      pop\n        /* \"src\\\\EsperFaucet.sol\":3936:3985  IERC20(token).safeTransfer(address(this), amount) */\n      tag_79\n        /* \"src\\\\EsperFaucet.sol\":3971:3975  this */\n      address\n        /* \"src\\\\EsperFaucet.sol\":3978:3984  amount */\n      dup5\n        /* \"src\\\\EsperFaucet.sol\":3943:3948  token */\n      dup7\n        /* \"src\\\\EsperFaucet.sol\":3936:3962  IERC20(token).safeTransfer */\n      0xffffffffffffffffffffffffffffffffffffffff\n      and\n      tag_80\n      swap1\n        /* \"src\\\\EsperFaucet.sol\":3936:3985  IERC20(token).safeTransfer(address(this), amount) */\n      swap3\n      swap2\n      swap1\n      0xffffffff\n      and\n      jump\t// in\n    tag_79:\n        /* \"src\\\\EsperFaucet.sol\":3702:3991  {... */\n      pop\n        /* \"src\\\\EsperFaucet.sol\":3597:3991  function UpdateTokens(uint256 index , address token , uint256 amount , uint8 decimal) external onlyOwner {... */\n      pop\n      pop\n      pop\n      pop\n      jump\t// out\n        /* \"src\\\\EsperFaucet.sol\":1852:2534  function claim() external {... */\n    tag_21:\n        /* \"src\\\\EsperFaucet.sol\":1912:1913  0 */\n      0x00\n        /* \"src\\\\EsperFaucet.sol\":1894:1901  _tokens */\n      0x01\n        /* \"src\\\\EsperFaucet.sol\":1894:1908  _tokens.length */\n      dup1\n      sload\n      swap1\n      pop\n        /* \"src\\\\EsperFaucet.sol\":1894:1913  _tokens.length == 0 */\n      sub\n        /* \"src\\\\EsperFaucet.sol\":1891:1939  if(_tokens.length == 0) revert EmptyTokenInput() */\n      tag_82\n      jumpi\n        /* \"src\\\\EsperFaucet.sol\":1922:1939  EmptyTokenInput() */\n      mload(0x40)\n      0xcc0dadac00000000000000000000000000000000000000000000000000000000\n      dup2\n      mstore\n      0x04\n      add\n      mload(0x40)\n      dup1\n      swap2\n      sub\n      swap1\n      revert\n        /* \"src\\\\EsperFaucet.sol\":1891:1939  if(_tokens.length == 0) revert EmptyTokenInput() */\n    tag_82:\n        /* \"src\\\\EsperFaucet.sol\":1977:1978  0 */\n      0x00\n        /* \"src\\\\EsperFaucet.sol\":1949:1961  userCooldown */\n      0x02\n        /* \"src\\\\EsperFaucet.sol\":1949:1973  userCooldown[msg.sender] */\n      0x00\n        /* \"src\\\\EsperFaucet.sol\":1962:1972  msg.sender */\n      caller\n        /* \"src\\\\EsperFaucet.sol\":1949:1973  userCooldown[msg.sender] */\n      0xffffffffffffffffffffffffffffffffffffffff\n      and\n      0xffffffffffffffffffffffffffffffffffffffff\n      and\n      dup2\n      mstore\n      0x20\n      add\n      swap1\n      dup2\n      mstore\n      0x20\n      add\n      0x00\n      keccak256\n      sload\n        /* \"src\\\\EsperFaucet.sol\":1949:1978  userCooldown[msg.sender] != 0 */\n      eq\n        /* \"src\\\\EsperFaucet.sol\":1946:2078  if(userCooldown[msg.sender] != 0){... */\n      tag_83\n      jumpi\n        /* \"src\\\\EsperFaucet.sol\":2036:2049  rangeMintTime */\n      sload(0x03)\n        /* \"src\\\\EsperFaucet.sol\":2009:2021  userCooldown */\n      0x02\n        /* \"src\\\\EsperFaucet.sol\":2009:2033  userCooldown[msg.sender] */\n      0x00\n        /* \"src\\\\EsperFaucet.sol\":2022:2032  msg.sender */\n      caller\n        /* \"src\\\\EsperFaucet.sol\":2009:2033  userCooldown[msg.sender] */\n      0xffffffffffffffffffffffffffffffffffffffff\n      and\n      0xffffffffffffffffffffffffffffffffffffffff\n      and\n      dup2\n      mstore\n      0x20\n      add\n      swap1\n      dup2\n      mstore\n      0x20\n      add\n      0x00\n      keccak256\n      sload\n        /* \"src\\\\EsperFaucet.sol\":1991:2006  block.timestamp */\n      timestamp\n        /* \"src\\\\EsperFaucet.sol\":1991:2033  block.timestamp - userCooldown[msg.sender] */\n      tag_84\n      swap2\n      swap1\n      tag_64\n      jump\t// in\n    tag_84:\n        /* \"src\\\\EsperFaucet.sol\":1991:2049  block.timestamp - userCooldown[msg.sender] < rangeMintTime */\n      lt\n        /* \"src\\\\EsperFaucet.sol\":1988:2070  if(block.timestamp - userCooldown[msg.sender] < rangeMintTime) revert UnableMint() */\n      iszero\n      tag_85\n      jumpi\n        /* \"src\\\\EsperFaucet.sol\":2058:2070  UnableMint() */\n      mload(0x40)\n      0x0bfee37700000000000000000000000000000000000000000000000000000000\n      dup2\n      mstore\n      0x04\n      add\n      mload(0x40)\n      dup1\n      swap2\n      sub\n      swap1\n      revert\n        /* \"src\\\\EsperFaucet.sol\":1988:2070  if(block.timestamp - userCooldown[msg.sender] < rangeMintTime) revert UnableMint() */\n    tag_85:\n        /* \"src\\\\EsperFaucet.sol\":1946:2078  if(userCooldown[msg.sender] != 0){... */\n    tag_83:\n        /* \"src\\\\EsperFaucet.sol\":2090:2099  uint256 i */\n      0x00\n        /* \"src\\\\EsperFaucet.sol\":2086:2476  for(uint256 i; i < _tokens.length; i++){... */\n    tag_86:\n        /* \"src\\\\EsperFaucet.sol\":2105:2112  _tokens */\n      0x01\n        /* \"src\\\\EsperFaucet.sol\":2105:2119  _tokens.length */\n      dup1\n      sload\n      swap1\n      pop\n        /* \"src\\\\EsperFaucet.sol\":2101:2102  i */\n      dup2\n        /* \"src\\\\EsperFaucet.sol\":2101:2119  i < _tokens.length */\n      lt\n        /* \"src\\\\EsperFaucet.sol\":2086:2476  for(uint256 i; i < _tokens.length; i++){... */\n      iszero\n      tag_87\n      jumpi\n        /* \"src\\\\EsperFaucet.sol\":2166:2194  uint256 existingTokenBalance */\n      0x00\n        /* \"src\\\\EsperFaucet.sol\":2204:2211  _tokens */\n      0x01\n        /* \"src\\\\EsperFaucet.sol\":2212:2213  i */\n      dup3\n        /* \"src\\\\EsperFaucet.sol\":2204:2214  _tokens[i] */\n      dup2\n      sload\n      dup2\n      lt\n      tag_89\n      jumpi\n      tag_90\n      tag_67\n      jump\t// in\n    tag_90:\n    tag_89:\n      swap1\n      0x00\n      mstore\n      keccak256(0x00, 0x20)\n      swap1\n      0x03\n      mul\n      add\n        /* \"src\\\\EsperFaucet.sol\":2204:2220  _tokens[i].token */\n      0x00\n      add\n      0x00\n      swap1\n      sload\n      swap1\n      0x0100\n      exp\n      swap1\n      div\n      0xffffffffffffffffffffffffffffffffffffffff\n      and\n        /* \"src\\\\EsperFaucet.sol\":2197:2231  IERC20(_tokens[i].token).balanceOf */\n      0xffffffffffffffffffffffffffffffffffffffff\n      and\n      0x70a08231\n        /* \"src\\\\EsperFaucet.sol\":2240:2244  this */\n      address\n        /* \"src\\\\EsperFaucet.sol\":2197:2246  IERC20(_tokens[i].token).balanceOf(address(this)) */\n      mload(0x40)\n      dup3\n      0xffffffff\n      and\n      0xe0\n      shl\n      dup2\n      mstore\n      0x04\n      add\n      tag_92\n      swap2\n      swap1\n      tag_27\n      jump\t// in\n    tag_92:\n      0x20\n      mload(0x40)\n      dup1\n      dup4\n      sub\n      dup2\n      dup7\n      gas\n      staticcall\n      iszero\n      dup1\n      iszero\n      tag_94\n      jumpi\n      returndatasize\n      0x00\n      dup1\n      returndatacopy\n      revert(0x00, returndatasize)\n    tag_94:\n      pop\n      pop\n      pop\n      pop\n      mload(0x40)\n      returndatasize\n      not(0x1f)\n      0x1f\n      dup3\n      add\n      and\n      dup3\n      add\n      dup1\n      0x40\n      mstore\n      pop\n      dup2\n      add\n      swap1\n      tag_95\n      swap2\n      swap1\n      tag_96\n      jump\t// in\n    tag_95:\n        /* \"src\\\\EsperFaucet.sol\":2166:2246  uint256 existingTokenBalance = IERC20(_tokens[i].token).balanceOf(address(this)) */\n      swap1\n      pop\n        /* \"src\\\\EsperFaucet.sol\":2342:2349  _tokens */\n      0x01\n        /* \"src\\\\EsperFaucet.sol\":2350:2351  i */\n      dup3\n        /* \"src\\\\EsperFaucet.sol\":2342:2352  _tokens[i] */\n      dup2\n      sload\n      dup2\n      lt\n      tag_97\n      jumpi\n      tag_98\n      tag_67\n      jump\t// in\n    tag_98:\n    tag_97:\n      swap1\n      0x00\n      mstore\n      keccak256(0x00, 0x20)\n      swap1\n      0x03\n      mul\n      add\n        /* \"src\\\\EsperFaucet.sol\":2342:2359  _tokens[i].amount */\n      0x01\n      add\n      sload\n        /* \"src\\\\EsperFaucet.sol\":2319:2339  existingTokenBalance */\n      dup2\n        /* \"src\\\\EsperFaucet.sol\":2319:2359  existingTokenBalance < _tokens[i].amount */\n      lt\n        /* \"src\\\\EsperFaucet.sol\":2316:2389  if(existingTokenBalance < _tokens[i].amount) revert InsufficientBalance() */\n      iszero\n      tag_100\n      jumpi\n        /* \"src\\\\EsperFaucet.sol\":2368:2389  InsufficientBalance() */\n      mload(0x40)\n      0xf4d678b800000000000000000000000000000000000000000000000000000000\n      dup2\n      mstore\n      0x04\n      add\n      mload(0x40)\n      dup1\n      swap2\n      sub\n      swap1\n      revert\n        /* \"src\\\\EsperFaucet.sol\":2316:2389  if(existingTokenBalance < _tokens[i].amount) revert InsufficientBalance() */\n    tag_100:\n        /* \"src\\\\EsperFaucet.sol\":2400:2468  IERC20(_tokens[i].token).safeTransfer(msg.sender, _tokens[i].amount) */\n      tag_101\n        /* \"src\\\\EsperFaucet.sol\":2438:2448  msg.sender */\n      caller\n        /* \"src\\\\EsperFaucet.sol\":2450:2457  _tokens */\n      0x01\n        /* \"src\\\\EsperFaucet.sol\":2458:2459  i */\n      dup5\n        /* \"src\\\\EsperFaucet.sol\":2450:2460  _tokens[i] */\n      dup2\n      sload\n      dup2\n      lt\n      tag_102\n      jumpi\n      tag_103\n      tag_67\n      jump\t// in\n    tag_103:\n    tag_102:\n      swap1\n      0x00\n      mstore\n      keccak256(0x00, 0x20)\n      swap1\n      0x03\n      mul\n      add\n        /* \"src\\\\EsperFaucet.sol\":2450:2467  _tokens[i].amount */\n      0x01\n      add\n      sload\n        /* \"src\\\\EsperFaucet.sol\":2407:2414  _tokens */\n      0x01\n        /* \"src\\\\EsperFaucet.sol\":2415:2416  i */\n      dup6\n        /* \"src\\\\EsperFaucet.sol\":2407:2417  _tokens[i] */\n      dup2\n      sload\n      dup2\n      lt\n      tag_105\n      jumpi\n      tag_106\n      tag_67\n      jump\t// in\n    tag_106:\n    tag_105:\n      swap1\n      0x00\n      mstore\n      keccak256(0x00, 0x20)\n      swap1\n      0x03\n      mul\n      add\n        /* \"src\\\\EsperFaucet.sol\":2407:2423  _tokens[i].token */\n      0x00\n      add\n      0x00\n      swap1\n      sload\n      swap1\n      0x0100\n      exp\n      swap1\n      div\n      0xffffffffffffffffffffffffffffffffffffffff\n      and\n        /* \"src\\\\EsperFaucet.sol\":2400:2437  IERC20(_tokens[i].token).safeTransfer */\n      0xffffffffffffffffffffffffffffffffffffffff\n      and\n      tag_80\n      swap1\n        /* \"src\\\\EsperFaucet.sol\":2400:2468  IERC20(_tokens[i].token).safeTransfer(msg.sender, _tokens[i].amount) */\n      swap3\n      swap2\n      swap1\n      0xffffffff\n      and\n      jump\t// in\n    tag_101:\n        /* \"src\\\\EsperFaucet.sol\":2125:2476  {... */\n      pop\n        /* \"src\\\\EsperFaucet.sol\":2121:2124  i++ */\n      dup1\n      dup1\n      tag_108\n      swap1\n      tag_109\n      jump\t// in\n    tag_108:\n      swap2\n      pop\n      pop\n        /* \"src\\\\EsperFaucet.sol\":2086:2476  for(uint256 i; i < _tokens.length; i++){... */\n      jump(tag_86)\n    tag_87:\n      pop\n        /* \"src\\\\EsperFaucet.sol\":2511:2526  block.timestamp */\n      timestamp\n        /* \"src\\\\EsperFaucet.sol\":2484:2496  userCooldown */\n      0x02\n        /* \"src\\\\EsperFaucet.sol\":2484:2508  userCooldown[msg.sender] */\n      0x00\n        /* \"src\\\\EsperFaucet.sol\":2497:2507  msg.sender */\n      caller\n        /* \"src\\\\EsperFaucet.sol\":2484:2508  userCooldown[msg.sender] */\n      0xffffffffffffffffffffffffffffffffffffffff\n      and\n      0xffffffffffffffffffffffffffffffffffffffff\n      and\n      dup2\n      mstore\n      0x20\n      add\n      swap1\n      dup2\n      mstore\n      0x20\n      add\n      0x00\n      keccak256\n        /* \"src\\\\EsperFaucet.sol\":2484:2526  userCooldown[msg.sender] = block.timestamp */\n      dup2\n      swap1\n      sstore\n      pop\n        /* \"src\\\\EsperFaucet.sol\":1852:2534  function claim() external {... */\n      jump\t// out\n        /* \"src\\\\EsperFaucet.sol\":1424:1596  function getTokenAddressByIndex(uint256 index) external view returns (address) {... */\n    tag_25:\n        /* \"src\\\\EsperFaucet.sol\":1494:1501  address */\n      0x00\n        /* \"src\\\\EsperFaucet.sol\":1523:1530  _tokens */\n      0x01\n        /* \"src\\\\EsperFaucet.sol\":1523:1537  _tokens.length */\n      dup1\n      sload\n      swap1\n      pop\n        /* \"src\\\\EsperFaucet.sol\":1514:1519  index */\n      dup3\n        /* \"src\\\\EsperFaucet.sol\":1514:1537  index >= _tokens.length */\n      lt\n        /* \"src\\\\EsperFaucet.sol\":1510:1556  if (index >= _tokens.length) return address(0) */\n      tag_111\n      jumpi\n        /* \"src\\\\EsperFaucet.sol\":1554:1555  0 */\n      0x00\n        /* \"src\\\\EsperFaucet.sol\":1539:1556  return address(0) */\n      swap1\n      pop\n      jump(tag_110)\n        /* \"src\\\\EsperFaucet.sol\":1510:1556  if (index >= _tokens.length) return address(0) */\n    tag_111:\n        /* \"src\\\\EsperFaucet.sol\":1570:1577  _tokens */\n      0x01\n        /* \"src\\\\EsperFaucet.sol\":1578:1583  index */\n      dup3\n        /* \"src\\\\EsperFaucet.sol\":1570:1584  _tokens[index] */\n      dup2\n      sload\n      dup2\n      lt\n      tag_112\n      jumpi\n      tag_113\n      tag_67\n      jump\t// in\n    tag_113:\n    tag_112:\n      swap1\n      0x00\n      mstore\n      keccak256(0x00, 0x20)\n      swap1\n      0x03\n      mul\n      add\n        /* \"src\\\\EsperFaucet.sol\":1570:1590  _tokens[index].token */\n      0x00\n      add\n      0x00\n      swap1\n      sload\n      swap1\n      0x0100\n      exp\n      swap1\n      div\n      0xffffffffffffffffffffffffffffffffffffffff\n      and\n        /* \"src\\\\EsperFaucet.sol\":1563:1590  return _tokens[index].token */\n      swap1\n      pop\n        /* \"src\\\\EsperFaucet.sol\":1424:1596  function getTokenAddressByIndex(uint256 index) external view returns (address) {... */\n    tag_110:\n      swap2\n      swap1\n      pop\n      jump\t// out\n        /* \"@openzeppelin/contracts/access/Ownable.sol\":1824:1925  function renounceOwnership() public virtual onlyOwner {... */\n    tag_29:\n        /* \"@openzeppelin/contracts/access/Ownable.sol\":1094:1107  _checkOwner() */\n      tag_116\n        /* \"@openzeppelin/contracts/access/Ownable.sol\":1094:1105  _checkOwner */\n      tag_60\n        /* \"@openzeppelin/contracts/access/Ownable.sol\":1094:1107  _checkOwner() */\n      jump\t// in\n    tag_116:\n        /* \"@openzeppelin/contracts/access/Ownable.sol\":1888:1918  _transferOwnership(address(0)) */\n      tag_118\n        /* \"@openzeppelin/contracts/access/Ownable.sol\":1915:1916  0 */\n      0x00\n        /* \"@openzeppelin/contracts/access/Ownable.sol\":1888:1906  _transferOwnership */\n      tag_119\n        /* \"@openzeppelin/contracts/access/Ownable.sol\":1888:1918  _transferOwnership(address(0)) */\n      jump\t// in\n    tag_118:\n        /* \"@openzeppelin/contracts/access/Ownable.sol\":1824:1925  function renounceOwnership() public virtual onlyOwner {... */\n      jump\t// out\n        /* \"src\\\\EsperFaucet.sol\":1111:1201  function getRangeTime() external view returns (uint256){... */\n    tag_31:\n        /* \"src\\\\EsperFaucet.sol\":1158:1165  uint256 */\n      0x00\n        /* \"src\\\\EsperFaucet.sol\":1180:1193  rangeMintTime */\n      sload(0x03)\n        /* \"src\\\\EsperFaucet.sol\":1173:1193  return rangeMintTime */\n      swap1\n      pop\n        /* \"src\\\\EsperFaucet.sol\":1111:1201  function getRangeTime() external view returns (uint256){... */\n      swap1\n      jump\t// out\n        /* \"@openzeppelin/contracts/access/Ownable.sol\":1201:1286  function owner() public view virtual returns (address) {... */\n    tag_35:\n        /* \"@openzeppelin/contracts/access/Ownable.sol\":1247:1254  address */\n      0x00\n        /* \"@openzeppelin/contracts/access/Ownable.sol\":1273:1279  _owner */\n      dup1\n      0x00\n      swap1\n      sload\n      swap1\n      0x0100\n      exp\n      swap1\n      div\n      0xffffffffffffffffffffffffffffffffffffffff\n      and\n        /* \"@openzeppelin/contracts/access/Ownable.sol\":1266:1279  return _owner */\n      swap1\n      pop\n        /* \"@openzeppelin/contracts/access/Ownable.sol\":1201:1286  function owner() public view virtual returns (address) {... */\n      swap1\n      jump\t// out\n        /* \"src\\\\EsperFaucet.sol\":2870:2968  function setRangeTime(uint256 rangeTime) external onlyOwner {... */\n    tag_39:\n        /* \"@openzeppelin/contracts/access/Ownable.sol\":1094:1107  _checkOwner() */\n      tag_123\n        /* \"@openzeppelin/contracts/access/Ownable.sol\":1094:1105  _checkOwner */\n      tag_60\n        /* \"@openzeppelin/contracts/access/Ownable.sol\":1094:1107  _checkOwner() */\n      jump\t// in\n    tag_123:\n        /* \"src\\\\EsperFaucet.sol\":2953:2962  rangeTime */\n      dup1\n        /* \"src\\\\EsperFaucet.sol\":2937:2950  rangeMintTime */\n      0x03\n        /* \"src\\\\EsperFaucet.sol\":2937:2962  rangeMintTime = rangeTime */\n      dup2\n      swap1\n      sstore\n      pop\n        /* \"src\\\\EsperFaucet.sol\":2870:2968  function setRangeTime(uint256 rangeTime) external onlyOwner {... */\n      pop\n      jump\t// out\n        /* \"src\\\\EsperFaucet.sol\":3374:3507  function removeTokens(uint256 index) external onlyOwner {... */\n    tag_42:\n        /* \"@openzeppelin/contracts/access/Ownable.sol\":1094:1107  _checkOwner() */\n      tag_126\n        /* \"@openzeppelin/contracts/access/Ownable.sol\":1094:1105  _checkOwner */\n      tag_60\n        /* \"@openzeppelin/contracts/access/Ownable.sol\":1094:1107  _checkOwner() */\n      jump\t// in\n    tag_126:\n        /* \"src\\\\EsperFaucet.sol\":3454:3461  _tokens */\n      0x01\n        /* \"src\\\\EsperFaucet.sol\":3479:3480  1 */\n      dup1\n        /* \"src\\\\EsperFaucet.sol\":3462:3469  _tokens */\n      dup1\n        /* \"src\\\\EsperFaucet.sol\":3462:3476  _tokens.length */\n      dup1\n      sload\n      swap1\n      pop\n        /* \"src\\\\EsperFaucet.sol\":3462:3480  _tokens.length - 1 */\n      tag_128\n      swap2\n      swap1\n      tag_64\n      jump\t// in\n    tag_128:\n        /* \"src\\\\EsperFaucet.sol\":3454:3481  _tokens[_tokens.length - 1] */\n      dup2\n      sload\n      dup2\n      lt\n      tag_129\n      jumpi\n      tag_130\n      tag_67\n      jump\t// in\n    tag_130:\n    tag_129:\n      swap1\n      0x00\n      mstore\n      keccak256(0x00, 0x20)\n      swap1\n      0x03\n      mul\n      add\n        /* \"src\\\\EsperFaucet.sol\":3437:3444  _tokens */\n      0x01\n        /* \"src\\\\EsperFaucet.sol\":3445:3450  index */\n      dup3\n        /* \"src\\\\EsperFaucet.sol\":3437:3451  _tokens[index] */\n      dup2\n      sload\n      dup2\n      lt\n      tag_132\n      jumpi\n      tag_133\n      tag_67\n      jump\t// in\n    tag_133:\n    tag_132:\n      swap1\n      0x00\n      mstore\n      keccak256(0x00, 0x20)\n      swap1\n      0x03\n      mul\n      add\n        /* \"src\\\\EsperFaucet.sol\":3437:3481  _tokens[index] = _tokens[_tokens.length - 1] */\n      0x00\n      dup3\n      add\n      0x00\n      swap1\n      sload\n      swap1\n      0x0100\n      exp\n      swap1\n      div\n      0xffffffffffffffffffffffffffffffffffffffff\n      and\n      dup2\n      0x00\n      add\n      exp(0x0100, 0x00)\n      dup2\n      sload\n      dup2\n      0xffffffffffffffffffffffffffffffffffffffff\n      mul\n      not\n      and\n      swap1\n      dup4\n      0xffffffffffffffffffffffffffffffffffffffff\n      and\n      mul\n      or\n      swap1\n      sstore\n      pop\n      0x01\n      dup3\n      add\n      sload\n      dup2\n      0x01\n      add\n      sstore\n      0x02\n      dup3\n      add\n      0x00\n      swap1\n      sload\n      swap1\n      0x0100\n      exp\n      swap1\n      div\n      0xff\n      and\n      dup2\n      0x02\n      add\n      exp(0x0100, 0x00)\n      dup2\n      sload\n      dup2\n      0xff\n      mul\n      not\n      and\n      swap1\n      dup4\n      0xff\n      and\n      mul\n      or\n      swap1\n      sstore\n      pop\n      swap1\n      pop\n      pop\n        /* \"src\\\\EsperFaucet.sol\":3488:3495  _tokens */\n      0x01\n        /* \"src\\\\EsperFaucet.sol\":3488:3501  _tokens.pop() */\n      dup1\n      sload\n      dup1\n      tag_135\n      jumpi\n      tag_136\n      tag_74\n      jump\t// in\n    tag_136:\n    tag_135:\n      0x01\n      swap1\n      sub\n      dup2\n      dup2\n      swap1\n      0x00\n      mstore\n      keccak256(0x00, 0x20)\n      swap1\n      0x03\n      mul\n      add\n      0x00\n      dup1\n      dup3\n      add\n      exp(0x0100, 0x00)\n      dup2\n      sload\n      swap1\n      0xffffffffffffffffffffffffffffffffffffffff\n      mul\n      not\n      and\n      swap1\n      sstore\n      0x01\n      dup3\n      add\n      0x00\n      swap1\n      sstore\n      0x02\n      dup3\n      add\n      exp(0x0100, 0x00)\n      dup2\n      sload\n      swap1\n      0xff\n      mul\n      not\n      and\n      swap1\n      sstore\n      pop\n      pop\n      swap1\n      sstore\n        /* \"src\\\\EsperFaucet.sol\":3374:3507  function removeTokens(uint256 index) external onlyOwner {... */\n      pop\n      jump\t// out\n        /* \"src\\\\EsperFaucet.sol\":3053:3285  function addTokens(address token , uint256 amount , uint8 decimal) external onlyOwner {... */\n    tag_46:\n        /* \"@openzeppelin/contracts/access/Ownable.sol\":1094:1107  _checkOwner() */\n      tag_139\n        /* \"@openzeppelin/contracts/access/Ownable.sol\":1094:1105  _checkOwner */\n      tag_60\n        /* \"@openzeppelin/contracts/access/Ownable.sol\":1094:1107  _checkOwner() */\n      jump\t// in\n    tag_139:\n        /* \"src\\\\EsperFaucet.sol\":3159:3160  0 */\n      0x00\n        /* \"src\\\\EsperFaucet.sol\":3149:3155  amount */\n      dup3\n        /* \"src\\\\EsperFaucet.sol\":3149:3160  amount == 0 */\n      sub\n        /* \"src\\\\EsperFaucet.sol\":3146:3184  if(amount == 0) revert InvalidAmount() */\n      tag_141\n      jumpi\n        /* \"src\\\\EsperFaucet.sol\":3169:3184  InvalidAmount() */\n      mload(0x40)\n      0x2c5211c600000000000000000000000000000000000000000000000000000000\n      dup2\n      mstore\n      0x04\n      add\n      mload(0x40)\n      dup1\n      swap2\n      sub\n      swap1\n      revert\n        /* \"src\\\\EsperFaucet.sol\":3146:3184  if(amount == 0) revert InvalidAmount() */\n    tag_141:\n        /* \"src\\\\EsperFaucet.sol\":3191:3216  TokenInfo memory newToken */\n      0x00\n        /* \"src\\\\EsperFaucet.sol\":3219:3250  TokenInfo(token,amount,decimal) */\n      mload(0x40)\n      dup1\n      0x60\n      add\n      0x40\n      mstore\n      dup1\n        /* \"src\\\\EsperFaucet.sol\":3229:3234  token */\n      dup6\n        /* \"src\\\\EsperFaucet.sol\":3219:3250  TokenInfo(token,amount,decimal) */\n      0xffffffffffffffffffffffffffffffffffffffff\n      and\n      dup2\n      mstore\n      0x20\n      add\n        /* \"src\\\\EsperFaucet.sol\":3235:3241  amount */\n      dup5\n        /* \"src\\\\EsperFaucet.sol\":3219:3250  TokenInfo(token,amount,decimal) */\n      dup2\n      mstore\n      0x20\n      add\n        /* \"src\\\\EsperFaucet.sol\":3242:3249  decimal */\n      dup4\n        /* \"src\\\\EsperFaucet.sol\":3219:3250  TokenInfo(token,amount,decimal) */\n      0xff\n      and\n      dup2\n      mstore\n      pop\n        /* \"src\\\\EsperFaucet.sol\":3191:3250  TokenInfo memory newToken = TokenInfo(token,amount,decimal) */\n      swap1\n      pop\n        /* \"src\\\\EsperFaucet.sol\":3257:3264  _tokens */\n      0x01\n        /* \"src\\\\EsperFaucet.sol\":3270:3278  newToken */\n      dup2\n        /* \"src\\\\EsperFaucet.sol\":3257:3279  _tokens.push(newToken) */\n      swap1\n      dup1\n      0x01\n      dup2\n      sload\n      add\n      dup1\n      dup3\n      sstore\n      dup1\n      swap2\n      pop\n      pop\n      0x01\n      swap1\n      sub\n      swap1\n      0x00\n      mstore\n      keccak256(0x00, 0x20)\n      swap1\n      0x03\n      mul\n      add\n      0x00\n      swap1\n      swap2\n      swap1\n      swap2\n      swap1\n      swap2\n      pop\n      0x00\n      dup3\n      add\n      mload\n      dup2\n      0x00\n      add\n      exp(0x0100, 0x00)\n      dup2\n      sload\n      dup2\n      0xffffffffffffffffffffffffffffffffffffffff\n      mul\n      not\n      and\n      swap1\n      dup4\n      0xffffffffffffffffffffffffffffffffffffffff\n      and\n      mul\n      or\n      swap1\n      sstore\n      pop\n      0x20\n      dup3\n      add\n      mload\n      dup2\n      0x01\n      add\n      sstore\n      0x40\n      dup3\n      add\n      mload\n      dup2\n      0x02\n      add\n      exp(0x0100, 0x00)\n      dup2\n      sload\n      dup2\n      0xff\n      mul\n      not\n      and\n      swap1\n      dup4\n      0xff\n      and\n      mul\n      or\n      swap1\n      sstore\n      pop\n      pop\n      pop\n        /* \"src\\\\EsperFaucet.sol\":3139:3285  {... */\n      pop\n        /* \"src\\\\EsperFaucet.sol\":3053:3285  function addTokens(address token , uint256 amount , uint8 decimal) external onlyOwner {... */\n      pop\n      pop\n      pop\n      jump\t// out\n        /* \"src\\\\EsperFaucet.sol\":1271:1360  function tokenLength() external view returns (uint256) {... */\n    tag_48:\n        /* \"src\\\\EsperFaucet.sol\":1317:1324  uint256 */\n      0x00\n        /* \"src\\\\EsperFaucet.sol\":1340:1347  _tokens */\n      0x01\n        /* \"src\\\\EsperFaucet.sol\":1340:1354  _tokens.length */\n      dup1\n      sload\n      swap1\n      pop\n        /* \"src\\\\EsperFaucet.sol\":1333:1354  return _tokens.length */\n      swap1\n      pop\n        /* \"src\\\\EsperFaucet.sol\":1271:1360  function tokenLength() external view returns (uint256) {... */\n      swap1\n      jump\t// out\n        /* \"src\\\\EsperFaucet.sol\":723:770  mapping(address => uint256) public userCooldown */\n    tag_53:\n      mstore(0x20, 0x02)\n      dup1\n      0x00\n      mstore\n      keccak256(0x00, 0x40)\n      0x00\n      swap2\n      pop\n      swap1\n      pop\n      sload\n      dup2\n      jump\t// out\n        /* \"@openzeppelin/contracts/access/Ownable.sol\":2074:2272  function transferOwnership(address newOwner) public virtual onlyOwner {... */\n    tag_57:\n        /* \"@openzeppelin/contracts/access/Ownable.sol\":1094:1107  _checkOwner() */\n      tag_145\n        /* \"@openzeppelin/contracts/access/Ownable.sol\":1094:1105  _checkOwner */\n      tag_60\n        /* \"@openzeppelin/contracts/access/Ownable.sol\":1094:1107  _checkOwner() */\n      jump\t// in\n    tag_145:\n        /* \"@openzeppelin/contracts/access/Ownable.sol\":2182:2183  0 */\n      0x00\n        /* \"@openzeppelin/contracts/access/Ownable.sol\":2162:2184  newOwner != address(0) */\n      0xffffffffffffffffffffffffffffffffffffffff\n      and\n        /* \"@openzeppelin/contracts/access/Ownable.sol\":2162:2170  newOwner */\n      dup2\n        /* \"@openzeppelin/contracts/access/Ownable.sol\":2162:2184  newOwner != address(0) */\n      0xffffffffffffffffffffffffffffffffffffffff\n      and\n      sub\n        /* \"@openzeppelin/contracts/access/Ownable.sol\":2154:2227  require(newOwner != address(0), \"Ownable: new owner is the zero address\") */\n      tag_147\n      jumpi\n      mload(0x40)\n      0x08c379a000000000000000000000000000000000000000000000000000000000\n      dup2\n      mstore\n      0x04\n      add\n      tag_148\n      swap1\n      tag_149\n      jump\t// in\n    tag_148:\n      mload(0x40)\n      dup1\n      swap2\n      sub\n      swap1\n      revert\n    tag_147:\n        /* \"@openzeppelin/contracts/access/Ownable.sol\":2237:2265  _transferOwnership(newOwner) */\n      tag_150\n        /* \"@openzeppelin/contracts/access/Ownable.sol\":2256:2264  newOwner */\n      dup2\n        /* \"@openzeppelin/contracts/access/Ownable.sol\":2237:2255  _transferOwnership */\n      tag_119\n        /* \"@openzeppelin/contracts/access/Ownable.sol\":2237:2265  _transferOwnership(newOwner) */\n      jump\t// in\n    tag_150:\n        /* \"@openzeppelin/contracts/access/Ownable.sol\":2074:2272  function transferOwnership(address newOwner) public virtual onlyOwner {... */\n      pop\n      jump\t// out\n        /* \"@openzeppelin/contracts/access/Ownable.sol\":1359:1489  function _checkOwner() internal view virtual {... */\n    tag_60:\n        /* \"@openzeppelin/contracts/access/Ownable.sol\":1433:1445  _msgSender() */\n      tag_152\n        /* \"@openzeppelin/contracts/access/Ownable.sol\":1433:1443  _msgSender */\n      tag_153\n        /* \"@openzeppelin/contracts/access/Ownable.sol\":1433:1445  _msgSender() */\n      jump\t// in\n    tag_152:\n        /* \"@openzeppelin/contracts/access/Ownable.sol\":1422:1445  owner() == _msgSender() */\n      0xffffffffffffffffffffffffffffffffffffffff\n      and\n        /* \"@openzeppelin/contracts/access/Ownable.sol\":1422:1429  owner() */\n      tag_154\n        /* \"@openzeppelin/contracts/access/Ownable.sol\":1422:1427  owner */\n      tag_35\n        /* \"@openzeppelin/contracts/access/Ownable.sol\":1422:1429  owner() */\n      jump\t// in\n    tag_154:\n        /* \"@openzeppelin/contracts/access/Ownable.sol\":1422:1445  owner() == _msgSender() */\n      0xffffffffffffffffffffffffffffffffffffffff\n      and\n      eq\n        /* \"@openzeppelin/contracts/access/Ownable.sol\":1414:1482  require(owner() == _msgSender(), \"Ownable: caller is not the owner\") */\n      tag_155\n      jumpi\n      mload(0x40)\n      0x08c379a000000000000000000000000000000000000000000000000000000000\n      dup2\n      mstore\n      0x04\n      add\n      tag_156\n      swap1\n      tag_157\n      jump\t// in\n    tag_156:\n      mload(0x40)\n      dup1\n      swap2\n      sub\n      swap1\n      revert\n    tag_155:\n        /* \"@openzeppelin/contracts/access/Ownable.sol\":1359:1489  function _checkOwner() internal view virtual {... */\n      jump\t// out\n        /* \"@openzeppelin/contracts/token/ERC20/utils/SafeERC20.sol\":941:1116  function safeTransfer(IERC20 token, address to, uint256 value) internal {... */\n    tag_80:\n        /* \"@openzeppelin/contracts/token/ERC20/utils/SafeERC20.sol\":1023:1109  _callOptionalReturn(token, abi.encodeWithSelector(token.transfer.selector, to, value)) */\n      tag_159\n        /* \"@openzeppelin/contracts/token/ERC20/utils/SafeERC20.sol\":1043:1048  token */\n      dup4\n        /* \"@openzeppelin/contracts/token/ERC20/utils/SafeERC20.sol\":1073:1096  token.transfer.selector */\n      shl(0xe0, 0xa9059cbb)\n        /* \"@openzeppelin/contracts/token/ERC20/utils/SafeERC20.sol\":1098:1100  to */\n      dup5\n        /* \"@openzeppelin/contracts/token/ERC20/utils/SafeERC20.sol\":1102:1107  value */\n      dup5\n        /* \"@openzeppelin/contracts/token/ERC20/utils/SafeERC20.sol\":1050:1108  abi.encodeWithSelector(token.transfer.selector, to, value) */\n      add(0x24, mload(0x40))\n      tag_160\n      swap3\n      swap2\n      swap1\n      tag_161\n      jump\t// in\n    tag_160:\n      mload(0x40)\n      0x20\n      dup2\n      dup4\n      sub\n      sub\n      dup2\n      mstore\n      swap1\n      0x40\n      mstore\n      swap1\n      not(0xffffffffffffffffffffffffffffffffffffffffffffffffffffffff)\n      and\n      0x20\n      dup3\n      add\n      dup1\n      mload\n      0xffffffffffffffffffffffffffffffffffffffffffffffffffffffff\n      dup4\n      dup2\n      dup4\n      and\n      or\n      dup4\n      mstore\n      pop\n      pop\n      pop\n      pop\n        /* \"@openzeppelin/contracts/token/ERC20/utils/SafeERC20.sol\":1023:1042  _callOptionalReturn */\n      tag_162\n        /* \"@openzeppelin/contracts/token/ERC20/utils/SafeERC20.sol\":1023:1109  _callOptionalReturn(token, abi.encodeWithSelector(token.transfer.selector, to, value)) */\n      jump\t// in\n    tag_159:\n        /* \"@openzeppelin/contracts/token/ERC20/utils/SafeERC20.sol\":941:1116  function safeTransfer(IERC20 token, address to, uint256 value) internal {... */\n      pop\n      pop\n      pop\n      jump\t// out\n        /* \"@openzeppelin/contracts/access/Ownable.sol\":2426:2613  function _transferOwnership(address newOwner) internal virtual {... */\n    tag_119:\n        /* \"@openzeppelin/contracts/access/Ownable.sol\":2499:2515  address oldOwner */\n      0x00\n        /* \"@openzeppelin/contracts/access/Ownable.sol\":2518:2524  _owner */\n      dup1\n      0x00\n      swap1\n      sload\n      swap1\n      0x0100\n      exp\n      swap1\n      div\n      0xffffffffffffffffffffffffffffffffffffffff\n      and\n        /* \"@openzeppelin/contracts/access/Ownable.sol\":2499:2524  address oldOwner = _owner */\n      swap1\n      pop\n        /* \"@openzeppelin/contracts/access/Ownable.sol\":2543:2551  newOwner */\n      dup2\n        /* \"@openzeppelin/contracts/access/Ownable.sol\":2534:2540  _owner */\n      0x00\n      dup1\n        /* \"@openzeppelin/contracts/access/Ownable.sol\":2534:2551  _owner = newOwner */\n      0x0100\n      exp\n      dup2\n      sload\n      dup2\n      0xffffffffffffffffffffffffffffffffffffffff\n      mul\n      not\n      and\n      swap1\n      dup4\n      0xffffffffffffffffffffffffffffffffffffffff\n      and\n      mul\n      or\n      swap1\n      sstore\n      pop\n        /* \"@openzeppelin/contracts/access/Ownable.sol\":2597:2605  newOwner */\n      dup2\n        /* \"@openzeppelin/contracts/access/Ownable.sol\":2566:2606  OwnershipTransferred(oldOwner, newOwner) */\n      0xffffffffffffffffffffffffffffffffffffffff\n      and\n        /* \"@openzeppelin/contracts/access/Ownable.sol\":2587:2595  oldOwner */\n      dup2\n        /* \"@openzeppelin/contracts/access/Ownable.sol\":2566:2606  OwnershipTransferred(oldOwner, newOwner) */\n      0xffffffffffffffffffffffffffffffffffffffff\n      and\n      0x8be0079c531659141344cd1fd0a4f28419497f9722a3daafe3b4186f6b6457e0\n      mload(0x40)\n      mload(0x40)\n      dup1\n      swap2\n      sub\n      swap1\n      log3\n        /* \"@openzeppelin/contracts/access/Ownable.sol\":2489:2613  {... */\n      pop\n        /* \"@openzeppelin/contracts/access/Ownable.sol\":2426:2613  function _transferOwnership(address newOwner) internal virtual {... */\n      pop\n      jump\t// out\n        /* \"@openzeppelin/contracts/utils/Context.sol\":640:736  function _msgSender() internal view virtual returns (address) {... */\n    tag_153:\n        /* \"@openzeppelin/contracts/utils/Context.sol\":693:700  address */\n      0x00\n        /* \"@openzeppelin/contracts/utils/Context.sol\":719:729  msg.sender */\n      caller\n        /* \"@openzeppelin/contracts/utils/Context.sol\":712:729  return msg.sender */\n      swap1\n      pop\n        /* \"@openzeppelin/contracts/utils/Context.sol\":640:736  function _msgSender() internal view virtual returns (address) {... */\n      swap1\n      jump\t// out\n        /* \"@openzeppelin/contracts/token/ERC20/utils/SafeERC20.sol\":5196:5838  function _callOptionalReturn(IERC20 token, bytes memory data) private {... */\n    tag_162:\n        /* \"@openzeppelin/contracts/token/ERC20/utils/SafeERC20.sol\":5615:5638  bytes memory returndata */\n      0x00\n        /* \"@openzeppelin/contracts/token/ERC20/utils/SafeERC20.sol\":5641:5710  address(token).functionCall(data, \"SafeERC20: low-level call failed\") */\n      tag_166\n        /* \"@openzeppelin/contracts/token/ERC20/utils/SafeERC20.sol\":5669:5673  data */\n      dup3\n        /* \"@openzeppelin/contracts/token/ERC20/utils/SafeERC20.sol\":5641:5710  address(token).functionCall(data, \"SafeERC20: low-level call failed\") */\n      mload(0x40)\n      dup1\n      0x40\n      add\n      0x40\n      mstore\n      dup1\n      0x20\n      dup2\n      mstore\n      0x20\n      add\n      0x5361666545524332303a206c6f772d6c6576656c2063616c6c206661696c6564\n      dup2\n      mstore\n      pop\n        /* \"@openzeppelin/contracts/token/ERC20/utils/SafeERC20.sol\":5649:5654  token */\n      dup6\n        /* \"@openzeppelin/contracts/token/ERC20/utils/SafeERC20.sol\":5641:5668  address(token).functionCall */\n      0xffffffffffffffffffffffffffffffffffffffff\n      and\n      tag_167\n      swap1\n        /* \"@openzeppelin/contracts/token/ERC20/utils/SafeERC20.sol\":5641:5710  address(token).functionCall(data, \"SafeERC20: low-level call failed\") */\n      swap3\n      swap2\n      swap1\n      0xffffffff\n      and\n      jump\t// in\n    tag_166:\n        /* \"@openzeppelin/contracts/token/ERC20/utils/SafeERC20.sol\":5615:5710  bytes memory returndata = address(token).functionCall(data, \"SafeERC20: low-level call failed\") */\n      swap1\n      pop\n        /* \"@openzeppelin/contracts/token/ERC20/utils/SafeERC20.sol\":5749:5750  0 */\n      0x00\n        /* \"@openzeppelin/contracts/token/ERC20/utils/SafeERC20.sol\":5728:5738  returndata */\n      dup2\n        /* \"@openzeppelin/contracts/token/ERC20/utils/SafeERC20.sol\":5728:5745  returndata.length */\n      mload\n        /* \"@openzeppelin/contracts/token/ERC20/utils/SafeERC20.sol\":5728:5750  returndata.length == 0 */\n      eq\n        /* \"@openzeppelin/contracts/token/ERC20/utils/SafeERC20.sol\":5728:5784  returndata.length == 0 || abi.decode(returndata, (bool)) */\n      dup1\n      tag_168\n      jumpi\n      pop\n        /* \"@openzeppelin/contracts/token/ERC20/utils/SafeERC20.sol\":5765:5775  returndata */\n      dup1\n        /* \"@openzeppelin/contracts/token/ERC20/utils/SafeERC20.sol\":5754:5784  abi.decode(returndata, (bool)) */\n      dup1\n      0x20\n      add\n      swap1\n      mload\n      dup2\n      add\n      swap1\n      tag_169\n      swap2\n      swap1\n      tag_170\n      jump\t// in\n    tag_169:\n        /* \"@openzeppelin/contracts/token/ERC20/utils/SafeERC20.sol\":5728:5784  returndata.length == 0 || abi.decode(returndata, (bool)) */\n    tag_168:\n        /* \"@openzeppelin/contracts/token/ERC20/utils/SafeERC20.sol\":5720:5831  require(returndata.length == 0 || abi.decode(returndata, (bool)), \"SafeERC20: ERC20 operation did not succeed\") */\n      tag_171\n      jumpi\n      mload(0x40)\n      0x08c379a000000000000000000000000000000000000000000000000000000000\n      dup2\n      mstore\n      0x04\n      add\n      tag_172\n      swap1\n      tag_173\n      jump\t// in\n    tag_172:\n      mload(0x40)\n      dup1\n      swap2\n      sub\n      swap1\n      revert\n    tag_171:\n        /* \"@openzeppelin/contracts/token/ERC20/utils/SafeERC20.sol\":5266:5838  {... */\n      pop\n        /* \"@openzeppelin/contracts/token/ERC20/utils/SafeERC20.sol\":5196:5838  function _callOptionalReturn(IERC20 token, bytes memory data) private {... */\n      pop\n      pop\n      jump\t// out\n        /* \"@openzeppelin/contracts/utils/Address.sol\":4108:4331  function functionCall(... */\n    tag_167:\n        /* \"@openzeppelin/contracts/utils/Address.sol\":4241:4253  bytes memory */\n      0x60\n        /* \"@openzeppelin/contracts/utils/Address.sol\":4272:4324  functionCallWithValue(target, data, 0, errorMessage) */\n      tag_175\n        /* \"@openzeppelin/contracts/utils/Address.sol\":4294:4300  target */\n      dup5\n        /* \"@openzeppelin/contracts/utils/Address.sol\":4302:4306  data */\n      dup5\n        /* \"@openzeppelin/contracts/utils/Address.sol\":4308:4309  0 */\n      0x00\n        /* \"@openzeppelin/contracts/utils/Address.sol\":4311:4323  errorMessage */\n      dup6\n        /* \"@openzeppelin/contracts/utils/Address.sol\":4272:4293  functionCallWithValue */\n      tag_176\n        /* \"@openzeppelin/contracts/utils/Address.sol\":4272:4324  functionCallWithValue(target, data, 0, errorMessage) */\n      jump\t// in\n    tag_175:\n        /* \"@openzeppelin/contracts/utils/Address.sol\":4265:4324  return functionCallWithValue(target, data, 0, errorMessage) */\n      swap1\n      pop\n        /* \"@openzeppelin/contracts/utils/Address.sol\":4108:4331  function functionCall(... */\n      swap4\n      swap3\n      pop\n      pop\n      pop\n      jump\t// out\n        /* \"@openzeppelin/contracts/utils/Address.sol\":5165:5611  function functionCallWithValue(... */\n    tag_176:\n        /* \"@openzeppelin/contracts/utils/Address.sol\":5330:5342  bytes memory */\n      0x60\n        /* \"@openzeppelin/contracts/utils/Address.sol\":5387:5392  value */\n      dup3\n        /* \"@openzeppelin/contracts/utils/Address.sol\":5362:5383  address(this).balance */\n      selfbalance\n        /* \"@openzeppelin/contracts/utils/Address.sol\":5362:5392  address(this).balance >= value */\n      lt\n      iszero\n        /* \"@openzeppelin/contracts/utils/Address.sol\":5354:5435  require(address(this).balance >= value, \"Address: insufficient balance for call\") */\n      tag_178\n      jumpi\n      mload(0x40)\n      0x08c379a000000000000000000000000000000000000000000000000000000000\n      dup2\n      mstore\n      0x04\n      add\n      tag_179\n      swap1\n      tag_180\n      jump\t// in\n    tag_179:\n      mload(0x40)\n      dup1\n      swap2\n      sub\n      swap1\n      revert\n    tag_178:\n        /* \"@openzeppelin/contracts/utils/Address.sol\":5446:5458  bool success */\n      0x00\n        /* \"@openzeppelin/contracts/utils/Address.sol\":5460:5483  bytes memory returndata */\n      dup1\n        /* \"@openzeppelin/contracts/utils/Address.sol\":5487:5493  target */\n      dup7\n        /* \"@openzeppelin/contracts/utils/Address.sol\":5487:5498  target.call */\n      0xffffffffffffffffffffffffffffffffffffffff\n      and\n        /* \"@openzeppelin/contracts/utils/Address.sol\":5506:5511  value */\n      dup6\n        /* \"@openzeppelin/contracts/utils/Address.sol\":5513:5517  data */\n      dup8\n        /* \"@openzeppelin/contracts/utils/Address.sol\":5487:5518  target.call{value: value}(data) */\n      mload(0x40)\n      tag_181\n      swap2\n      swap1\n      tag_182\n      jump\t// in\n    tag_181:\n      0x00\n      mload(0x40)\n      dup1\n      dup4\n      sub\n      dup2\n      dup6\n      dup8\n      gas\n      call\n      swap3\n      pop\n      pop\n      pop\n      returndatasize\n      dup1\n      0x00\n      dup2\n      eq\n      tag_185\n      jumpi\n      mload(0x40)\n      swap2\n      pop\n      and(add(returndatasize, 0x3f), not(0x1f))\n      dup3\n      add\n      0x40\n      mstore\n      returndatasize\n      dup3\n      mstore\n      returndatasize\n      0x00\n      0x20\n      dup5\n      add\n      returndatacopy\n      jump(tag_184)\n    tag_185:\n      0x60\n      swap2\n      pop\n    tag_184:\n      pop\n        /* \"@openzeppelin/contracts/utils/Address.sol\":5445:5518  (bool success, bytes memory returndata) = target.call{value: value}(data) */\n      swap2\n      pop\n      swap2\n      pop\n        /* \"@openzeppelin/contracts/utils/Address.sol\":5535:5604  verifyCallResultFromTarget(target, success, returndata, errorMessage) */\n      tag_186\n        /* \"@openzeppelin/contracts/utils/Address.sol\":5562:5568  target */\n      dup8\n        /* \"@openzeppelin/contracts/utils/Address.sol\":5570:5577  success */\n      dup4\n        /* \"@openzeppelin/contracts/utils/Address.sol\":5579:5589  returndata */\n      dup4\n        /* \"@openzeppelin/contracts/utils/Address.sol\":5591:5603  errorMessage */\n      dup8\n        /* \"@openzeppelin/contracts/utils/Address.sol\":5535:5561  verifyCallResultFromTarget */\n      tag_187\n        /* \"@openzeppelin/contracts/utils/Address.sol\":5535:5604  verifyCallResultFromTarget(target, success, returndata, errorMessage) */\n      jump\t// in\n    tag_186:\n        /* \"@openzeppelin/contracts/utils/Address.sol\":5528:5604  return verifyCallResultFromTarget(target, success, returndata, errorMessage) */\n      swap3\n      pop\n      pop\n      pop\n        /* \"@openzeppelin/contracts/utils/Address.sol\":5165:5611  function functionCallWithValue(... */\n      swap5\n      swap4\n      pop\n      pop\n      pop\n      pop\n      jump\t// out\n        /* \"@openzeppelin/contracts/utils/Address.sol\":7671:8299  function verifyCallResultFromTarget(... */\n    tag_187:\n        /* \"@openzeppelin/contracts/utils/Address.sol\":7851:7863  bytes memory */\n      0x60\n        /* \"@openzeppelin/contracts/utils/Address.sol\":7879:7886  success */\n      dup4\n        /* \"@openzeppelin/contracts/utils/Address.sol\":7875:8293  if (success) {... */\n      iszero\n      tag_189\n      jumpi\n        /* \"@openzeppelin/contracts/utils/Address.sol\":7927:7928  0 */\n      0x00\n        /* \"@openzeppelin/contracts/utils/Address.sol\":7906:7916  returndata */\n      dup4\n        /* \"@openzeppelin/contracts/utils/Address.sol\":7906:7923  returndata.length */\n      mload\n        /* \"@openzeppelin/contracts/utils/Address.sol\":7906:7928  returndata.length == 0 */\n      sub\n        /* \"@openzeppelin/contracts/utils/Address.sol\":7902:8188  if (returndata.length == 0) {... */\n      tag_190\n      jumpi\n        /* \"@openzeppelin/contracts/utils/Address.sol\":8121:8139  isContract(target) */\n      tag_191\n        /* \"@openzeppelin/contracts/utils/Address.sol\":8132:8138  target */\n      dup6\n        /* \"@openzeppelin/contracts/utils/Address.sol\":8121:8131  isContract */\n      tag_192\n        /* \"@openzeppelin/contracts/utils/Address.sol\":8121:8139  isContract(target) */\n      jump\t// in\n    tag_191:\n        /* \"@openzeppelin/contracts/utils/Address.sol\":8113:8173  require(isContract(target), \"Address: call to non-contract\") */\n      tag_193\n      jumpi\n      mload(0x40)\n      0x08c379a000000000000000000000000000000000000000000000000000000000\n      dup2\n      mstore\n      0x04\n      add\n      tag_194\n      swap1\n      tag_195\n      jump\t// in\n    tag_194:\n      mload(0x40)\n      dup1\n      swap2\n      sub\n      swap1\n      revert\n    tag_193:\n        /* \"@openzeppelin/contracts/utils/Address.sol\":7902:8188  if (returndata.length == 0) {... */\n    tag_190:\n        /* \"@openzeppelin/contracts/utils/Address.sol\":8208:8218  returndata */\n      dup3\n        /* \"@openzeppelin/contracts/utils/Address.sol\":8201:8218  return returndata */\n      swap1\n      pop\n      jump(tag_188)\n        /* \"@openzeppelin/contracts/utils/Address.sol\":7875:8293  if (success) {... */\n    tag_189:\n        /* \"@openzeppelin/contracts/utils/Address.sol\":8249:8282  _revert(returndata, errorMessage) */\n      tag_197\n        /* \"@openzeppelin/contracts/utils/Address.sol\":8257:8267  returndata */\n      dup4\n        /* \"@openzeppelin/contracts/utils/Address.sol\":8269:8281  errorMessage */\n      dup4\n        /* \"@openzeppelin/contracts/utils/Address.sol\":8249:8256  _revert */\n      tag_198\n        /* \"@openzeppelin/contracts/utils/Address.sol\":8249:8282  _revert(returndata, errorMessage) */\n      jump\t// in\n    tag_197:\n        /* \"@openzeppelin/contracts/utils/Address.sol\":7671:8299  function verifyCallResultFromTarget(... */\n    tag_188:\n      swap5\n      swap4\n      pop\n      pop\n      pop\n      pop\n      jump\t// out\n        /* \"@openzeppelin/contracts/utils/Address.sol\":1412:1732  function isContract(address account) internal view returns (bool) {... */\n    tag_192:\n        /* \"@openzeppelin/contracts/utils/Address.sol\":1472:1476  bool */\n      0x00\n        /* \"@openzeppelin/contracts/utils/Address.sol\":1724:1725  0 */\n      dup1\n        /* \"@openzeppelin/contracts/utils/Address.sol\":1702:1709  account */\n      dup3\n        /* \"@openzeppelin/contracts/utils/Address.sol\":1702:1721  account.code.length */\n      0xffffffffffffffffffffffffffffffffffffffff\n      and\n      extcodesize\n        /* \"@openzeppelin/contracts/utils/Address.sol\":1702:1725  account.code.length > 0 */\n      gt\n        /* \"@openzeppelin/contracts/utils/Address.sol\":1695:1725  return account.code.length > 0 */\n      swap1\n      pop\n        /* \"@openzeppelin/contracts/utils/Address.sol\":1412:1732  function isContract(address account) internal view returns (bool) {... */\n      swap2\n      swap1\n      pop\n      jump\t// out\n        /* \"@openzeppelin/contracts/utils/Address.sol\":8821:9361  function _revert(bytes memory returndata, string memory errorMessage) private pure {... */\n    tag_198:\n        /* \"@openzeppelin/contracts/utils/Address.sol\":9000:9001  0 */\n      0x00\n        /* \"@openzeppelin/contracts/utils/Address.sol\":8980:8990  returndata */\n      dup3\n        /* \"@openzeppelin/contracts/utils/Address.sol\":8980:8997  returndata.length */\n      mload\n        /* \"@openzeppelin/contracts/utils/Address.sol\":8980:9001  returndata.length > 0 */\n      gt\n        /* \"@openzeppelin/contracts/utils/Address.sol\":8976:9355  if (returndata.length > 0) {... */\n      iszero\n      tag_201\n      jumpi\n        /* \"@openzeppelin/contracts/utils/Address.sol\":9208:9218  returndata */\n      dup2\n        /* \"@openzeppelin/contracts/utils/Address.sol\":9202:9219  mload(returndata) */\n      mload\n        /* \"@openzeppelin/contracts/utils/Address.sol\":9264:9279  returndata_size */\n      dup1\n        /* \"@openzeppelin/contracts/utils/Address.sol\":9251:9261  returndata */\n      dup4\n        /* \"@openzeppelin/contracts/utils/Address.sol\":9247:9249  32 */\n      0x20\n        /* \"@openzeppelin/contracts/utils/Address.sol\":9243:9262  add(32, returndata) */\n      add\n        /* \"@openzeppelin/contracts/utils/Address.sol\":9236:9280  revert(add(32, returndata), returndata_size) */\n      revert\n        /* \"@openzeppelin/contracts/utils/Address.sol\":8976:9355  if (returndata.length > 0) {... */\n    tag_201:\n        /* \"@openzeppelin/contracts/utils/Address.sol\":9331:9343  errorMessage */\n      dup1\n        /* \"@openzeppelin/contracts/utils/Address.sol\":9324:9344  revert(errorMessage) */\n      mload(0x40)\n      0x08c379a000000000000000000000000000000000000000000000000000000000\n      dup2\n      mstore\n      0x04\n      add\n      tag_203\n      swap2\n      swap1\n      tag_204\n      jump\t// in\n    tag_203:\n      mload(0x40)\n      dup1\n      swap2\n      sub\n      swap1\n      revert\n        /* \"#utility.yul\":88:205   */\n    tag_206:\n        /* \"#utility.yul\":197:198   */\n      0x00\n        /* \"#utility.yul\":194:195   */\n      dup1\n        /* \"#utility.yul\":187:199   */\n      revert\n        /* \"#utility.yul\":334:411   */\n    tag_208:\n        /* \"#utility.yul\":371:378   */\n      0x00\n        /* \"#utility.yul\":400:405   */\n      dup2\n        /* \"#utility.yul\":389:405   */\n      swap1\n      pop\n        /* \"#utility.yul\":334:411   */\n      swap2\n      swap1\n      pop\n      jump\t// out\n        /* \"#utility.yul\":417:539   */\n    tag_209:\n        /* \"#utility.yul\":490:514   */\n      tag_249\n        /* \"#utility.yul\":508:513   */\n      dup2\n        /* \"#utility.yul\":490:514   */\n      tag_208\n      jump\t// in\n    tag_249:\n        /* \"#utility.yul\":483:488   */\n      dup2\n        /* \"#utility.yul\":480:515   */\n      eq\n        /* \"#utility.yul\":470:533   */\n      tag_250\n      jumpi\n        /* \"#utility.yul\":529:530   */\n      0x00\n        /* \"#utility.yul\":526:527   */\n      dup1\n        /* \"#utility.yul\":519:531   */\n      revert\n        /* \"#utility.yul\":470:533   */\n    tag_250:\n        /* \"#utility.yul\":417:539   */\n      pop\n      jump\t// out\n        /* \"#utility.yul\":545:684   */\n    tag_210:\n        /* \"#utility.yul\":591:596   */\n      0x00\n        /* \"#utility.yul\":629:635   */\n      dup2\n        /* \"#utility.yul\":616:636   */\n      calldataload\n        /* \"#utility.yul\":607:636   */\n      swap1\n      pop\n        /* \"#utility.yul\":645:678   */\n      tag_252\n        /* \"#utility.yul\":672:677   */\n      dup2\n        /* \"#utility.yul\":645:678   */\n      tag_209\n      jump\t// in\n    tag_252:\n        /* \"#utility.yul\":545:684   */\n      swap3\n      swap2\n      pop\n      pop\n      jump\t// out\n        /* \"#utility.yul\":690:816   */\n    tag_211:\n        /* \"#utility.yul\":727:734   */\n      0x00\n        /* \"#utility.yul\":767:809   */\n      0xffffffffffffffffffffffffffffffffffffffff\n        /* \"#utility.yul\":760:765   */\n      dup3\n        /* \"#utility.yul\":756:810   */\n      and\n        /* \"#utility.yul\":745:810   */\n      swap1\n      pop\n        /* \"#utility.yul\":690:816   */\n      swap2\n      swap1\n      pop\n      jump\t// out\n        /* \"#utility.yul\":822:918   */\n    tag_212:\n        /* \"#utility.yul\":859:866   */\n      0x00\n        /* \"#utility.yul\":888:912   */\n      tag_255\n        /* \"#utility.yul\":906:911   */\n      dup3\n        /* \"#utility.yul\":888:912   */\n      tag_211\n      jump\t// in\n    tag_255:\n        /* \"#utility.yul\":877:912   */\n      swap1\n      pop\n        /* \"#utility.yul\":822:918   */\n      swap2\n      swap1\n      pop\n      jump\t// out\n        /* \"#utility.yul\":924:1046   */\n    tag_213:\n        /* \"#utility.yul\":997:1021   */\n      tag_257\n        /* \"#utility.yul\":1015:1020   */\n      dup2\n        /* \"#utility.yul\":997:1021   */\n      tag_212\n      jump\t// in\n    tag_257:\n        /* \"#utility.yul\":990:995   */\n      dup2\n        /* \"#utility.yul\":987:1022   */\n      eq\n        /* \"#utility.yul\":977:1040   */\n      tag_258\n      jumpi\n        /* \"#utility.yul\":1036:1037   */\n      0x00\n        /* \"#utility.yul\":1033:1034   */\n      dup1\n        /* \"#utility.yul\":1026:1038   */\n      revert\n        /* \"#utility.yul\":977:1040   */\n    tag_258:\n        /* \"#utility.yul\":924:1046   */\n      pop\n      jump\t// out\n        /* \"#utility.yul\":1052:1191   */\n    tag_214:\n        /* \"#utility.yul\":1098:1103   */\n      0x00\n        /* \"#utility.yul\":1136:1142   */\n      dup2\n        /* \"#utility.yul\":1123:1143   */\n      calldataload\n        /* \"#utility.yul\":1114:1143   */\n      swap1\n      pop\n        /* \"#utility.yul\":1152:1185   */\n      tag_260\n        /* \"#utility.yul\":1179:1184   */\n      dup2\n        /* \"#utility.yul\":1152:1185   */\n      tag_213\n      jump\t// in\n    tag_260:\n        /* \"#utility.yul\":1052:1191   */\n      swap3\n      swap2\n      pop\n      pop\n      jump\t// out\n        /* \"#utility.yul\":1197:1283   */\n    tag_215:\n        /* \"#utility.yul\":1232:1239   */\n      0x00\n        /* \"#utility.yul\":1272:1276   */\n      0xff\n        /* \"#utility.yul\":1265:1270   */\n      dup3\n        /* \"#utility.yul\":1261:1277   */\n      and\n        /* \"#utility.yul\":1250:1277   */\n      swap1\n      pop\n        /* \"#utility.yul\":1197:1283   */\n      swap2\n      swap1\n      pop\n      jump\t// out\n        /* \"#utility.yul\":1289:1407   */\n    tag_216:\n        /* \"#utility.yul\":1360:1382   */\n      tag_263\n        /* \"#utility.yul\":1376:1381   */\n      dup2\n        /* \"#utility.yul\":1360:1382   */\n      tag_215\n      jump\t// in\n    tag_263:\n        /* \"#utility.yul\":1353:1358   */\n      dup2\n        /* \"#utility.yul\":1350:1383   */\n      eq\n        /* \"#utility.yul\":1340:1401   */\n      tag_264\n      jumpi\n        /* \"#utility.yul\":1397:1398   */\n      0x00\n        /* \"#utility.yul\":1394:1395   */\n      dup1\n        /* \"#utility.yul\":1387:1399   */\n      revert\n        /* \"#utility.yul\":1340:1401   */\n    tag_264:\n        /* \"#utility.yul\":1289:1407   */\n      pop\n      jump\t// out\n        /* \"#utility.yul\":1413:1548   */\n    tag_217:\n        /* \"#utility.yul\":1457:1462   */\n      0x00\n        /* \"#utility.yul\":1495:1501   */\n      dup2\n        /* \"#utility.yul\":1482:1502   */\n      calldataload\n        /* \"#utility.yul\":1473:1502   */\n      swap1\n      pop\n        /* \"#utility.yul\":1511:1542   */\n      tag_266\n        /* \"#utility.yul\":1536:1541   */\n      dup2\n        /* \"#utility.yul\":1511:1542   */\n      tag_216\n      jump\t// in\n    tag_266:\n        /* \"#utility.yul\":1413:1548   */\n      swap3\n      swap2\n      pop\n      pop\n      jump\t// out\n        /* \"#utility.yul\":1554:2315   */\n    tag_18:\n        /* \"#utility.yul\":1638:1644   */\n      0x00\n        /* \"#utility.yul\":1646:1652   */\n      dup1\n        /* \"#utility.yul\":1654:1660   */\n      0x00\n        /* \"#utility.yul\":1662:1668   */\n      dup1\n        /* \"#utility.yul\":1711:1714   */\n      0x80\n        /* \"#utility.yul\":1699:1708   */\n      dup6\n        /* \"#utility.yul\":1690:1697   */\n      dup8\n        /* \"#utility.yul\":1686:1709   */\n      sub\n        /* \"#utility.yul\":1682:1715   */\n      slt\n        /* \"#utility.yul\":1679:1799   */\n      iszero\n      tag_268\n      jumpi\n        /* \"#utility.yul\":1718:1797   */\n      tag_269\n      tag_206\n      jump\t// in\n    tag_269:\n        /* \"#utility.yul\":1679:1799   */\n    tag_268:\n        /* \"#utility.yul\":1838:1839   */\n      0x00\n        /* \"#utility.yul\":1863:1916   */\n      tag_270\n        /* \"#utility.yul\":1908:1915   */\n      dup8\n        /* \"#utility.yul\":1899:1905   */\n      dup3\n        /* \"#utility.yul\":1888:1897   */\n      dup9\n        /* \"#utility.yul\":1884:1906   */\n      add\n        /* \"#utility.yul\":1863:1916   */\n      tag_210\n      jump\t// in\n    tag_270:\n        /* \"#utility.yul\":1853:1916   */\n      swap5\n      pop\n        /* \"#utility.yul\":1809:1926   */\n      pop\n        /* \"#utility.yul\":1965:1967   */\n      0x20\n        /* \"#utility.yul\":1991:2044   */\n      tag_271\n        /* \"#utility.yul\":2036:2043   */\n      dup8\n        /* \"#utility.yul\":2027:2033   */\n      dup3\n        /* \"#utility.yul\":2016:2025   */\n      dup9\n        /* \"#utility.yul\":2012:2034   */\n      add\n        /* \"#utility.yul\":1991:2044   */\n      tag_214\n      jump\t// in\n    tag_271:\n        /* \"#utility.yul\":1981:2044   */\n      swap4\n      pop\n        /* \"#utility.yul\":1936:2054   */\n      pop\n        /* \"#utility.yul\":2093:2095   */\n      0x40\n        /* \"#utility.yul\":2119:2172   */\n      tag_272\n        /* \"#utility.yul\":2164:2171   */\n      dup8\n        /* \"#utility.yul\":2155:2161   */\n      dup3\n        /* \"#utility.yul\":2144:2153   */\n      dup9\n        /* \"#utility.yul\":2140:2162   */\n      add\n        /* \"#utility.yul\":2119:2172   */\n      tag_210\n      jump\t// in\n    tag_272:\n        /* \"#utility.yul\":2109:2172   */\n      swap3\n      pop\n        /* \"#utility.yul\":2064:2182   */\n      pop\n        /* \"#utility.yul\":2221:2223   */\n      0x60\n        /* \"#utility.yul\":2247:2298   */\n      tag_273\n        /* \"#utility.yul\":2290:2297   */\n      dup8\n        /* \"#utility.yul\":2281:2287   */\n      dup3\n        /* \"#utility.yul\":2270:2279   */\n      dup9\n        /* \"#utility.yul\":2266:2288   */\n      add\n        /* \"#utility.yul\":2247:2298   */\n      tag_217\n      jump\t// in\n    tag_273:\n        /* \"#utility.yul\":2237:2298   */\n      swap2\n      pop\n        /* \"#utility.yul\":2192:2308   */\n      pop\n        /* \"#utility.yul\":1554:2315   */\n      swap3\n      swap6\n      swap2\n      swap5\n      pop\n      swap3\n      pop\n      jump\t// out\n        /* \"#utility.yul\":2321:2650   */\n    tag_24:\n        /* \"#utility.yul\":2380:2386   */\n      0x00\n        /* \"#utility.yul\":2429:2431   */\n      0x20\n        /* \"#utility.yul\":2417:2426   */\n      dup3\n        /* \"#utility.yul\":2408:2415   */\n      dup5\n        /* \"#utility.yul\":2404:2427   */\n      sub\n        /* \"#utility.yul\":2400:2432   */\n      slt\n        /* \"#utility.yul\":2397:2516   */\n      iszero\n      tag_275\n      jumpi\n        /* \"#utility.yul\":2435:2514   */\n      tag_276\n      tag_206\n      jump\t// in\n    tag_276:\n        /* \"#utility.yul\":2397:2516   */\n    tag_275:\n        /* \"#utility.yul\":2555:2556   */\n      0x00\n        /* \"#utility.yul\":2580:2633   */\n      tag_277\n        /* \"#utility.yul\":2625:2632   */\n      dup5\n        /* \"#utility.yul\":2616:2622   */\n      dup3\n        /* \"#utility.yul\":2605:2614   */\n      dup6\n        /* \"#utility.yul\":2601:2623   */\n      add\n        /* \"#utility.yul\":2580:2633   */\n      tag_210\n      jump\t// in\n    tag_277:\n        /* \"#utility.yul\":2570:2633   */\n      swap2\n      pop\n        /* \"#utility.yul\":2526:2643   */\n      pop\n        /* \"#utility.yul\":2321:2650   */\n      swap3\n      swap2\n      pop\n      pop\n      jump\t// out\n        /* \"#utility.yul\":2656:2774   */\n    tag_218:\n        /* \"#utility.yul\":2743:2767   */\n      tag_279\n        /* \"#utility.yul\":2761:2766   */\n      dup2\n        /* \"#utility.yul\":2743:2767   */\n      tag_212\n      jump\t// in\n    tag_279:\n        /* \"#utility.yul\":2738:2741   */\n      dup3\n        /* \"#utility.yul\":2731:2768   */\n      mstore\n        /* \"#utility.yul\":2656:2774   */\n      pop\n      pop\n      jump\t// out\n        /* \"#utility.yul\":2780:3002   */\n    tag_27:\n        /* \"#utility.yul\":2873:2877   */\n      0x00\n        /* \"#utility.yul\":2911:2913   */\n      0x20\n        /* \"#utility.yul\":2900:2909   */\n      dup3\n        /* \"#utility.yul\":2896:2914   */\n      add\n        /* \"#utility.yul\":2888:2914   */\n      swap1\n      pop\n        /* \"#utility.yul\":2924:2995   */\n      tag_281\n        /* \"#utility.yul\":2992:2993   */\n      0x00\n        /* \"#utility.yul\":2981:2990   */\n      dup4\n        /* \"#utility.yul\":2977:2994   */\n      add\n        /* \"#utility.yul\":2968:2974   */\n      dup5\n        /* \"#utility.yul\":2924:2995   */\n      tag_218\n      jump\t// in\n    tag_281:\n        /* \"#utility.yul\":2780:3002   */\n      swap3\n      swap2\n      pop\n      pop\n      jump\t// out\n        /* \"#utility.yul\":3008:3126   */\n    tag_219:\n        /* \"#utility.yul\":3095:3119   */\n      tag_283\n        /* \"#utility.yul\":3113:3118   */\n      dup2\n        /* \"#utility.yul\":3095:3119   */\n      tag_208\n      jump\t// in\n    tag_283:\n        /* \"#utility.yul\":3090:3093   */\n      dup3\n        /* \"#utility.yul\":3083:3120   */\n      mstore\n        /* \"#utility.yul\":3008:3126   */\n      pop\n      pop\n      jump\t// out\n        /* \"#utility.yul\":3132:3354   */\n    tag_33:\n        /* \"#utility.yul\":3225:3229   */\n      0x00\n        /* \"#utility.yul\":3263:3265   */\n      0x20\n        /* \"#utility.yul\":3252:3261   */\n      dup3\n        /* \"#utility.yul\":3248:3266   */\n      add\n        /* \"#utility.yul\":3240:3266   */\n      swap1\n      pop\n        /* \"#utility.yul\":3276:3347   */\n      tag_285\n        /* \"#utility.yul\":3344:3345   */\n      0x00\n        /* \"#utility.yul\":3333:3342   */\n      dup4\n        /* \"#utility.yul\":3329:3346   */\n      add\n        /* \"#utility.yul\":3320:3326   */\n      dup5\n        /* \"#utility.yul\":3276:3347   */\n      tag_219\n      jump\t// in\n    tag_285:\n        /* \"#utility.yul\":3132:3354   */\n      swap3\n      swap2\n      pop\n      pop\n      jump\t// out\n        /* \"#utility.yul\":3360:3975   */\n    tag_45:\n        /* \"#utility.yul\":3435:3441   */\n      0x00\n        /* \"#utility.yul\":3443:3449   */\n      dup1\n        /* \"#utility.yul\":3451:3457   */\n      0x00\n        /* \"#utility.yul\":3500:3502   */\n      0x60\n        /* \"#utility.yul\":3488:3497   */\n      dup5\n        /* \"#utility.yul\":3479:3486   */\n      dup7\n        /* \"#utility.yul\":3475:3498   */\n      sub\n        /* \"#utility.yul\":3471:3503   */\n      slt\n        /* \"#utility.yul\":3468:3587   */\n      iszero\n      tag_287\n      jumpi\n        /* \"#utility.yul\":3506:3585   */\n      tag_288\n      tag_206\n      jump\t// in\n    tag_288:\n        /* \"#utility.yul\":3468:3587   */\n    tag_287:\n        /* \"#utility.yul\":3626:3627   */\n      0x00\n        /* \"#utility.yul\":3651:3704   */\n      tag_289\n        /* \"#utility.yul\":3696:3703   */\n      dup7\n        /* \"#utility.yul\":3687:3693   */\n      dup3\n        /* \"#utility.yul\":3676:3685   */\n      dup8\n        /* \"#utility.yul\":3672:3694   */\n      add\n        /* \"#utility.yul\":3651:3704   */\n      tag_214\n      jump\t// in\n    tag_289:\n        /* \"#utility.yul\":3641:3704   */\n      swap4\n      pop\n        /* \"#utility.yul\":3597:3714   */\n      pop\n        /* \"#utility.yul\":3753:3755   */\n      0x20\n        /* \"#utility.yul\":3779:3832   */\n      tag_290\n        /* \"#utility.yul\":3824:3831   */\n      dup7\n        /* \"#utility.yul\":3815:3821   */\n      dup3\n        /* \"#utility.yul\":3804:3813   */\n      dup8\n        /* \"#utility.yul\":3800:3822   */\n      add\n        /* \"#utility.yul\":3779:3832   */\n      tag_210\n      jump\t// in\n    tag_290:\n        /* \"#utility.yul\":3769:3832   */\n      swap3\n      pop\n        /* \"#utility.yul\":3724:3842   */\n      pop\n        /* \"#utility.yul\":3881:3883   */\n      0x40\n        /* \"#utility.yul\":3907:3958   */\n      tag_291\n        /* \"#utility.yul\":3950:3957   */\n      dup7\n        /* \"#utility.yul\":3941:3947   */\n      dup3\n        /* \"#utility.yul\":3930:3939   */\n      dup8\n        /* \"#utility.yul\":3926:3948   */\n      add\n        /* \"#utility.yul\":3907:3958   */\n      tag_217\n      jump\t// in\n    tag_291:\n        /* \"#utility.yul\":3897:3958   */\n      swap2\n      pop\n        /* \"#utility.yul\":3852:3968   */\n      pop\n        /* \"#utility.yul\":3360:3975   */\n      swap3\n      pop\n      swap3\n      pop\n      swap3\n      jump\t// out\n        /* \"#utility.yul\":3981:4310   */\n    tag_52:\n        /* \"#utility.yul\":4040:4046   */\n      0x00\n        /* \"#utility.yul\":4089:4091   */\n      0x20\n        /* \"#utility.yul\":4077:4086   */\n      dup3\n        /* \"#utility.yul\":4068:4075   */\n      dup5\n        /* \"#utility.yul\":4064:4087   */\n      sub\n        /* \"#utility.yul\":4060:4092   */\n      slt\n        /* \"#utility.yul\":4057:4176   */\n      iszero\n      tag_293\n      jumpi\n        /* \"#utility.yul\":4095:4174   */\n      tag_294\n      tag_206\n      jump\t// in\n    tag_294:\n        /* \"#utility.yul\":4057:4176   */\n    tag_293:\n        /* \"#utility.yul\":4215:4216   */\n      0x00\n        /* \"#utility.yul\":4240:4293   */\n      tag_295\n        /* \"#utility.yul\":4285:4292   */\n      dup5\n        /* \"#utility.yul\":4276:4282   */\n      dup3\n        /* \"#utility.yul\":4265:4274   */\n      dup6\n        /* \"#utility.yul\":4261:4283   */\n      add\n        /* \"#utility.yul\":4240:4293   */\n      tag_214\n      jump\t// in\n    tag_295:\n        /* \"#utility.yul\":4230:4293   */\n      swap2\n      pop\n        /* \"#utility.yul\":4186:4303   */\n      pop\n        /* \"#utility.yul\":3981:4310   */\n      swap3\n      swap2\n      pop\n      pop\n      jump\t// out\n        /* \"#utility.yul\":4316:4496   */\n    tag_220:\n        /* \"#utility.yul\":4364:4441   */\n      0x4e487b7100000000000000000000000000000000000000000000000000000000\n        /* \"#utility.yul\":4361:4362   */\n      0x00\n        /* \"#utility.yul\":4354:4442   */\n      mstore\n        /* \"#utility.yul\":4461:4465   */\n      0x11\n        /* \"#utility.yul\":4458:4459   */\n      0x04\n        /* \"#utility.yul\":4451:4466   */\n      mstore\n        /* \"#utility.yul\":4485:4489   */\n      0x24\n        /* \"#utility.yul\":4482:4483   */\n      0x00\n        /* \"#utility.yul\":4475:4490   */\n      revert\n        /* \"#utility.yul\":4502:4696   */\n    tag_64:\n        /* \"#utility.yul\":4542:4546   */\n      0x00\n        /* \"#utility.yul\":4562:4582   */\n      tag_298\n        /* \"#utility.yul\":4580:4581   */\n      dup3\n        /* \"#utility.yul\":4562:4582   */\n      tag_208\n      jump\t// in\n    tag_298:\n        /* \"#utility.yul\":4557:4582   */\n      swap2\n      pop\n        /* \"#utility.yul\":4596:4616   */\n      tag_299\n        /* \"#utility.yul\":4614:4615   */\n      dup4\n        /* \"#utility.yul\":4596:4616   */\n      tag_208\n      jump\t// in\n    tag_299:\n        /* \"#utility.yul\":4591:4616   */\n      swap3\n      pop\n        /* \"#utility.yul\":4640:4641   */\n      dup3\n        /* \"#utility.yul\":4637:4638   */\n      dup3\n        /* \"#utility.yul\":4633:4642   */\n      sub\n        /* \"#utility.yul\":4625:4642   */\n      swap1\n      pop\n        /* \"#utility.yul\":4664:4665   */\n      dup2\n        /* \"#utility.yul\":4658:4662   */\n      dup2\n        /* \"#utility.yul\":4655:4666   */\n      gt\n        /* \"#utility.yul\":4652:4689   */\n      iszero\n      tag_300\n      jumpi\n        /* \"#utility.yul\":4669:4687   */\n      tag_301\n      tag_220\n      jump\t// in\n    tag_301:\n        /* \"#utility.yul\":4652:4689   */\n    tag_300:\n        /* \"#utility.yul\":4502:4696   */\n      swap3\n      swap2\n      pop\n      pop\n      jump\t// out\n        /* \"#utility.yul\":4702:4882   */\n    tag_67:\n        /* \"#utility.yul\":4750:4827   */\n      0x4e487b7100000000000000000000000000000000000000000000000000000000\n        /* \"#utility.yul\":4747:4748   */\n      0x00\n        /* \"#utility.yul\":4740:4828   */\n      mstore\n        /* \"#utility.yul\":4847:4851   */\n      0x32\n        /* \"#utility.yul\":4844:4845   */\n      0x04\n        /* \"#utility.yul\":4837:4852   */\n      mstore\n        /* \"#utility.yul\":4871:4875   */\n      0x24\n        /* \"#utility.yul\":4868:4869   */\n      0x00\n        /* \"#utility.yul\":4861:4876   */\n      revert\n        /* \"#utility.yul\":4888:5068   */\n    tag_74:\n        /* \"#utility.yul\":4936:5013   */\n      0x4e487b7100000000000000000000000000000000000000000000000000000000\n        /* \"#utility.yul\":4933:4934   */\n      0x00\n        /* \"#utility.yul\":4926:5014   */\n      mstore\n        /* \"#utility.yul\":5033:5037   */\n      0x31\n        /* \"#utility.yul\":5030:5031   */\n      0x04\n        /* \"#utility.yul\":5023:5038   */\n      mstore\n        /* \"#utility.yul\":5057:5061   */\n      0x24\n        /* \"#utility.yul\":5054:5055   */\n      0x00\n        /* \"#utility.yul\":5047:5062   */\n      revert\n        /* \"#utility.yul\":5074:5217   */\n    tag_221:\n        /* \"#utility.yul\":5131:5136   */\n      0x00\n        /* \"#utility.yul\":5162:5168   */\n      dup2\n        /* \"#utility.yul\":5156:5169   */\n      mload\n        /* \"#utility.yul\":5147:5169   */\n      swap1\n      pop\n        /* \"#utility.yul\":5178:5211   */\n      tag_305\n        /* \"#utility.yul\":5205:5210   */\n      dup2\n        /* \"#utility.yul\":5178:5211   */\n      tag_209\n      jump\t// in\n    tag_305:\n        /* \"#utility.yul\":5074:5217   */\n      swap3\n      swap2\n      pop\n      pop\n      jump\t// out\n        /* \"#utility.yul\":5223:5574   */\n    tag_96:\n        /* \"#utility.yul\":5293:5299   */\n      0x00\n        /* \"#utility.yul\":5342:5344   */\n      0x20\n        /* \"#utility.yul\":5330:5339   */\n      dup3\n        /* \"#utility.yul\":5321:5328   */\n      dup5\n        /* \"#utility.yul\":5317:5340   */\n      sub\n        /* \"#utility.yul\":5313:5345   */\n      slt\n        /* \"#utility.yul\":5310:5429   */\n      iszero\n      tag_307\n      jumpi\n        /* \"#utility.yul\":5348:5427   */\n      tag_308\n      tag_206\n      jump\t// in\n    tag_308:\n        /* \"#utility.yul\":5310:5429   */\n    tag_307:\n        /* \"#utility.yul\":5468:5469   */\n      0x00\n        /* \"#utility.yul\":5493:5557   */\n      tag_309\n        /* \"#utility.yul\":5549:5556   */\n      dup5\n        /* \"#utility.yul\":5540:5546   */\n      dup3\n        /* \"#utility.yul\":5529:5538   */\n      dup6\n        /* \"#utility.yul\":5525:5547   */\n      add\n        /* \"#utility.yul\":5493:5557   */\n      tag_221\n      jump\t// in\n    tag_309:\n        /* \"#utility.yul\":5483:5557   */\n      swap2\n      pop\n        /* \"#utility.yul\":5439:5567   */\n      pop\n        /* \"#utility.yul\":5223:5574   */\n      swap3\n      swap2\n      pop\n      pop\n      jump\t// out\n        /* \"#utility.yul\":5580:5813   */\n    tag_109:\n        /* \"#utility.yul\":5619:5622   */\n      0x00\n        /* \"#utility.yul\":5642:5666   */\n      tag_311\n        /* \"#utility.yul\":5660:5665   */\n      dup3\n        /* \"#utility.yul\":5642:5666   */\n      tag_208\n      jump\t// in\n    tag_311:\n        /* \"#utility.yul\":5633:5666   */\n      swap2\n      pop\n        /* \"#utility.yul\":5688:5754   */\n      0xffffffffffffffffffffffffffffffffffffffffffffffffffffffffffffffff\n        /* \"#utility.yul\":5681:5686   */\n      dup3\n        /* \"#utility.yul\":5678:5755   */\n      sub\n        /* \"#utility.yul\":5675:5778   */\n      tag_312\n      jumpi\n        /* \"#utility.yul\":5758:5776   */\n      tag_313\n      tag_220\n      jump\t// in\n    tag_313:\n        /* \"#utility.yul\":5675:5778   */\n    tag_312:\n        /* \"#utility.yul\":5805:5806   */\n      0x01\n        /* \"#utility.yul\":5798:5803   */\n      dup3\n        /* \"#utility.yul\":5794:5807   */\n      add\n        /* \"#utility.yul\":5787:5807   */\n      swap1\n      pop\n        /* \"#utility.yul\":5580:5813   */\n      swap2\n      swap1\n      pop\n      jump\t// out\n        /* \"#utility.yul\":5819:5988   */\n    tag_222:\n        /* \"#utility.yul\":5903:5914   */\n      0x00\n        /* \"#utility.yul\":5937:5943   */\n      dup3\n        /* \"#utility.yul\":5932:5935   */\n      dup3\n        /* \"#utility.yul\":5925:5944   */\n      mstore\n        /* \"#utility.yul\":5977:5981   */\n      0x20\n        /* \"#utility.yul\":5972:5975   */\n      dup3\n        /* \"#utility.yul\":5968:5982   */\n      add\n        /* \"#utility.yul\":5953:5982   */\n      swap1\n      pop\n        /* \"#utility.yul\":5819:5988   */\n      swap3\n      swap2\n      pop\n      pop\n      jump\t// out\n        /* \"#utility.yul\":5994:6219   */\n    tag_223:\n        /* \"#utility.yul\":6134:6168   */\n      0x4f776e61626c653a206e6577206f776e657220697320746865207a65726f2061\n        /* \"#utility.yul\":6130:6131   */\n      0x00\n        /* \"#utility.yul\":6122:6128   */\n      dup3\n        /* \"#utility.yul\":6118:6132   */\n      add\n        /* \"#utility.yul\":6111:6169   */\n      mstore\n        /* \"#utility.yul\":6203:6211   */\n      0x6464726573730000000000000000000000000000000000000000000000000000\n        /* \"#utility.yul\":6198:6200   */\n      0x20\n        /* \"#utility.yul\":6190:6196   */\n      dup3\n        /* \"#utility.yul\":6186:6201   */\n      add\n        /* \"#utility.yul\":6179:6212   */\n      mstore\n        /* \"#utility.yul\":5994:6219   */\n      pop\n      jump\t// out\n        /* \"#utility.yul\":6225:6591   */\n    tag_224:\n        /* \"#utility.yul\":6367:6370   */\n      0x00\n        /* \"#utility.yul\":6388:6455   */\n      tag_317\n        /* \"#utility.yul\":6452:6454   */\n      0x26\n        /* \"#utility.yul\":6447:6450   */\n      dup4\n        /* \"#utility.yul\":6388:6455   */\n      tag_222\n      jump\t// in\n    tag_317:\n        /* \"#utility.yul\":6381:6455   */\n      swap2\n      pop\n        /* \"#utility.yul\":6464:6557   */\n      tag_318\n        /* \"#utility.yul\":6553:6556   */\n      dup3\n        /* \"#utility.yul\":6464:6557   */\n      tag_223\n      jump\t// in\n    tag_318:\n        /* \"#utility.yul\":6582:6584   */\n      0x40\n        /* \"#utility.yul\":6577:6580   */\n      dup3\n        /* \"#utility.yul\":6573:6585   */\n      add\n        /* \"#utility.yul\":6566:6585   */\n      swap1\n      pop\n        /* \"#utility.yul\":6225:6591   */\n      swap2\n      swap1\n      pop\n      jump\t// out\n        /* \"#utility.yul\":6597:7016   */\n    tag_149:\n        /* \"#utility.yul\":6763:6767   */\n      0x00\n        /* \"#utility.yul\":6801:6803   */\n      0x20\n        /* \"#utility.yul\":6790:6799   */\n      dup3\n        /* \"#utility.yul\":6786:6804   */\n      add\n        /* \"#utility.yul\":6778:6804   */\n      swap1\n      pop\n        /* \"#utility.yul\":6850:6859   */\n      dup2\n        /* \"#utility.yul\":6844:6848   */\n      dup2\n        /* \"#utility.yul\":6840:6860   */\n      sub\n        /* \"#utility.yul\":6836:6837   */\n      0x00\n        /* \"#utility.yul\":6825:6834   */\n      dup4\n        /* \"#utility.yul\":6821:6838   */\n      add\n        /* \"#utility.yul\":6814:6861   */\n      mstore\n        /* \"#utility.yul\":6878:7009   */\n      tag_320\n        /* \"#utility.yul\":7004:7008   */\n      dup2\n        /* \"#utility.yul\":6878:7009   */\n      tag_224\n      jump\t// in\n    tag_320:\n        /* \"#utility.yul\":6870:7009   */\n      swap1\n      pop\n        /* \"#utility.yul\":6597:7016   */\n      swap2\n      swap1\n      pop\n      jump\t// out\n        /* \"#utility.yul\":7022:7204   */\n    tag_225:\n        /* \"#utility.yul\":7162:7196   */\n      0x4f776e61626c653a2063616c6c6572206973206e6f7420746865206f776e6572\n        /* \"#utility.yul\":7158:7159   */\n      0x00\n        /* \"#utility.yul\":7150:7156   */\n      dup3\n        /* \"#utility.yul\":7146:7160   */\n      add\n        /* \"#utility.yul\":7139:7197   */\n      mstore\n        /* \"#utility.yul\":7022:7204   */\n      pop\n      jump\t// out\n        /* \"#utility.yul\":7210:7576   */\n    tag_226:\n        /* \"#utility.yul\":7352:7355   */\n      0x00\n        /* \"#utility.yul\":7373:7440   */\n      tag_323\n        /* \"#utility.yul\":7437:7439   */\n      0x20\n        /* \"#utility.yul\":7432:7435   */\n      dup4\n        /* \"#utility.yul\":7373:7440   */\n      tag_222\n      jump\t// in\n    tag_323:\n        /* \"#utility.yul\":7366:7440   */\n      swap2\n      pop\n        /* \"#utility.yul\":7449:7542   */\n      tag_324\n        /* \"#utility.yul\":7538:7541   */\n      dup3\n        /* \"#utility.yul\":7449:7542   */\n      tag_225\n      jump\t// in\n    tag_324:\n        /* \"#utility.yul\":7567:7569   */\n      0x20\n        /* \"#utility.yul\":7562:7565   */\n      dup3\n        /* \"#utility.yul\":7558:7570   */\n      add\n        /* \"#utility.yul\":7551:7570   */\n      swap1\n      pop\n        /* \"#utility.yul\":7210:7576   */\n      swap2\n      swap1\n      pop\n      jump\t// out\n        /* \"#utility.yul\":7582:8001   */\n    tag_157:\n        /* \"#utility.yul\":7748:7752   */\n      0x00\n        /* \"#utility.yul\":7786:7788   */\n      0x20\n        /* \"#utility.yul\":7775:7784   */\n      dup3\n        /* \"#utility.yul\":7771:7789   */\n      add\n        /* \"#utility.yul\":7763:7789   */\n      swap1\n      pop\n        /* \"#utility.yul\":7835:7844   */\n      dup2\n        /* \"#utility.yul\":7829:7833   */\n      dup2\n        /* \"#utility.yul\":7825:7845   */\n      sub\n        /* \"#utility.yul\":7821:7822   */\n      0x00\n        /* \"#utility.yul\":7810:7819   */\n      dup4\n        /* \"#utility.yul\":7806:7823   */\n      add\n        /* \"#utility.yul\":7799:7846   */\n      mstore\n        /* \"#utility.yul\":7863:7994   */\n      tag_326\n        /* \"#utility.yul\":7989:7993   */\n      dup2\n        /* \"#utility.yul\":7863:7994   */\n      tag_226\n      jump\t// in\n    tag_326:\n        /* \"#utility.yul\":7855:7994   */\n      swap1\n      pop\n        /* \"#utility.yul\":7582:8001   */\n      swap2\n      swap1\n      pop\n      jump\t// out\n        /* \"#utility.yul\":8007:8339   */\n    tag_161:\n        /* \"#utility.yul\":8128:8132   */\n      0x00\n        /* \"#utility.yul\":8166:8168   */\n      0x40\n        /* \"#utility.yul\":8155:8164   */\n      dup3\n        /* \"#utility.yul\":8151:8169   */\n      add\n        /* \"#utility.yul\":8143:8169   */\n      swap1\n      pop\n        /* \"#utility.yul\":8179:8250   */\n      tag_328\n        /* \"#utility.yul\":8247:8248   */\n      0x00\n        /* \"#utility.yul\":8236:8245   */\n      dup4\n        /* \"#utility.yul\":8232:8249   */\n      add\n        /* \"#utility.yul\":8223:8229   */\n      dup6\n        /* \"#utility.yul\":8179:8250   */\n      tag_218\n      jump\t// in\n    tag_328:\n        /* \"#utility.yul\":8260:8332   */\n      tag_329\n        /* \"#utility.yul\":8328:8330   */\n      0x20\n        /* \"#utility.yul\":8317:8326   */\n      dup4\n        /* \"#utility.yul\":8313:8331   */\n      add\n        /* \"#utility.yul\":8304:8310   */\n      dup5\n        /* \"#utility.yul\":8260:8332   */\n      tag_219\n      jump\t// in\n    tag_329:\n        /* \"#utility.yul\":8007:8339   */\n      swap4\n      swap3\n      pop\n      pop\n      pop\n      jump\t// out\n        /* \"#utility.yul\":8345:8435   */\n    tag_227:\n        /* \"#utility.yul\":8379:8386   */\n      0x00\n        /* \"#utility.yul\":8422:8427   */\n      dup2\n        /* \"#utility.yul\":8415:8428   */\n      iszero\n        /* \"#utility.yul\":8408:8429   */\n      iszero\n        /* \"#utility.yul\":8397:8429   */\n      swap1\n      pop\n        /* \"#utility.yul\":8345:8435   */\n      swap2\n      swap1\n      pop\n      jump\t// out\n        /* \"#utility.yul\":8441:8557   */\n    tag_228:\n        /* \"#utility.yul\":8511:8532   */\n      tag_332\n        /* \"#utility.yul\":8526:8531   */\n      dup2\n        /* \"#utility.yul\":8511:8532   */\n      tag_227\n      jump\t// in\n    tag_332:\n        /* \"#utility.yul\":8504:8509   */\n      dup2\n        /* \"#utility.yul\":8501:8533   */\n      eq\n        /* \"#utility.yul\":8491:8551   */\n      tag_333\n      jumpi\n        /* \"#utility.yul\":8547:8548   */\n      0x00\n        /* \"#utility.yul\":8544:8545   */\n      dup1\n        /* \"#utility.yul\":8537:8549   */\n      revert\n        /* \"#utility.yul\":8491:8551   */\n    tag_333:\n        /* \"#utility.yul\":8441:8557   */\n      pop\n      jump\t// out\n        /* \"#utility.yul\":8563:8700   */\n    tag_229:\n        /* \"#utility.yul\":8617:8622   */\n      0x00\n        /* \"#utility.yul\":8648:8654   */\n      dup2\n        /* \"#utility.yul\":8642:8655   */\n      mload\n        /* \"#utility.yul\":8633:8655   */\n      swap1\n      pop\n        /* \"#utility.yul\":8664:8694   */\n      tag_335\n        /* \"#utility.yul\":8688:8693   */\n      dup2\n        /* \"#utility.yul\":8664:8694   */\n      tag_228\n      jump\t// in\n    tag_335:\n        /* \"#utility.yul\":8563:8700   */\n      swap3\n      swap2\n      pop\n      pop\n      jump\t// out\n        /* \"#utility.yul\":8706:9051   */\n    tag_170:\n        /* \"#utility.yul\":8773:8779   */\n      0x00\n        /* \"#utility.yul\":8822:8824   */\n      0x20\n        /* \"#utility.yul\":8810:8819   */\n      dup3\n        /* \"#utility.yul\":8801:8808   */\n      dup5\n        /* \"#utility.yul\":8797:8820   */\n      sub\n        /* \"#utility.yul\":8793:8825   */\n      slt\n        /* \"#utility.yul\":8790:8909   */\n      iszero\n      tag_337\n      jumpi\n        /* \"#utility.yul\":8828:8907   */\n      tag_338\n      tag_206\n      jump\t// in\n    tag_338:\n        /* \"#utility.yul\":8790:8909   */\n    tag_337:\n        /* \"#utility.yul\":8948:8949   */\n      0x00\n        /* \"#utility.yul\":8973:9034   */\n      tag_339\n        /* \"#utility.yul\":9026:9033   */\n      dup5\n        /* \"#utility.yul\":9017:9023   */\n      dup3\n        /* \"#utility.yul\":9006:9015   */\n      dup6\n        /* \"#utility.yul\":9002:9024   */\n      add\n        /* \"#utility.yul\":8973:9034   */\n      tag_229\n      jump\t// in\n    tag_339:\n        /* \"#utility.yul\":8963:9034   */\n      swap2\n      pop\n        /* \"#utility.yul\":8919:9044   */\n      pop\n        /* \"#utility.yul\":8706:9051   */\n      swap3\n      swap2\n      pop\n      pop\n      jump\t// out\n        /* \"#utility.yul\":9057:9286   */\n    tag_230:\n        /* \"#utility.yul\":9197:9231   */\n      0x5361666545524332303a204552433230206f7065726174696f6e20646964206e\n        /* \"#utility.yul\":9193:9194   */\n      0x00\n        /* \"#utility.yul\":9185:9191   */\n      dup3\n        /* \"#utility.yul\":9181:9195   */\n      add\n        /* \"#utility.yul\":9174:9232   */\n      mstore\n        /* \"#utility.yul\":9266:9278   */\n      0x6f74207375636365656400000000000000000000000000000000000000000000\n        /* \"#utility.yul\":9261:9263   */\n      0x20\n        /* \"#utility.yul\":9253:9259   */\n      dup3\n        /* \"#utility.yul\":9249:9264   */\n      add\n        /* \"#utility.yul\":9242:9279   */\n      mstore\n        /* \"#utility.yul\":9057:9286   */\n      pop\n      jump\t// out\n        /* \"#utility.yul\":9292:9658   */\n    tag_231:\n        /* \"#utility.yul\":9434:9437   */\n      0x00\n        /* \"#utility.yul\":9455:9522   */\n      tag_342\n        /* \"#utility.yul\":9519:9521   */\n      0x2a\n        /* \"#utility.yul\":9514:9517   */\n      dup4\n        /* \"#utility.yul\":9455:9522   */\n      tag_222\n      jump\t// in\n    tag_342:\n        /* \"#utility.yul\":9448:9522   */\n      swap2\n      pop\n        /* \"#utility.yul\":9531:9624   */\n      tag_343\n        /* \"#utility.yul\":9620:9623   */\n      dup3\n        /* \"#utility.yul\":9531:9624   */\n      tag_230\n      jump\t// in\n    tag_343:\n        /* \"#utility.yul\":9649:9651   */\n      0x40\n        /* \"#utility.yul\":9644:9647   */\n      dup3\n        /* \"#utility.yul\":9640:9652   */\n      add\n        /* \"#utility.yul\":9633:9652   */\n      swap1\n      pop\n        /* \"#utility.yul\":9292:9658   */\n      swap2\n      swap1\n      pop\n      jump\t// out\n        /* \"#utility.yul\":9664:10083   */\n    tag_173:\n        /* \"#utility.yul\":9830:9834   */\n      0x00\n        /* \"#utility.yul\":9868:9870   */\n      0x20\n        /* \"#utility.yul\":9857:9866   */\n      dup3\n        /* \"#utility.yul\":9853:9871   */\n      add\n        /* \"#utility.yul\":9845:9871   */\n      swap1\n      pop\n        /* \"#utility.yul\":9917:9926   */\n      dup2\n        /* \"#utility.yul\":9911:9915   */\n      dup2\n        /* \"#utility.yul\":9907:9927   */\n      sub\n        /* \"#utility.yul\":9903:9904   */\n      0x00\n        /* \"#utility.yul\":9892:9901   */\n      dup4\n        /* \"#utility.yul\":9888:9905   */\n      add\n        /* \"#utility.yul\":9881:9928   */\n      mstore\n        /* \"#utility.yul\":9945:10076   */\n      tag_345\n        /* \"#utility.yul\":10071:10075   */\n      dup2\n        /* \"#utility.yul\":9945:10076   */\n      tag_231\n      jump\t// in\n    tag_345:\n        /* \"#utility.yul\":9937:10076   */\n      swap1\n      pop\n        /* \"#utility.yul\":9664:10083   */\n      swap2\n      swap1\n      pop\n      jump\t// out\n        /* \"#utility.yul\":10089:10314   */\n    tag_232:\n        /* \"#utility.yul\":10229:10263   */\n      0x416464726573733a20696e73756666696369656e742062616c616e636520666f\n        /* \"#utility.yul\":10225:10226   */\n      0x00\n        /* \"#utility.yul\":10217:10223   */\n      dup3\n        /* \"#utility.yul\":10213:10227   */\n      add\n        /* \"#utility.yul\":10206:10264   */\n      mstore\n        /* \"#utility.yul\":10298:10306   */\n      0x722063616c6c0000000000000000000000000000000000000000000000000000\n        /* \"#utility.yul\":10293:10295   */\n      0x20\n        /* \"#utility.yul\":10285:10291   */\n      dup3\n        /* \"#utility.yul\":10281:10296   */\n      add\n        /* \"#utility.yul\":10274:10307   */\n      mstore\n        /* \"#utility.yul\":10089:10314   */\n      pop\n      jump\t// out\n        /* \"#utility.yul\":10320:10686   */\n    tag_233:\n        /* \"#utility.yul\":10462:10465   */\n      0x00\n        /* \"#utility.yul\":10483:10550   */\n      tag_348\n        /* \"#utility.yul\":10547:10549   */\n      0x26\n        /* \"#utility.yul\":10542:10545   */\n      dup4\n        /* \"#utility.yul\":10483:10550   */\n      tag_222\n      jump\t// in\n    tag_348:\n        /* \"#utility.yul\":10476:10550   */\n      swap2\n      pop\n        /* \"#utility.yul\":10559:10652   */\n      tag_349\n        /* \"#utility.yul\":10648:10651   */\n      dup3\n        /* \"#utility.yul\":10559:10652   */\n      tag_232\n      jump\t// in\n    tag_349:\n        /* \"#utility.yul\":10677:10679   */\n      0x40\n        /* \"#utility.yul\":10672:10675   */\n      dup3\n        /* \"#utility.yul\":10668:10680   */\n      add\n        /* \"#utility.yul\":10661:10680   */\n      swap1\n      pop\n        /* \"#utility.yul\":10320:10686   */\n      swap2\n      swap1\n      pop\n      jump\t// out\n        /* \"#utility.yul\":10692:11111   */\n    tag_180:\n        /* \"#utility.yul\":10858:10862   */\n      0x00\n        /* \"#utility.yul\":10896:10898   */\n      0x20\n        /* \"#utility.yul\":10885:10894   */\n      dup3\n        /* \"#utility.yul\":10881:10899   */\n      add\n        /* \"#utility.yul\":10873:10899   */\n      swap1\n      pop\n        /* \"#utility.yul\":10945:10954   */\n      dup2\n        /* \"#utility.yul\":10939:10943   */\n      dup2\n        /* \"#utility.yul\":10935:10955   */\n      sub\n        /* \"#utility.yul\":10931:10932   */\n      0x00\n        /* \"#utility.yul\":10920:10929   */\n      dup4\n        /* \"#utility.yul\":10916:10933   */\n      add\n        /* \"#utility.yul\":10909:10956   */\n      mstore\n        /* \"#utility.yul\":10973:11104   */\n      tag_351\n        /* \"#utility.yul\":11099:11103   */\n      dup2\n        /* \"#utility.yul\":10973:11104   */\n      tag_233\n      jump\t// in\n    tag_351:\n        /* \"#utility.yul\":10965:11104   */\n      swap1\n      pop\n        /* \"#utility.yul\":10692:11111   */\n      swap2\n      swap1\n      pop\n      jump\t// out\n        /* \"#utility.yul\":11117:11215   */\n    tag_234:\n        /* \"#utility.yul\":11168:11174   */\n      0x00\n        /* \"#utility.yul\":11202:11207   */\n      dup2\n        /* \"#utility.yul\":11196:11208   */\n      mload\n        /* \"#utility.yul\":11186:11208   */\n      swap1\n      pop\n        /* \"#utility.yul\":11117:11215   */\n      swap2\n      swap1\n      pop\n      jump\t// out\n        /* \"#utility.yul\":11221:11368   */\n    tag_235:\n        /* \"#utility.yul\":11322:11333   */\n      0x00\n        /* \"#utility.yul\":11359:11362   */\n      dup2\n        /* \"#utility.yul\":11344:11362   */\n      swap1\n      pop\n        /* \"#utility.yul\":11221:11368   */\n      swap3\n      swap2\n      pop\n      pop\n      jump\t// out\n        /* \"#utility.yul\":11374:11620   */\n    tag_236:\n        /* \"#utility.yul\":11455:11456   */\n      0x00\n        /* \"#utility.yul\":11465:11578   */\n    tag_355:\n        /* \"#utility.yul\":11479:11485   */\n      dup4\n        /* \"#utility.yul\":11476:11477   */\n      dup2\n        /* \"#utility.yul\":11473:11486   */\n      lt\n        /* \"#utility.yul\":11465:11578   */\n      iszero\n      tag_357\n      jumpi\n        /* \"#utility.yul\":11564:11565   */\n      dup1\n        /* \"#utility.yul\":11559:11562   */\n      dup3\n        /* \"#utility.yul\":11555:11566   */\n      add\n        /* \"#utility.yul\":11549:11567   */\n      mload\n        /* \"#utility.yul\":11545:11546   */\n      dup2\n        /* \"#utility.yul\":11540:11543   */\n      dup5\n        /* \"#utility.yul\":11536:11547   */\n      add\n        /* \"#utility.yul\":11529:11568   */\n      mstore\n        /* \"#utility.yul\":11501:11503   */\n      0x20\n        /* \"#utility.yul\":11498:11499   */\n      dup2\n        /* \"#utility.yul\":11494:11504   */\n      add\n        /* \"#utility.yul\":11489:11504   */\n      swap1\n      pop\n        /* \"#utility.yul\":11465:11578   */\n      jump(tag_355)\n    tag_357:\n        /* \"#utility.yul\":11612:11613   */\n      0x00\n        /* \"#utility.yul\":11603:11609   */\n      dup5\n        /* \"#utility.yul\":11598:11601   */\n      dup5\n        /* \"#utility.yul\":11594:11610   */\n      add\n        /* \"#utility.yul\":11587:11614   */\n      mstore\n        /* \"#utility.yul\":11436:11620   */\n      pop\n        /* \"#utility.yul\":11374:11620   */\n      pop\n      pop\n      pop\n      jump\t// out\n        /* \"#utility.yul\":11626:12012   */\n    tag_237:\n        /* \"#utility.yul\":11730:11733   */\n      0x00\n        /* \"#utility.yul\":11758:11796   */\n      tag_359\n        /* \"#utility.yul\":11790:11795   */\n      dup3\n        /* \"#utility.yul\":11758:11796   */\n      tag_234\n      jump\t// in\n    tag_359:\n        /* \"#utility.yul\":11812:11900   */\n      tag_360\n        /* \"#utility.yul\":11893:11899   */\n      dup2\n        /* \"#utility.yul\":11888:11891   */\n      dup6\n        /* \"#utility.yul\":11812:11900   */\n      tag_235\n      jump\t// in\n    tag_360:\n        /* \"#utility.yul\":11805:11900   */\n      swap4\n      pop\n        /* \"#utility.yul\":11909:11974   */\n      tag_361\n        /* \"#utility.yul\":11967:11973   */\n      dup2\n        /* \"#utility.yul\":11962:11965   */\n      dup6\n        /* \"#utility.yul\":11955:11959   */\n      0x20\n        /* \"#utility.yul\":11948:11953   */\n      dup7\n        /* \"#utility.yul\":11944:11960   */\n      add\n        /* \"#utility.yul\":11909:11974   */\n      tag_236\n      jump\t// in\n    tag_361:\n        /* \"#utility.yul\":11999:12005   */\n      dup1\n        /* \"#utility.yul\":11994:11997   */\n      dup5\n        /* \"#utility.yul\":11990:12006   */\n      add\n        /* \"#utility.yul\":11983:12006   */\n      swap2\n      pop\n        /* \"#utility.yul\":11734:12012   */\n      pop\n        /* \"#utility.yul\":11626:12012   */\n      swap3\n      swap2\n      pop\n      pop\n      jump\t// out\n        /* \"#utility.yul\":12018:12289   */\n    tag_182:\n        /* \"#utility.yul\":12148:12151   */\n      0x00\n        /* \"#utility.yul\":12170:12263   */\n      tag_363\n        /* \"#utility.yul\":12259:12262   */\n      dup3\n        /* \"#utility.yul\":12250:12256   */\n      dup5\n        /* \"#utility.yul\":12170:12263   */\n      tag_237\n      jump\t// in\n    tag_363:\n        /* \"#utility.yul\":12163:12263   */\n      swap2\n      pop\n        /* \"#utility.yul\":12280:12283   */\n      dup2\n        /* \"#utility.yul\":12273:12283   */\n      swap1\n      pop\n        /* \"#utility.yul\":12018:12289   */\n      swap3\n      swap2\n      pop\n      pop\n      jump\t// out\n        /* \"#utility.yul\":12295:12474   */\n    tag_238:\n        /* \"#utility.yul\":12435:12466   */\n      0x416464726573733a2063616c6c20746f206e6f6e2d636f6e7472616374000000\n        /* \"#utility.yul\":12431:12432   */\n      0x00\n        /* \"#utility.yul\":12423:12429   */\n      dup3\n        /* \"#utility.yul\":12419:12433   */\n      add\n        /* \"#utility.yul\":12412:12467   */\n      mstore\n        /* \"#utility.yul\":12295:12474   */\n      pop\n      jump\t// out\n        /* \"#utility.yul\":12480:12846   */\n    tag_239:\n        /* \"#utility.yul\":12622:12625   */\n      0x00\n        /* \"#utility.yul\":12643:12710   */\n      tag_366\n        /* \"#utility.yul\":12707:12709   */\n      0x1d\n        /* \"#utility.yul\":12702:12705   */\n      dup4\n        /* \"#utility.yul\":12643:12710   */\n      tag_222\n      jump\t// in\n    tag_366:\n        /* \"#utility.yul\":12636:12710   */\n      swap2\n      pop\n        /* \"#utility.yul\":12719:12812   */\n      tag_367\n        /* \"#utility.yul\":12808:12811   */\n      dup3\n        /* \"#utility.yul\":12719:12812   */\n      tag_238\n      jump\t// in\n    tag_367:\n        /* \"#utility.yul\":12837:12839   */\n      0x20\n        /* \"#utility.yul\":12832:12835   */\n      dup3\n        /* \"#utility.yul\":12828:12840   */\n      add\n        /* \"#utility.yul\":12821:12840   */\n      swap1\n      pop\n        /* \"#utility.yul\":12480:12846   */\n      swap2\n      swap1\n      pop\n      jump\t// out\n        /* \"#utility.yul\":12852:13271   */\n    tag_195:\n        /* \"#utility.yul\":13018:13022   */\n      0x00\n        /* \"#utility.yul\":13056:13058   */\n      0x20\n        /* \"#utility.yul\":13045:13054   */\n      dup3\n        /* \"#utility.yul\":13041:13059   */\n      add\n        /* \"#utility.yul\":13033:13059   */\n      swap1\n      pop\n        /* \"#utility.yul\":13105:13114   */\n      dup2\n        /* \"#utility.yul\":13099:13103   */\n      dup2\n        /* \"#utility.yul\":13095:13115   */\n      sub\n        /* \"#utility.yul\":13091:13092   */\n      0x00\n        /* \"#utility.yul\":13080:13089   */\n      dup4\n        /* \"#utility.yul\":13076:13093   */\n      add\n        /* \"#utility.yul\":13069:13116   */\n      mstore\n        /* \"#utility.yul\":13133:13264   */\n      tag_369\n        /* \"#utility.yul\":13259:13263   */\n      dup2\n        /* \"#utility.yul\":13133:13264   */\n      tag_239\n      jump\t// in\n    tag_369:\n        /* \"#utility.yul\":13125:13264   */\n      swap1\n      pop\n        /* \"#utility.yul\":12852:13271   */\n      swap2\n      swap1\n      pop\n      jump\t// out\n        /* \"#utility.yul\":13277:13376   */\n    tag_240:\n        /* \"#utility.yul\":13329:13335   */\n      0x00\n        /* \"#utility.yul\":13363:13368   */\n      dup2\n        /* \"#utility.yul\":13357:13369   */\n      mload\n        /* \"#utility.yul\":13347:13369   */\n      swap1\n      pop\n        /* \"#utility.yul\":13277:13376   */\n      swap2\n      swap1\n      pop\n      jump\t// out\n        /* \"#utility.yul\":13382:13484   */\n    tag_241:\n        /* \"#utility.yul\":13423:13429   */\n      0x00\n        /* \"#utility.yul\":13474:13476   */\n      0x1f\n        /* \"#utility.yul\":13470:13477   */\n      not\n        /* \"#utility.yul\":13465:13467   */\n      0x1f\n        /* \"#utility.yul\":13458:13463   */\n      dup4\n        /* \"#utility.yul\":13454:13468   */\n      add\n        /* \"#utility.yul\":13450:13478   */\n      and\n        /* \"#utility.yul\":13440:13478   */\n      swap1\n      pop\n        /* \"#utility.yul\":13382:13484   */\n      swap2\n      swap1\n      pop\n      jump\t// out\n        /* \"#utility.yul\":13490:13867   */\n    tag_242:\n        /* \"#utility.yul\":13578:13581   */\n      0x00\n        /* \"#utility.yul\":13606:13645   */\n      tag_373\n        /* \"#utility.yul\":13639:13644   */\n      dup3\n        /* \"#utility.yul\":13606:13645   */\n      tag_240\n      jump\t// in\n    tag_373:\n        /* \"#utility.yul\":13661:13732   */\n      tag_374\n        /* \"#utility.yul\":13725:13731   */\n      dup2\n        /* \"#utility.yul\":13720:13723   */\n      dup6\n        /* \"#utility.yul\":13661:13732   */\n      tag_222\n      jump\t// in\n    tag_374:\n        /* \"#utility.yul\":13654:13732   */\n      swap4\n      pop\n        /* \"#utility.yul\":13741:13806   */\n      tag_375\n        /* \"#utility.yul\":13799:13805   */\n      dup2\n        /* \"#utility.yul\":13794:13797   */\n      dup6\n        /* \"#utility.yul\":13787:13791   */\n      0x20\n        /* \"#utility.yul\":13780:13785   */\n      dup7\n        /* \"#utility.yul\":13776:13792   */\n      add\n        /* \"#utility.yul\":13741:13806   */\n      tag_236\n      jump\t// in\n    tag_375:\n        /* \"#utility.yul\":13831:13860   */\n      tag_376\n        /* \"#utility.yul\":13853:13859   */\n      dup2\n        /* \"#utility.yul\":13831:13860   */\n      tag_241\n      jump\t// in\n    tag_376:\n        /* \"#utility.yul\":13826:13829   */\n      dup5\n        /* \"#utility.yul\":13822:13861   */\n      add\n        /* \"#utility.yul\":13815:13861   */\n      swap2\n      pop\n        /* \"#utility.yul\":13582:13867   */\n      pop\n        /* \"#utility.yul\":13490:13867   */\n      swap3\n      swap2\n      pop\n      pop\n      jump\t// out\n        /* \"#utility.yul\":13873:14186   */\n    tag_204:\n        /* \"#utility.yul\":13986:13990   */\n      0x00\n        /* \"#utility.yul\":14024:14026   */\n      0x20\n        /* \"#utility.yul\":14013:14022   */\n      dup3\n        /* \"#utility.yul\":14009:14027   */\n      add\n        /* \"#utility.yul\":14001:14027   */\n      swap1\n      pop\n        /* \"#utility.yul\":14073:14082   */\n      dup2\n        /* \"#utility.yul\":14067:14071   */\n      dup2\n        /* \"#utility.yul\":14063:14083   */\n      sub\n        /* \"#utility.yul\":14059:14060   */\n      0x00\n        /* \"#utility.yul\":14048:14057   */\n      dup4\n        /* \"#utility.yul\":14044:14061   */\n      add\n        /* \"#utility.yul\":14037:14084   */\n      mstore\n        /* \"#utility.yul\":14101:14179   */\n      tag_378\n        /* \"#utility.yul\":14174:14178   */\n      dup2\n        /* \"#utility.yul\":14165:14171   */\n      dup5\n        /* \"#utility.yul\":14101:14179   */\n      tag_242\n      jump\t// in\n    tag_378:\n        /* \"#utility.yul\":14093:14179   */\n      swap1\n      pop\n        /* \"#utility.yul\":13873:14186   */\n      swap3\n      swap2\n      pop\n      pop\n      jump\t// out\n\n    auxdata: 0xa264697066735822122053e98043ada345fe1dadc40689cd3d812406f684e855424b30a6e863567d3a9064736f6c63430008150033\n}\n",
				"bytecode": {
					"linkReferences": {},
					"object": "608060405262015180600355348015610016575f80fd5b5061003361002861003860201b60201c565b61003f60201b60201c565b610100565b5f33905090565b5f805f9054906101000a900473ffffffffffffffffffffffffffffffffffffffff169050815f806101000a81548173ffffffffffffffffffffffffffffffffffffffff021916908373ffffffffffffffffffffffffffffffffffffffff1602179055508173ffffffffffffffffffffffffffffffffffffffff168173ffffffffffffffffffffffffffffffffffffffff167f8be0079c531659141344cd1fd0a4f28419497f9722a3daafe3b4186f6b6457e060405160405180910390a35050565b6117798061010d5f395ff3fe608060405234801561000f575f80fd5b50600436106100b2575f3560e01c8063aa68f5c31161006f578063aa68f5c314610152578063b8cb65ee1461016e578063c751c0a61461018a578063de66341e146101a6578063e809290b146101c4578063f2fde38b146101f4576100b2565b8063161b12a0146100b65780634e71d92d146100d25780635715c5b7146100dc578063715018a61461010c578063898f6637146101165780638da5cb5b14610134575b5f80fd5b6100d060048036038101906100cb91906110a4565b610210565b005b6100da6104a3565b005b6100f660048036038101906100f19190611108565b6107ba565b6040516101039190611142565b60405180910390f35b610114610819565b005b61011e61082c565b60405161012b919061116a565b60405180910390f35b61013c610835565b6040516101499190611142565b60405180910390f35b61016c60048036038101906101679190611108565b61085c565b005b61018860048036038101906101839190611108565b61086e565b005b6101a4600480360381019061019f9190611183565b6109cc565b005b6101ae610ae3565b6040516101bb919061116a565b60405180910390f35b6101de60048036038101906101d991906111d3565b610aef565b6040516101eb919061116a565b60405180910390f35b61020e600480360381019061020991906111d3565b610b04565b005b610218610b86565b5f8203610251576040517f2c5211c600000000000000000000000000000000000000000000000000000000815260040160405180910390fd5b6001808080549050610263919061122b565b815481106102745761027361125e565b5b905f5260205f209060030201600185815481106102945761029361125e565b5b905f5260205f2090600302015f82015f9054906101000a900473ffffffffffffffffffffffffffffffffffffffff16815f015f6101000a81548173ffffffffffffffffffffffffffffffffffffffff021916908373ffffffffffffffffffffffffffffffffffffffff16021790555060018201548160010155600282015f9054906101000a900460ff16816002015f6101000a81548160ff021916908360ff160217905550905050600180548061034e5761034d61128b565b5b600190038181905f5260205f2090600302015f8082015f6101000a81549073ffffffffffffffffffffffffffffffffffffffff0219169055600182015f9055600282015f6101000a81549060ff0219169055505090555f60405180606001604052808573ffffffffffffffffffffffffffffffffffffffff1681526020018481526020018360ff1681525090508060018080549050815481106103f4576103f361125e565b5b905f5260205f2090600302015f820151815f015f6101000a81548173ffffffffffffffffffffffffffffffffffffffff021916908373ffffffffffffffffffffffffffffffffffffffff160217905550602082015181600101556040820151816002015f6101000a81548160ff021916908360ff16021790555090505061049c30848673ffffffffffffffffffffffffffffffffffffffff16610c049092919063ffffffff16565b5050505050565b5f600180549050036104e1576040517fcc0dadac00000000000000000000000000000000000000000000000000000000815260040160405180910390fd5b5f60025f3373ffffffffffffffffffffffffffffffffffffffff1673ffffffffffffffffffffffffffffffffffffffff1681526020019081526020015f2054146105aa5760035460025f3373ffffffffffffffffffffffffffffffffffffffff1673ffffffffffffffffffffffffffffffffffffffff1681526020019081526020015f205442610571919061122b565b10156105a9576040517f0bfee37700000000000000000000000000000000000000000000000000000000815260040160405180910390fd5b5b5f5b600180549050811015610775575f600182815481106105ce576105cd61125e565b5b905f5260205f2090600302015f015f9054906101000a900473ffffffffffffffffffffffffffffffffffffffff1673ffffffffffffffffffffffffffffffffffffffff166370a08231306040518263ffffffff1660e01b81526004016106349190611142565b602060405180830381865afa15801561064f573d5f803e3d5ffd5b505050506040513d601f19601f8201168201806040525081019061067391906112cc565b9050600182815481106106895761068861125e565b5b905f5260205f209060030201600101548110156106d2576040517ff4d678b800000000000000000000000000000000000000000000000000000000815260040160405180910390fd5b61076133600184815481106106ea576106e961125e565b5b905f5260205f209060030201600101546001858154811061070e5761070d61125e565b5b905f5260205f2090600302015f015f9054906101000a900473ffffffffffffffffffffffffffffffffffffffff1673ffffffffffffffffffffffffffffffffffffffff16610c049092919063ffffffff16565b50808061076d906112f7565b9150506105ac565b504260025f3373ffffffffffffffffffffffffffffffffffffffff1673ffffffffffffffffffffffffffffffffffffffff1681526020019081526020015f2081905550565b5f60018054905082106107cf575f9050610814565b600182815481106107e3576107e261125e565b5b905f5260205f2090600302015f015f9054906101000a900473ffffffffffffffffffffffffffffffffffffffff1690505b919050565b610821610b86565b61082a5f610c8a565b565b5f600354905090565b5f805f9054906101000a900473ffffffffffffffffffffffffffffffffffffffff16905090565b610864610b86565b8060038190555050565b610876610b86565b6001808080549050610888919061122b565b815481106108995761089861125e565b5b905f5260205f209060030201600182815481106108b9576108b861125e565b5b905f5260205f2090600302015f82015f9054906101000a900473ffffffffffffffffffffffffffffffffffffffff16815f015f6101000a81548173ffffffffffffffffffffffffffffffffffffffff021916908373ffffffffffffffffffffffffffffffffffffffff16021790555060018201548160010155600282015f9054906101000a900460ff16816002015f6101000a81548160ff021916908360ff16021790555090505060018054806109735761097261128b565b5b600190038181905f5260205f2090600302015f8082015f6101000a81549073ffffffffffffffffffffffffffffffffffffffff0219169055600182015f9055600282015f6101000a81549060ff02191690555050905550565b6109d4610b86565b5f8203610a0d576040517f2c5211c600000000000000000000000000000000000000000000000000000000815260040160405180910390fd5b5f60405180606001604052808573ffffffffffffffffffffffffffffffffffffffff1681526020018481526020018360ff168152509050600181908060018154018082558091505060019003905f5260205f2090600302015f909190919091505f820151815f015f6101000a81548173ffffffffffffffffffffffffffffffffffffffff021916908373ffffffffffffffffffffffffffffffffffffffff160217905550602082015181600101556040820151816002015f6101000a81548160ff021916908360ff160217905550505050505050565b5f600180549050905090565b6002602052805f5260405f205f915090505481565b610b0c610b86565b5f73ffffffffffffffffffffffffffffffffffffffff168173ffffffffffffffffffffffffffffffffffffffff1603610b7a576040517f08c379a0000000000000000000000000000000000000000000000000000000008152600401610b71906113be565b60405180910390fd5b610b8381610c8a565b50565b610b8e610d4b565b73ffffffffffffffffffffffffffffffffffffffff16610bac610835565b73ffffffffffffffffffffffffffffffffffffffff1614610c02576040517f08c379a0000000000000000000000000000000000000000000000000000000008152600401610bf990611426565b60405180910390fd5b565b610c858363a9059cbb60e01b8484604051602401610c23929190611444565b604051602081830303815290604052907bffffffffffffffffffffffffffffffffffffffffffffffffffffffff19166020820180517bffffffffffffffffffffffffffffffffffffffffffffffffffffffff8381831617835250505050610d52565b505050565b5f805f9054906101000a900473ffffffffffffffffffffffffffffffffffffffff169050815f806101000a81548173ffffffffffffffffffffffffffffffffffffffff021916908373ffffffffffffffffffffffffffffffffffffffff1602179055508173ffffffffffffffffffffffffffffffffffffffff168173ffffffffffffffffffffffffffffffffffffffff167f8be0079c531659141344cd1fd0a4f28419497f9722a3daafe3b4186f6b6457e060405160405180910390a35050565b5f33905090565b5f610db3826040518060400160405280602081526020017f5361666545524332303a206c6f772d6c6576656c2063616c6c206661696c65648152508573ffffffffffffffffffffffffffffffffffffffff16610e189092919063ffffffff16565b90505f81511480610dd4575080806020019051810190610dd391906114a0565b5b610e13576040517f08c379a0000000000000000000000000000000000000000000000000000000008152600401610e0a9061153b565b60405180910390fd5b505050565b6060610e2684845f85610e2f565b90509392505050565b606082471015610e74576040517f08c379a0000000000000000000000000000000000000000000000000000000008152600401610e6b906115c9565b60405180910390fd5b5f808673ffffffffffffffffffffffffffffffffffffffff168587604051610e9c9190611653565b5f6040518083038185875af1925050503d805f8114610ed6576040519150601f19603f3d011682016040523d82523d5f602084013e610edb565b606091505b5091509150610eec87838387610ef8565b92505050949350505050565b60608315610f59575f835103610f5157610f1185610f6c565b610f50576040517f08c379a0000000000000000000000000000000000000000000000000000000008152600401610f47906116b3565b60405180910390fd5b5b829050610f64565b610f638383610f8e565b5b949350505050565b5f808273ffffffffffffffffffffffffffffffffffffffff163b119050919050565b5f82511115610fa05781518083602001fd5b806040517f08c379a0000000000000000000000000000000000000000000000000000000008152600401610fd49190611723565b60405180910390fd5b5f80fd5b5f819050919050565b610ff381610fe1565b8114610ffd575f80fd5b50565b5f8135905061100e81610fea565b92915050565b5f73ffffffffffffffffffffffffffffffffffffffff82169050919050565b5f61103d82611014565b9050919050565b61104d81611033565b8114611057575f80fd5b50565b5f8135905061106881611044565b92915050565b5f60ff82169050919050565b6110838161106e565b811461108d575f80fd5b50565b5f8135905061109e8161107a565b92915050565b5f805f80608085870312156110bc576110bb610fdd565b5b5f6110c987828801611000565b94505060206110da8782880161105a565b93505060406110eb87828801611000565b92505060606110fc87828801611090565b91505092959194509250565b5f6020828403121561111d5761111c610fdd565b5b5f61112a84828501611000565b91505092915050565b61113c81611033565b82525050565b5f6020820190506111555f830184611133565b92915050565b61116481610fe1565b82525050565b5f60208201905061117d5f83018461115b565b92915050565b5f805f6060848603121561119a57611199610fdd565b5b5f6111a78682870161105a565b93505060206111b886828701611000565b92505060406111c986828701611090565b9150509250925092565b5f602082840312156111e8576111e7610fdd565b5b5f6111f58482850161105a565b91505092915050565b7f4e487b71000000000000000000000000000000000000000000000000000000005f52601160045260245ffd5b5f61123582610fe1565b915061124083610fe1565b9250828203905081811115611258576112576111fe565b5b92915050565b7f4e487b71000000000000000000000000000000000000000000000000000000005f52603260045260245ffd5b7f4e487b71000000000000000000000000000000000000000000000000000000005f52603160045260245ffd5b5f815190506112c681610fea565b92915050565b5f602082840312156112e1576112e0610fdd565b5b5f6112ee848285016112b8565b91505092915050565b5f61130182610fe1565b91507fffffffffffffffffffffffffffffffffffffffffffffffffffffffffffffffff8203611333576113326111fe565b5b600182019050919050565b5f82825260208201905092915050565b7f4f776e61626c653a206e6577206f776e657220697320746865207a65726f20615f8201527f6464726573730000000000000000000000000000000000000000000000000000602082015250565b5f6113a860268361133e565b91506113b38261134e565b604082019050919050565b5f6020820190508181035f8301526113d58161139c565b9050919050565b7f4f776e61626c653a2063616c6c6572206973206e6f7420746865206f776e65725f82015250565b5f61141060208361133e565b915061141b826113dc565b602082019050919050565b5f6020820190508181035f83015261143d81611404565b9050919050565b5f6040820190506114575f830185611133565b611464602083018461115b565b9392505050565b5f8115159050919050565b61147f8161146b565b8114611489575f80fd5b50565b5f8151905061149a81611476565b92915050565b5f602082840312156114b5576114b4610fdd565b5b5f6114c28482850161148c565b91505092915050565b7f5361666545524332303a204552433230206f7065726174696f6e20646964206e5f8201527f6f74207375636365656400000000000000000000000000000000000000000000602082015250565b5f611525602a8361133e565b9150611530826114cb565b604082019050919050565b5f6020820190508181035f83015261155281611519565b9050919050565b7f416464726573733a20696e73756666696369656e742062616c616e636520666f5f8201527f722063616c6c0000000000000000000000000000000000000000000000000000602082015250565b5f6115b360268361133e565b91506115be82611559565b604082019050919050565b5f6020820190508181035f8301526115e0816115a7565b9050919050565b5f81519050919050565b5f81905092915050565b5f5b838110156116185780820151818401526020810190506115fd565b5f8484015250505050565b5f61162d826115e7565b61163781856115f1565b93506116478185602086016115fb565b80840191505092915050565b5f61165e8284611623565b915081905092915050565b7f416464726573733a2063616c6c20746f206e6f6e2d636f6e74726163740000005f82015250565b5f61169d601d8361133e565b91506116a882611669565b602082019050919050565b5f6020820190508181035f8301526116ca81611691565b9050919050565b5f81519050919050565b5f601f19601f8301169050919050565b5f6116f5826116d1565b6116ff818561133e565b935061170f8185602086016115fb565b611718816116db565b840191505092915050565b5f6020820190508181035f83015261173b81846116eb565b90509291505056fea264697066735822122053e98043ada345fe1dadc40689cd3d812406f684e855424b30a6e863567d3a9064736f6c63430008150033",
					"opcodes": "PUSH1 0x80 PUSH1 0x40 MSTORE PUSH3 0x15180 PUSH1 0x3 SSTORE CALLVALUE DUP1 ISZERO PUSH2 0x16 JUMPI PUSH0 DUP1 REVERT JUMPDEST POP PUSH2 0x33 PUSH2 0x28 PUSH2 0x38 PUSH1 0x20 SHL PUSH1 0x20 SHR JUMP JUMPDEST PUSH2 0x3F PUSH1 0x20 SHL PUSH1 0x20 SHR JUMP JUMPDEST PUSH2 0x100 JUMP JUMPDEST PUSH0 CALLER SWAP1 POP SWAP1 JUMP JUMPDEST PUSH0 DUP1 PUSH0 SWAP1 SLOAD SWAP1 PUSH2 0x100 EXP SWAP1 DIV PUSH20 0xFFFFFFFFFFFFFFFFFFFFFFFFFFFFFFFFFFFFFFFF AND SWAP1 POP DUP2 PUSH0 DUP1 PUSH2 0x100 EXP DUP2 SLOAD DUP2 PUSH20 0xFFFFFFFFFFFFFFFFFFFFFFFFFFFFFFFFFFFFFFFF MUL NOT AND SWAP1 DUP4 PUSH20 0xFFFFFFFFFFFFFFFFFFFFFFFFFFFFFFFFFFFFFFFF AND MUL OR SWAP1 SSTORE POP DUP2 PUSH20 0xFFFFFFFFFFFFFFFFFFFFFFFFFFFFFFFFFFFFFFFF AND DUP2 PUSH20 0xFFFFFFFFFFFFFFFFFFFFFFFFFFFFFFFFFFFFFFFF AND PUSH32 0x8BE0079C531659141344CD1FD0A4F28419497F9722A3DAAFE3B4186F6B6457E0 PUSH1 0x40 MLOAD PUSH1 0x40 MLOAD DUP1 SWAP2 SUB SWAP1 LOG3 POP POP JUMP JUMPDEST PUSH2 0x1779 DUP1 PUSH2 0x10D PUSH0 CODECOPY PUSH0 RETURN INVALID PUSH1 0x80 PUSH1 0x40 MSTORE CALLVALUE DUP1 ISZERO PUSH2 0xF JUMPI PUSH0 DUP1 REVERT JUMPDEST POP PUSH1 0x4 CALLDATASIZE LT PUSH2 0xB2 JUMPI PUSH0 CALLDATALOAD PUSH1 0xE0 SHR DUP1 PUSH4 0xAA68F5C3 GT PUSH2 0x6F JUMPI DUP1 PUSH4 0xAA68F5C3 EQ PUSH2 0x152 JUMPI DUP1 PUSH4 0xB8CB65EE EQ PUSH2 0x16E JUMPI DUP1 PUSH4 0xC751C0A6 EQ PUSH2 0x18A JUMPI DUP1 PUSH4 0xDE66341E EQ PUSH2 0x1A6 JUMPI DUP1 PUSH4 0xE809290B EQ PUSH2 0x1C4 JUMPI DUP1 PUSH4 0xF2FDE38B EQ PUSH2 0x1F4 JUMPI PUSH2 0xB2 JUMP JUMPDEST DUP1 PUSH4 0x161B12A0 EQ PUSH2 0xB6 JUMPI DUP1 PUSH4 0x4E71D92D EQ PUSH2 0xD2 JUMPI DUP1 PUSH4 0x5715C5B7 EQ PUSH2 0xDC JUMPI DUP1 PUSH4 0x715018A6 EQ PUSH2 0x10C JUMPI DUP1 PUSH4 0x898F6637 EQ PUSH2 0x116 JUMPI DUP1 PUSH4 0x8DA5CB5B EQ PUSH2 0x134 JUMPI JUMPDEST PUSH0 DUP1 REVERT JUMPDEST PUSH2 0xD0 PUSH1 0x4 DUP1 CALLDATASIZE SUB DUP2 ADD SWAP1 PUSH2 0xCB SWAP2 SWAP1 PUSH2 0x10A4 JUMP JUMPDEST PUSH2 0x210 JUMP JUMPDEST STOP JUMPDEST PUSH2 0xDA PUSH2 0x4A3 JUMP JUMPDEST STOP JUMPDEST PUSH2 0xF6 PUSH1 0x4 DUP1 CALLDATASIZE SUB DUP2 ADD SWAP1 PUSH2 0xF1 SWAP2 SWAP1 PUSH2 0x1108 JUMP JUMPDEST PUSH2 0x7BA JUMP JUMPDEST PUSH1 0x40 MLOAD PUSH2 0x103 SWAP2 SWAP1 PUSH2 0x1142 JUMP JUMPDEST PUSH1 0x40 MLOAD DUP1 SWAP2 SUB SWAP1 RETURN JUMPDEST PUSH2 0x114 PUSH2 0x819 JUMP JUMPDEST STOP JUMPDEST PUSH2 0x11E PUSH2 0x82C JUMP JUMPDEST PUSH1 0x40 MLOAD PUSH2 0x12B SWAP2 SWAP1 PUSH2 0x116A JUMP JUMPDEST PUSH1 0x40 MLOAD DUP1 SWAP2 SUB SWAP1 RETURN JUMPDEST PUSH2 0x13C PUSH2 0x835 JUMP JUMPDEST PUSH1 0x40 MLOAD PUSH2 0x149 SWAP2 SWAP1 PUSH2 0x1142 JUMP JUMPDEST PUSH1 0x40 MLOAD DUP1 SWAP2 SUB SWAP1 RETURN JUMPDEST PUSH2 0x16C PUSH1 0x4 DUP1 CALLDATASIZE SUB DUP2 ADD SWAP1 PUSH2 0x167 SWAP2 SWAP1 PUSH2 0x1108 JUMP JUMPDEST PUSH2 0x85C JUMP JUMPDEST STOP JUMPDEST PUSH2 0x188 PUSH1 0x4 DUP1 CALLDATASIZE SUB DUP2 ADD SWAP1 PUSH2 0x183 SWAP2 SWAP1 PUSH2 0x1108 JUMP JUMPDEST PUSH2 0x86E JUMP JUMPDEST STOP JUMPDEST PUSH2 0x1A4 PUSH1 0x4 DUP1 CALLDATASIZE SUB DUP2 ADD SWAP1 PUSH2 0x19F SWAP2 SWAP1 PUSH2 0x1183 JUMP JUMPDEST PUSH2 0x9CC JUMP JUMPDEST STOP JUMPDEST PUSH2 0x1AE PUSH2 0xAE3 JUMP JUMPDEST PUSH1 0x40 MLOAD PUSH2 0x1BB SWAP2 SWAP1 PUSH2 0x116A JUMP JUMPDEST PUSH1 0x40 MLOAD DUP1 SWAP2 SUB SWAP1 RETURN JUMPDEST PUSH2 0x1DE PUSH1 0x4 DUP1 CALLDATASIZE SUB DUP2 ADD SWAP1 PUSH2 0x1D9 SWAP2 SWAP1 PUSH2 0x11D3 JUMP JUMPDEST PUSH2 0xAEF JUMP JUMPDEST PUSH1 0x40 MLOAD PUSH2 0x1EB SWAP2 SWAP1 PUSH2 0x116A JUMP JUMPDEST PUSH1 0x40 MLOAD DUP1 SWAP2 SUB SWAP1 RETURN JUMPDEST PUSH2 0x20E PUSH1 0x4 DUP1 CALLDATASIZE SUB DUP2 ADD SWAP1 PUSH2 0x209 SWAP2 SWAP1 PUSH2 0x11D3 JUMP JUMPDEST PUSH2 0xB04 JUMP JUMPDEST STOP JUMPDEST PUSH2 0x218 PUSH2 0xB86 JUMP JUMPDEST PUSH0 DUP3 SUB PUSH2 0x251 JUMPI PUSH1 0x40 MLOAD PUSH32 0x2C5211C600000000000000000000000000000000000000000000000000000000 DUP2 MSTORE PUSH1 0x4 ADD PUSH1 0x40 MLOAD DUP1 SWAP2 SUB SWAP1 REVERT JUMPDEST PUSH1 0x1 DUP1 DUP1 DUP1 SLOAD SWAP1 POP PUSH2 0x263 SWAP2 SWAP1 PUSH2 0x122B JUMP JUMPDEST DUP2 SLOAD DUP2 LT PUSH2 0x274 JUMPI PUSH2 0x273 PUSH2 0x125E JUMP JUMPDEST JUMPDEST SWAP1 PUSH0 MSTORE PUSH1 0x20 PUSH0 KECCAK256 SWAP1 PUSH1 0x3 MUL ADD PUSH1 0x1 DUP6 DUP2 SLOAD DUP2 LT PUSH2 0x294 JUMPI PUSH2 0x293 PUSH2 0x125E JUMP JUMPDEST JUMPDEST SWAP1 PUSH0 MSTORE PUSH1 0x20 PUSH0 KECCAK256 SWAP1 PUSH1 0x3 MUL ADD PUSH0 DUP3 ADD PUSH0 SWAP1 SLOAD SWAP1 PUSH2 0x100 EXP SWAP1 DIV PUSH20 0xFFFFFFFFFFFFFFFFFFFFFFFFFFFFFFFFFFFFFFFF AND DUP2 PUSH0 ADD PUSH0 PUSH2 0x100 EXP DUP2 SLOAD DUP2 PUSH20 0xFFFFFFFFFFFFFFFFFFFFFFFFFFFFFFFFFFFFFFFF MUL NOT AND SWAP1 DUP4 PUSH20 0xFFFFFFFFFFFFFFFFFFFFFFFFFFFFFFFFFFFFFFFF AND MUL OR SWAP1 SSTORE POP PUSH1 0x1 DUP3 ADD SLOAD DUP2 PUSH1 0x1 ADD SSTORE PUSH1 0x2 DUP3 ADD PUSH0 SWAP1 SLOAD SWAP1 PUSH2 0x100 EXP SWAP1 DIV PUSH1 0xFF AND DUP2 PUSH1 0x2 ADD PUSH0 PUSH2 0x100 EXP DUP2 SLOAD DUP2 PUSH1 0xFF MUL NOT AND SWAP1 DUP4 PUSH1 0xFF AND MUL OR SWAP1 SSTORE POP SWAP1 POP POP PUSH1 0x1 DUP1 SLOAD DUP1 PUSH2 0x34E JUMPI PUSH2 0x34D PUSH2 0x128B JUMP JUMPDEST JUMPDEST PUSH1 0x1 SWAP1 SUB DUP2 DUP2 SWAP1 PUSH0 MSTORE PUSH1 0x20 PUSH0 KECCAK256 SWAP1 PUSH1 0x3 MUL ADD PUSH0 DUP1 DUP3 ADD PUSH0 PUSH2 0x100 EXP DUP2 SLOAD SWAP1 PUSH20 0xFFFFFFFFFFFFFFFFFFFFFFFFFFFFFFFFFFFFFFFF MUL NOT AND SWAP1 SSTORE PUSH1 0x1 DUP3 ADD PUSH0 SWAP1 SSTORE PUSH1 0x2 DUP3 ADD PUSH0 PUSH2 0x100 EXP DUP2 SLOAD SWAP1 PUSH1 0xFF MUL NOT AND SWAP1 SSTORE POP POP SWAP1 SSTORE PUSH0 PUSH1 0x40 MLOAD DUP1 PUSH1 0x60 ADD PUSH1 0x40 MSTORE DUP1 DUP6 PUSH20 0xFFFFFFFFFFFFFFFFFFFFFFFFFFFFFFFFFFFFFFFF AND DUP2 MSTORE PUSH1 0x20 ADD DUP5 DUP2 MSTORE PUSH1 0x20 ADD DUP4 PUSH1 0xFF AND DUP2 MSTORE POP SWAP1 POP DUP1 PUSH1 0x1 DUP1 DUP1 SLOAD SWAP1 POP DUP2 SLOAD DUP2 LT PUSH2 0x3F4 JUMPI PUSH2 0x3F3 PUSH2 0x125E JUMP JUMPDEST JUMPDEST SWAP1 PUSH0 MSTORE PUSH1 0x20 PUSH0 KECCAK256 SWAP1 PUSH1 0x3 MUL ADD PUSH0 DUP3 ADD MLOAD DUP2 PUSH0 ADD PUSH0 PUSH2 0x100 EXP DUP2 SLOAD DUP2 PUSH20 0xFFFFFFFFFFFFFFFFFFFFFFFFFFFFFFFFFFFFFFFF MUL NOT AND SWAP1 DUP4 PUSH20 0xFFFFFFFFFFFFFFFFFFFFFFFFFFFFFFFFFFFFFFFF AND MUL OR SWAP1 SSTORE POP PUSH1 0x20 DUP3 ADD MLOAD DUP2 PUSH1 0x1 ADD SSTORE PUSH1 0x40 DUP3 ADD MLOAD DUP2 PUSH1 0x2 ADD PUSH0 PUSH2 0x100 EXP DUP2 SLOAD DUP2 PUSH1 0xFF MUL NOT AND SWAP1 DUP4 PUSH1 0xFF AND MUL OR SWAP1 SSTORE POP SWAP1 POP POP PUSH2 0x49C ADDRESS DUP5 DUP7 PUSH20 0xFFFFFFFFFFFFFFFFFFFFFFFFFFFFFFFFFFFFFFFF AND PUSH2 0xC04 SWAP1 SWAP3 SWAP2 SWAP1 PUSH4 0xFFFFFFFF AND JUMP JUMPDEST POP POP POP POP POP JUMP JUMPDEST PUSH0 PUSH1 0x1 DUP1 SLOAD SWAP1 POP SUB PUSH2 0x4E1 JUMPI PUSH1 0x40 MLOAD PUSH32 0xCC0DADAC00000000000000000000000000000000000000000000000000000000 DUP2 MSTORE PUSH1 0x4 ADD PUSH1 0x40 MLOAD DUP1 SWAP2 SUB SWAP1 REVERT JUMPDEST PUSH0 PUSH1 0x2 PUSH0 CALLER PUSH20 0xFFFFFFFFFFFFFFFFFFFFFFFFFFFFFFFFFFFFFFFF AND PUSH20 0xFFFFFFFFFFFFFFFFFFFFFFFFFFFFFFFFFFFFFFFF AND DUP2 MSTORE PUSH1 0x20 ADD SWAP1 DUP2 MSTORE PUSH1 0x20 ADD PUSH0 KECCAK256 SLOAD EQ PUSH2 0x5AA JUMPI PUSH1 0x3 SLOAD PUSH1 0x2 PUSH0 CALLER PUSH20 0xFFFFFFFFFFFFFFFFFFFFFFFFFFFFFFFFFFFFFFFF AND PUSH20 0xFFFFFFFFFFFFFFFFFFFFFFFFFFFFFFFFFFFFFFFF AND DUP2 MSTORE PUSH1 0x20 ADD SWAP1 DUP2 MSTORE PUSH1 0x20 ADD PUSH0 KECCAK256 SLOAD TIMESTAMP PUSH2 0x571 SWAP2 SWAP1 PUSH2 0x122B JUMP JUMPDEST LT ISZERO PUSH2 0x5A9 JUMPI PUSH1 0x40 MLOAD PUSH32 0xBFEE37700000000000000000000000000000000000000000000000000000000 DUP2 MSTORE PUSH1 0x4 ADD PUSH1 0x40 MLOAD DUP1 SWAP2 SUB SWAP1 REVERT JUMPDEST JUMPDEST PUSH0 JUMPDEST PUSH1 0x1 DUP1 SLOAD SWAP1 POP DUP2 LT ISZERO PUSH2 0x775 JUMPI PUSH0 PUSH1 0x1 DUP3 DUP2 SLOAD DUP2 LT PUSH2 0x5CE JUMPI PUSH2 0x5CD PUSH2 0x125E JUMP JUMPDEST JUMPDEST SWAP1 PUSH0 MSTORE PUSH1 0x20 PUSH0 KECCAK256 SWAP1 PUSH1 0x3 MUL ADD PUSH0 ADD PUSH0 SWAP1 SLOAD SWAP1 PUSH2 0x100 EXP SWAP1 DIV PUSH20 0xFFFFFFFFFFFFFFFFFFFFFFFFFFFFFFFFFFFFFFFF AND PUSH20 0xFFFFFFFFFFFFFFFFFFFFFFFFFFFFFFFFFFFFFFFF AND PUSH4 0x70A08231 ADDRESS PUSH1 0x40 MLOAD DUP3 PUSH4 0xFFFFFFFF AND PUSH1 0xE0 SHL DUP2 MSTORE PUSH1 0x4 ADD PUSH2 0x634 SWAP2 SWAP1 PUSH2 0x1142 JUMP JUMPDEST PUSH1 0x20 PUSH1 0x40 MLOAD DUP1 DUP4 SUB DUP2 DUP7 GAS STATICCALL ISZERO DUP1 ISZERO PUSH2 0x64F JUMPI RETURNDATASIZE PUSH0 DUP1 RETURNDATACOPY RETURNDATASIZE PUSH0 REVERT JUMPDEST POP POP POP POP PUSH1 0x40 MLOAD RETURNDATASIZE PUSH1 0x1F NOT PUSH1 0x1F DUP3 ADD AND DUP3 ADD DUP1 PUSH1 0x40 MSTORE POP DUP2 ADD SWAP1 PUSH2 0x673 SWAP2 SWAP1 PUSH2 0x12CC JUMP JUMPDEST SWAP1 POP PUSH1 0x1 DUP3 DUP2 SLOAD DUP2 LT PUSH2 0x689 JUMPI PUSH2 0x688 PUSH2 0x125E JUMP JUMPDEST JUMPDEST SWAP1 PUSH0 MSTORE PUSH1 0x20 PUSH0 KECCAK256 SWAP1 PUSH1 0x3 MUL ADD PUSH1 0x1 ADD SLOAD DUP2 LT ISZERO PUSH2 0x6D2 JUMPI PUSH1 0x40 MLOAD PUSH32 0xF4D678B800000000000000000000000000000000000000000000000000000000 DUP2 MSTORE PUSH1 0x4 ADD PUSH1 0x40 MLOAD DUP1 SWAP2 SUB SWAP1 REVERT JUMPDEST PUSH2 0x761 CALLER PUSH1 0x1 DUP5 DUP2 SLOAD DUP2 LT PUSH2 0x6EA JUMPI PUSH2 0x6E9 PUSH2 0x125E JUMP JUMPDEST JUMPDEST SWAP1 PUSH0 MSTORE PUSH1 0x20 PUSH0 KECCAK256 SWAP1 PUSH1 0x3 MUL ADD PUSH1 0x1 ADD SLOAD PUSH1 0x1 DUP6 DUP2 SLOAD DUP2 LT PUSH2 0x70E JUMPI PUSH2 0x70D PUSH2 0x125E JUMP JUMPDEST JUMPDEST SWAP1 PUSH0 MSTORE PUSH1 0x20 PUSH0 KECCAK256 SWAP1 PUSH1 0x3 MUL ADD PUSH0 ADD PUSH0 SWAP1 SLOAD SWAP1 PUSH2 0x100 EXP SWAP1 DIV PUSH20 0xFFFFFFFFFFFFFFFFFFFFFFFFFFFFFFFFFFFFFFFF AND PUSH20 0xFFFFFFFFFFFFFFFFFFFFFFFFFFFFFFFFFFFFFFFF AND PUSH2 0xC04 SWAP1 SWAP3 SWAP2 SWAP1 PUSH4 0xFFFFFFFF AND JUMP JUMPDEST POP DUP1 DUP1 PUSH2 0x76D SWAP1 PUSH2 0x12F7 JUMP JUMPDEST SWAP2 POP POP PUSH2 0x5AC JUMP JUMPDEST POP TIMESTAMP PUSH1 0x2 PUSH0 CALLER PUSH20 0xFFFFFFFFFFFFFFFFFFFFFFFFFFFFFFFFFFFFFFFF AND PUSH20 0xFFFFFFFFFFFFFFFFFFFFFFFFFFFFFFFFFFFFFFFF AND DUP2 MSTORE PUSH1 0x20 ADD SWAP1 DUP2 MSTORE PUSH1 0x20 ADD PUSH0 KECCAK256 DUP2 SWAP1 SSTORE POP JUMP JUMPDEST PUSH0 PUSH1 0x1 DUP1 SLOAD SWAP1 POP DUP3 LT PUSH2 0x7CF JUMPI PUSH0 SWAP1 POP PUSH2 0x814 JUMP JUMPDEST PUSH1 0x1 DUP3 DUP2 SLOAD DUP2 LT PUSH2 0x7E3 JUMPI PUSH2 0x7E2 PUSH2 0x125E JUMP JUMPDEST JUMPDEST SWAP1 PUSH0 MSTORE PUSH1 0x20 PUSH0 KECCAK256 SWAP1 PUSH1 0x3 MUL ADD PUSH0 ADD PUSH0 SWAP1 SLOAD SWAP1 PUSH2 0x100 EXP SWAP1 DIV PUSH20 0xFFFFFFFFFFFFFFFFFFFFFFFFFFFFFFFFFFFFFFFF AND SWAP1 POP JUMPDEST SWAP2 SWAP1 POP JUMP JUMPDEST PUSH2 0x821 PUSH2 0xB86 JUMP JUMPDEST PUSH2 0x82A PUSH0 PUSH2 0xC8A JUMP JUMPDEST JUMP JUMPDEST PUSH0 PUSH1 0x3 SLOAD SWAP1 POP SWAP1 JUMP JUMPDEST PUSH0 DUP1 PUSH0 SWAP1 SLOAD SWAP1 PUSH2 0x100 EXP SWAP1 DIV PUSH20 0xFFFFFFFFFFFFFFFFFFFFFFFFFFFFFFFFFFFFFFFF AND SWAP1 POP SWAP1 JUMP JUMPDEST PUSH2 0x864 PUSH2 0xB86 JUMP JUMPDEST DUP1 PUSH1 0x3 DUP2 SWAP1 SSTORE POP POP JUMP JUMPDEST PUSH2 0x876 PUSH2 0xB86 JUMP JUMPDEST PUSH1 0x1 DUP1 DUP1 DUP1 SLOAD SWAP1 POP PUSH2 0x888 SWAP2 SWAP1 PUSH2 0x122B JUMP JUMPDEST DUP2 SLOAD DUP2 LT PUSH2 0x899 JUMPI PUSH2 0x898 PUSH2 0x125E JUMP JUMPDEST JUMPDEST SWAP1 PUSH0 MSTORE PUSH1 0x20 PUSH0 KECCAK256 SWAP1 PUSH1 0x3 MUL ADD PUSH1 0x1 DUP3 DUP2 SLOAD DUP2 LT PUSH2 0x8B9 JUMPI PUSH2 0x8B8 PUSH2 0x125E JUMP JUMPDEST JUMPDEST SWAP1 PUSH0 MSTORE PUSH1 0x20 PUSH0 KECCAK256 SWAP1 PUSH1 0x3 MUL ADD PUSH0 DUP3 ADD PUSH0 SWAP1 SLOAD SWAP1 PUSH2 0x100 EXP SWAP1 DIV PUSH20 0xFFFFFFFFFFFFFFFFFFFFFFFFFFFFFFFFFFFFFFFF AND DUP2 PUSH0 ADD PUSH0 PUSH2 0x100 EXP DUP2 SLOAD DUP2 PUSH20 0xFFFFFFFFFFFFFFFFFFFFFFFFFFFFFFFFFFFFFFFF MUL NOT AND SWAP1 DUP4 PUSH20 0xFFFFFFFFFFFFFFFFFFFFFFFFFFFFFFFFFFFFFFFF AND MUL OR SWAP1 SSTORE POP PUSH1 0x1 DUP3 ADD SLOAD DUP2 PUSH1 0x1 ADD SSTORE PUSH1 0x2 DUP3 ADD PUSH0 SWAP1 SLOAD SWAP1 PUSH2 0x100 EXP SWAP1 DIV PUSH1 0xFF AND DUP2 PUSH1 0x2 ADD PUSH0 PUSH2 0x100 EXP DUP2 SLOAD DUP2 PUSH1 0xFF MUL NOT AND SWAP1 DUP4 PUSH1 0xFF AND MUL OR SWAP1 SSTORE POP SWAP1 POP POP PUSH1 0x1 DUP1 SLOAD DUP1 PUSH2 0x973 JUMPI PUSH2 0x972 PUSH2 0x128B JUMP JUMPDEST JUMPDEST PUSH1 0x1 SWAP1 SUB DUP2 DUP2 SWAP1 PUSH0 MSTORE PUSH1 0x20 PUSH0 KECCAK256 SWAP1 PUSH1 0x3 MUL ADD PUSH0 DUP1 DUP3 ADD PUSH0 PUSH2 0x100 EXP DUP2 SLOAD SWAP1 PUSH20 0xFFFFFFFFFFFFFFFFFFFFFFFFFFFFFFFFFFFFFFFF MUL NOT AND SWAP1 SSTORE PUSH1 0x1 DUP3 ADD PUSH0 SWAP1 SSTORE PUSH1 0x2 DUP3 ADD PUSH0 PUSH2 0x100 EXP DUP2 SLOAD SWAP1 PUSH1 0xFF MUL NOT AND SWAP1 SSTORE POP POP SWAP1 SSTORE POP JUMP JUMPDEST PUSH2 0x9D4 PUSH2 0xB86 JUMP JUMPDEST PUSH0 DUP3 SUB PUSH2 0xA0D JUMPI PUSH1 0x40 MLOAD PUSH32 0x2C5211C600000000000000000000000000000000000000000000000000000000 DUP2 MSTORE PUSH1 0x4 ADD PUSH1 0x40 MLOAD DUP1 SWAP2 SUB SWAP1 REVERT JUMPDEST PUSH0 PUSH1 0x40 MLOAD DUP1 PUSH1 0x60 ADD PUSH1 0x40 MSTORE DUP1 DUP6 PUSH20 0xFFFFFFFFFFFFFFFFFFFFFFFFFFFFFFFFFFFFFFFF AND DUP2 MSTORE PUSH1 0x20 ADD DUP5 DUP2 MSTORE PUSH1 0x20 ADD DUP4 PUSH1 0xFF AND DUP2 MSTORE POP SWAP1 POP PUSH1 0x1 DUP2 SWAP1 DUP1 PUSH1 0x1 DUP2 SLOAD ADD DUP1 DUP3 SSTORE DUP1 SWAP2 POP POP PUSH1 0x1 SWAP1 SUB SWAP1 PUSH0 MSTORE PUSH1 0x20 PUSH0 KECCAK256 SWAP1 PUSH1 0x3 MUL ADD PUSH0 SWAP1 SWAP2 SWAP1 SWAP2 SWAP1 SWAP2 POP PUSH0 DUP3 ADD MLOAD DUP2 PUSH0 ADD PUSH0 PUSH2 0x100 EXP DUP2 SLOAD DUP2 PUSH20 0xFFFFFFFFFFFFFFFFFFFFFFFFFFFFFFFFFFFFFFFF MUL NOT AND SWAP1 DUP4 PUSH20 0xFFFFFFFFFFFFFFFFFFFFFFFFFFFFFFFFFFFFFFFF AND MUL OR SWAP1 SSTORE POP PUSH1 0x20 DUP3 ADD MLOAD DUP2 PUSH1 0x1 ADD SSTORE PUSH1 0x40 DUP3 ADD MLOAD DUP2 PUSH1 0x2 ADD PUSH0 PUSH2 0x100 EXP DUP2 SLOAD DUP2 PUSH1 0xFF MUL NOT AND SWAP1 DUP4 PUSH1 0xFF AND MUL OR SWAP1 SSTORE POP POP POP POP POP POP POP JUMP JUMPDEST PUSH0 PUSH1 0x1 DUP1 SLOAD SWAP1 POP SWAP1 POP SWAP1 JUMP JUMPDEST PUSH1 0x2 PUSH1 0x20 MSTORE DUP1 PUSH0 MSTORE PUSH1 0x40 PUSH0 KECCAK256 PUSH0 SWAP2 POP SWAP1 POP SLOAD DUP2 JUMP JUMPDEST PUSH2 0xB0C PUSH2 0xB86 JUMP JUMPDEST PUSH0 PUSH20 0xFFFFFFFFFFFFFFFFFFFFFFFFFFFFFFFFFFFFFFFF AND DUP2 PUSH20 0xFFFFFFFFFFFFFFFFFFFFFFFFFFFFFFFFFFFFFFFF AND SUB PUSH2 0xB7A JUMPI PUSH1 0x40 MLOAD PUSH32 0x8C379A000000000000000000000000000000000000000000000000000000000 DUP2 MSTORE PUSH1 0x4 ADD PUSH2 0xB71 SWAP1 PUSH2 0x13BE JUMP JUMPDEST PUSH1 0x40 MLOAD DUP1 SWAP2 SUB SWAP1 REVERT JUMPDEST PUSH2 0xB83 DUP2 PUSH2 0xC8A JUMP JUMPDEST POP JUMP JUMPDEST PUSH2 0xB8E PUSH2 0xD4B JUMP JUMPDEST PUSH20 0xFFFFFFFFFFFFFFFFFFFFFFFFFFFFFFFFFFFFFFFF AND PUSH2 0xBAC PUSH2 0x835 JUMP JUMPDEST PUSH20 0xFFFFFFFFFFFFFFFFFFFFFFFFFFFFFFFFFFFFFFFF AND EQ PUSH2 0xC02 JUMPI PUSH1 0x40 MLOAD PUSH32 0x8C379A000000000000000000000000000000000000000000000000000000000 DUP2 MSTORE PUSH1 0x4 ADD PUSH2 0xBF9 SWAP1 PUSH2 0x1426 JUMP JUMPDEST PUSH1 0x40 MLOAD DUP1 SWAP2 SUB SWAP1 REVERT JUMPDEST JUMP JUMPDEST PUSH2 0xC85 DUP4 PUSH4 0xA9059CBB PUSH1 0xE0 SHL DUP5 DUP5 PUSH1 0x40 MLOAD PUSH1 0x24 ADD PUSH2 0xC23 SWAP3 SWAP2 SWAP1 PUSH2 0x1444 JUMP JUMPDEST PUSH1 0x40 MLOAD PUSH1 0x20 DUP2 DUP4 SUB SUB DUP2 MSTORE SWAP1 PUSH1 0x40 MSTORE SWAP1 PUSH28 0xFFFFFFFFFFFFFFFFFFFFFFFFFFFFFFFFFFFFFFFFFFFFFFFFFFFFFFFF NOT AND PUSH1 0x20 DUP3 ADD DUP1 MLOAD PUSH28 0xFFFFFFFFFFFFFFFFFFFFFFFFFFFFFFFFFFFFFFFFFFFFFFFFFFFFFFFF DUP4 DUP2 DUP4 AND OR DUP4 MSTORE POP POP POP POP PUSH2 0xD52 JUMP JUMPDEST POP POP POP JUMP JUMPDEST PUSH0 DUP1 PUSH0 SWAP1 SLOAD SWAP1 PUSH2 0x100 EXP SWAP1 DIV PUSH20 0xFFFFFFFFFFFFFFFFFFFFFFFFFFFFFFFFFFFFFFFF AND SWAP1 POP DUP2 PUSH0 DUP1 PUSH2 0x100 EXP DUP2 SLOAD DUP2 PUSH20 0xFFFFFFFFFFFFFFFFFFFFFFFFFFFFFFFFFFFFFFFF MUL NOT AND SWAP1 DUP4 PUSH20 0xFFFFFFFFFFFFFFFFFFFFFFFFFFFFFFFFFFFFFFFF AND MUL OR SWAP1 SSTORE POP DUP2 PUSH20 0xFFFFFFFFFFFFFFFFFFFFFFFFFFFFFFFFFFFFFFFF AND DUP2 PUSH20 0xFFFFFFFFFFFFFFFFFFFFFFFFFFFFFFFFFFFFFFFF AND PUSH32 0x8BE0079C531659141344CD1FD0A4F28419497F9722A3DAAFE3B4186F6B6457E0 PUSH1 0x40 MLOAD PUSH1 0x40 MLOAD DUP1 SWAP2 SUB SWAP1 LOG3 POP POP JUMP JUMPDEST PUSH0 CALLER SWAP1 POP SWAP1 JUMP JUMPDEST PUSH0 PUSH2 0xDB3 DUP3 PUSH1 0x40 MLOAD DUP1 PUSH1 0x40 ADD PUSH1 0x40 MSTORE DUP1 PUSH1 0x20 DUP2 MSTORE PUSH1 0x20 ADD PUSH32 0x5361666545524332303A206C6F772D6C6576656C2063616C6C206661696C6564 DUP2 MSTORE POP DUP6 PUSH20 0xFFFFFFFFFFFFFFFFFFFFFFFFFFFFFFFFFFFFFFFF AND PUSH2 0xE18 SWAP1 SWAP3 SWAP2 SWAP1 PUSH4 0xFFFFFFFF AND JUMP JUMPDEST SWAP1 POP PUSH0 DUP2 MLOAD EQ DUP1 PUSH2 0xDD4 JUMPI POP DUP1 DUP1 PUSH1 0x20 ADD SWAP1 MLOAD DUP2 ADD SWAP1 PUSH2 0xDD3 SWAP2 SWAP1 PUSH2 0x14A0 JUMP JUMPDEST JUMPDEST PUSH2 0xE13 JUMPI PUSH1 0x40 MLOAD PUSH32 0x8C379A000000000000000000000000000000000000000000000000000000000 DUP2 MSTORE PUSH1 0x4 ADD PUSH2 0xE0A SWAP1 PUSH2 0x153B JUMP JUMPDEST PUSH1 0x40 MLOAD DUP1 SWAP2 SUB SWAP1 REVERT JUMPDEST POP POP POP JUMP JUMPDEST PUSH1 0x60 PUSH2 0xE26 DUP5 DUP5 PUSH0 DUP6 PUSH2 0xE2F JUMP JUMPDEST SWAP1 POP SWAP4 SWAP3 POP POP POP JUMP JUMPDEST PUSH1 0x60 DUP3 SELFBALANCE LT ISZERO PUSH2 0xE74 JUMPI PUSH1 0x40 MLOAD PUSH32 0x8C379A000000000000000000000000000000000000000000000000000000000 DUP2 MSTORE PUSH1 0x4 ADD PUSH2 0xE6B SWAP1 PUSH2 0x15C9 JUMP JUMPDEST PUSH1 0x40 MLOAD DUP1 SWAP2 SUB SWAP1 REVERT JUMPDEST PUSH0 DUP1 DUP7 PUSH20 0xFFFFFFFFFFFFFFFFFFFFFFFFFFFFFFFFFFFFFFFF AND DUP6 DUP8 PUSH1 0x40 MLOAD PUSH2 0xE9C SWAP2 SWAP1 PUSH2 0x1653 JUMP JUMPDEST PUSH0 PUSH1 0x40 MLOAD DUP1 DUP4 SUB DUP2 DUP6 DUP8 GAS CALL SWAP3 POP POP POP RETURNDATASIZE DUP1 PUSH0 DUP2 EQ PUSH2 0xED6 JUMPI PUSH1 0x40 MLOAD SWAP2 POP PUSH1 0x1F NOT PUSH1 0x3F RETURNDATASIZE ADD AND DUP3 ADD PUSH1 0x40 MSTORE RETURNDATASIZE DUP3 MSTORE RETURNDATASIZE PUSH0 PUSH1 0x20 DUP5 ADD RETURNDATACOPY PUSH2 0xEDB JUMP JUMPDEST PUSH1 0x60 SWAP2 POP JUMPDEST POP SWAP2 POP SWAP2 POP PUSH2 0xEEC DUP8 DUP4 DUP4 DUP8 PUSH2 0xEF8 JUMP JUMPDEST SWAP3 POP POP POP SWAP5 SWAP4 POP POP POP POP JUMP JUMPDEST PUSH1 0x60 DUP4 ISZERO PUSH2 0xF59 JUMPI PUSH0 DUP4 MLOAD SUB PUSH2 0xF51 JUMPI PUSH2 0xF11 DUP6 PUSH2 0xF6C JUMP JUMPDEST PUSH2 0xF50 JUMPI PUSH1 0x40 MLOAD PUSH32 0x8C379A000000000000000000000000000000000000000000000000000000000 DUP2 MSTORE PUSH1 0x4 ADD PUSH2 0xF47 SWAP1 PUSH2 0x16B3 JUMP JUMPDEST PUSH1 0x40 MLOAD DUP1 SWAP2 SUB SWAP1 REVERT JUMPDEST JUMPDEST DUP3 SWAP1 POP PUSH2 0xF64 JUMP JUMPDEST PUSH2 0xF63 DUP4 DUP4 PUSH2 0xF8E JUMP JUMPDEST JUMPDEST SWAP5 SWAP4 POP POP POP POP JUMP JUMPDEST PUSH0 DUP1 DUP3 PUSH20 0xFFFFFFFFFFFFFFFFFFFFFFFFFFFFFFFFFFFFFFFF AND EXTCODESIZE GT SWAP1 POP SWAP2 SWAP1 POP JUMP JUMPDEST PUSH0 DUP3 MLOAD GT ISZERO PUSH2 0xFA0 JUMPI DUP2 MLOAD DUP1 DUP4 PUSH1 0x20 ADD REVERT JUMPDEST DUP1 PUSH1 0x40 MLOAD PUSH32 0x8C379A000000000000000000000000000000000000000000000000000000000 DUP2 MSTORE PUSH1 0x4 ADD PUSH2 0xFD4 SWAP2 SWAP1 PUSH2 0x1723 JUMP JUMPDEST PUSH1 0x40 MLOAD DUP1 SWAP2 SUB SWAP1 REVERT JUMPDEST PUSH0 DUP1 REVERT JUMPDEST PUSH0 DUP2 SWAP1 POP SWAP2 SWAP1 POP JUMP JUMPDEST PUSH2 0xFF3 DUP2 PUSH2 0xFE1 JUMP JUMPDEST DUP2 EQ PUSH2 0xFFD JUMPI PUSH0 DUP1 REVERT JUMPDEST POP JUMP JUMPDEST PUSH0 DUP2 CALLDATALOAD SWAP1 POP PUSH2 0x100E DUP2 PUSH2 0xFEA JUMP JUMPDEST SWAP3 SWAP2 POP POP JUMP JUMPDEST PUSH0 PUSH20 0xFFFFFFFFFFFFFFFFFFFFFFFFFFFFFFFFFFFFFFFF DUP3 AND SWAP1 POP SWAP2 SWAP1 POP JUMP JUMPDEST PUSH0 PUSH2 0x103D DUP3 PUSH2 0x1014 JUMP JUMPDEST SWAP1 POP SWAP2 SWAP1 POP JUMP JUMPDEST PUSH2 0x104D DUP2 PUSH2 0x1033 JUMP JUMPDEST DUP2 EQ PUSH2 0x1057 JUMPI PUSH0 DUP1 REVERT JUMPDEST POP JUMP JUMPDEST PUSH0 DUP2 CALLDATALOAD SWAP1 POP PUSH2 0x1068 DUP2 PUSH2 0x1044 JUMP JUMPDEST SWAP3 SWAP2 POP POP JUMP JUMPDEST PUSH0 PUSH1 0xFF DUP3 AND SWAP1 POP SWAP2 SWAP1 POP JUMP JUMPDEST PUSH2 0x1083 DUP2 PUSH2 0x106E JUMP JUMPDEST DUP2 EQ PUSH2 0x108D JUMPI PUSH0 DUP1 REVERT JUMPDEST POP JUMP JUMPDEST PUSH0 DUP2 CALLDATALOAD SWAP1 POP PUSH2 0x109E DUP2 PUSH2 0x107A JUMP JUMPDEST SWAP3 SWAP2 POP POP JUMP JUMPDEST PUSH0 DUP1 PUSH0 DUP1 PUSH1 0x80 DUP6 DUP8 SUB SLT ISZERO PUSH2 0x10BC JUMPI PUSH2 0x10BB PUSH2 0xFDD JUMP JUMPDEST JUMPDEST PUSH0 PUSH2 0x10C9 DUP8 DUP3 DUP9 ADD PUSH2 0x1000 JUMP JUMPDEST SWAP5 POP POP PUSH1 0x20 PUSH2 0x10DA DUP8 DUP3 DUP9 ADD PUSH2 0x105A JUMP JUMPDEST SWAP4 POP POP PUSH1 0x40 PUSH2 0x10EB DUP8 DUP3 DUP9 ADD PUSH2 0x1000 JUMP JUMPDEST SWAP3 POP POP PUSH1 0x60 PUSH2 0x10FC DUP8 DUP3 DUP9 ADD PUSH2 0x1090 JUMP JUMPDEST SWAP2 POP POP SWAP3 SWAP6 SWAP2 SWAP5 POP SWAP3 POP JUMP JUMPDEST PUSH0 PUSH1 0x20 DUP3 DUP5 SUB SLT ISZERO PUSH2 0x111D JUMPI PUSH2 0x111C PUSH2 0xFDD JUMP JUMPDEST JUMPDEST PUSH0 PUSH2 0x112A DUP5 DUP3 DUP6 ADD PUSH2 0x1000 JUMP JUMPDEST SWAP2 POP POP SWAP3 SWAP2 POP POP JUMP JUMPDEST PUSH2 0x113C DUP2 PUSH2 0x1033 JUMP JUMPDEST DUP3 MSTORE POP POP JUMP JUMPDEST PUSH0 PUSH1 0x20 DUP3 ADD SWAP1 POP PUSH2 0x1155 PUSH0 DUP4 ADD DUP5 PUSH2 0x1133 JUMP JUMPDEST SWAP3 SWAP2 POP POP JUMP JUMPDEST PUSH2 0x1164 DUP2 PUSH2 0xFE1 JUMP JUMPDEST DUP3 MSTORE POP POP JUMP JUMPDEST PUSH0 PUSH1 0x20 DUP3 ADD SWAP1 POP PUSH2 0x117D PUSH0 DUP4 ADD DUP5 PUSH2 0x115B JUMP JUMPDEST SWAP3 SWAP2 POP POP JUMP JUMPDEST PUSH0 DUP1 PUSH0 PUSH1 0x60 DUP5 DUP7 SUB SLT ISZERO PUSH2 0x119A JUMPI PUSH2 0x1199 PUSH2 0xFDD JUMP JUMPDEST JUMPDEST PUSH0 PUSH2 0x11A7 DUP7 DUP3 DUP8 ADD PUSH2 0x105A JUMP JUMPDEST SWAP4 POP POP PUSH1 0x20 PUSH2 0x11B8 DUP7 DUP3 DUP8 ADD PUSH2 0x1000 JUMP JUMPDEST SWAP3 POP POP PUSH1 0x40 PUSH2 0x11C9 DUP7 DUP3 DUP8 ADD PUSH2 0x1090 JUMP JUMPDEST SWAP2 POP POP SWAP3 POP SWAP3 POP SWAP3 JUMP JUMPDEST PUSH0 PUSH1 0x20 DUP3 DUP5 SUB SLT ISZERO PUSH2 0x11E8 JUMPI PUSH2 0x11E7 PUSH2 0xFDD JUMP JUMPDEST JUMPDEST PUSH0 PUSH2 0x11F5 DUP5 DUP3 DUP6 ADD PUSH2 0x105A JUMP JUMPDEST SWAP2 POP POP SWAP3 SWAP2 POP POP JUMP JUMPDEST PUSH32 0x4E487B7100000000000000000000000000000000000000000000000000000000 PUSH0 MSTORE PUSH1 0x11 PUSH1 0x4 MSTORE PUSH1 0x24 PUSH0 REVERT JUMPDEST PUSH0 PUSH2 0x1235 DUP3 PUSH2 0xFE1 JUMP JUMPDEST SWAP2 POP PUSH2 0x1240 DUP4 PUSH2 0xFE1 JUMP JUMPDEST SWAP3 POP DUP3 DUP3 SUB SWAP1 POP DUP2 DUP2 GT ISZERO PUSH2 0x1258 JUMPI PUSH2 0x1257 PUSH2 0x11FE JUMP JUMPDEST JUMPDEST SWAP3 SWAP2 POP POP JUMP JUMPDEST PUSH32 0x4E487B7100000000000000000000000000000000000000000000000000000000 PUSH0 MSTORE PUSH1 0x32 PUSH1 0x4 MSTORE PUSH1 0x24 PUSH0 REVERT JUMPDEST PUSH32 0x4E487B7100000000000000000000000000000000000000000000000000000000 PUSH0 MSTORE PUSH1 0x31 PUSH1 0x4 MSTORE PUSH1 0x24 PUSH0 REVERT JUMPDEST PUSH0 DUP2 MLOAD SWAP1 POP PUSH2 0x12C6 DUP2 PUSH2 0xFEA JUMP JUMPDEST SWAP3 SWAP2 POP POP JUMP JUMPDEST PUSH0 PUSH1 0x20 DUP3 DUP5 SUB SLT ISZERO PUSH2 0x12E1 JUMPI PUSH2 0x12E0 PUSH2 0xFDD JUMP JUMPDEST JUMPDEST PUSH0 PUSH2 0x12EE DUP5 DUP3 DUP6 ADD PUSH2 0x12B8 JUMP JUMPDEST SWAP2 POP POP SWAP3 SWAP2 POP POP JUMP JUMPDEST PUSH0 PUSH2 0x1301 DUP3 PUSH2 0xFE1 JUMP JUMPDEST SWAP2 POP PUSH32 0xFFFFFFFFFFFFFFFFFFFFFFFFFFFFFFFFFFFFFFFFFFFFFFFFFFFFFFFFFFFFFFFF DUP3 SUB PUSH2 0x1333 JUMPI PUSH2 0x1332 PUSH2 0x11FE JUMP JUMPDEST JUMPDEST PUSH1 0x1 DUP3 ADD SWAP1 POP SWAP2 SWAP1 POP JUMP JUMPDEST PUSH0 DUP3 DUP3 MSTORE PUSH1 0x20 DUP3 ADD SWAP1 POP SWAP3 SWAP2 POP POP JUMP JUMPDEST PUSH32 0x4F776E61626C653A206E6577206F776E657220697320746865207A65726F2061 PUSH0 DUP3 ADD MSTORE PUSH32 0x6464726573730000000000000000000000000000000000000000000000000000 PUSH1 0x20 DUP3 ADD MSTORE POP JUMP JUMPDEST PUSH0 PUSH2 0x13A8 PUSH1 0x26 DUP4 PUSH2 0x133E JUMP JUMPDEST SWAP2 POP PUSH2 0x13B3 DUP3 PUSH2 0x134E JUMP JUMPDEST PUSH1 0x40 DUP3 ADD SWAP1 POP SWAP2 SWAP1 POP JUMP JUMPDEST PUSH0 PUSH1 0x20 DUP3 ADD SWAP1 POP DUP2 DUP2 SUB PUSH0 DUP4 ADD MSTORE PUSH2 0x13D5 DUP2 PUSH2 0x139C JUMP JUMPDEST SWAP1 POP SWAP2 SWAP1 POP JUMP JUMPDEST PUSH32 0x4F776E61626C653A2063616C6C6572206973206E6F7420746865206F776E6572 PUSH0 DUP3 ADD MSTORE POP JUMP JUMPDEST PUSH0 PUSH2 0x1410 PUSH1 0x20 DUP4 PUSH2 0x133E JUMP JUMPDEST SWAP2 POP PUSH2 0x141B DUP3 PUSH2 0x13DC JUMP JUMPDEST PUSH1 0x20 DUP3 ADD SWAP1 POP SWAP2 SWAP1 POP JUMP JUMPDEST PUSH0 PUSH1 0x20 DUP3 ADD SWAP1 POP DUP2 DUP2 SUB PUSH0 DUP4 ADD MSTORE PUSH2 0x143D DUP2 PUSH2 0x1404 JUMP JUMPDEST SWAP1 POP SWAP2 SWAP1 POP JUMP JUMPDEST PUSH0 PUSH1 0x40 DUP3 ADD SWAP1 POP PUSH2 0x1457 PUSH0 DUP4 ADD DUP6 PUSH2 0x1133 JUMP JUMPDEST PUSH2 0x1464 PUSH1 0x20 DUP4 ADD DUP5 PUSH2 0x115B JUMP JUMPDEST SWAP4 SWAP3 POP POP POP JUMP JUMPDEST PUSH0 DUP2 ISZERO ISZERO SWAP1 POP SWAP2 SWAP1 POP JUMP JUMPDEST PUSH2 0x147F DUP2 PUSH2 0x146B JUMP JUMPDEST DUP2 EQ PUSH2 0x1489 JUMPI PUSH0 DUP1 REVERT JUMPDEST POP JUMP JUMPDEST PUSH0 DUP2 MLOAD SWAP1 POP PUSH2 0x149A DUP2 PUSH2 0x1476 JUMP JUMPDEST SWAP3 SWAP2 POP POP JUMP JUMPDEST PUSH0 PUSH1 0x20 DUP3 DUP5 SUB SLT ISZERO PUSH2 0x14B5 JUMPI PUSH2 0x14B4 PUSH2 0xFDD JUMP JUMPDEST JUMPDEST PUSH0 PUSH2 0x14C2 DUP5 DUP3 DUP6 ADD PUSH2 0x148C JUMP JUMPDEST SWAP2 POP POP SWAP3 SWAP2 POP POP JUMP JUMPDEST PUSH32 0x5361666545524332303A204552433230206F7065726174696F6E20646964206E PUSH0 DUP3 ADD MSTORE PUSH32 0x6F74207375636365656400000000000000000000000000000000000000000000 PUSH1 0x20 DUP3 ADD MSTORE POP JUMP JUMPDEST PUSH0 PUSH2 0x1525 PUSH1 0x2A DUP4 PUSH2 0x133E JUMP JUMPDEST SWAP2 POP PUSH2 0x1530 DUP3 PUSH2 0x14CB JUMP JUMPDEST PUSH1 0x40 DUP3 ADD SWAP1 POP SWAP2 SWAP1 POP JUMP JUMPDEST PUSH0 PUSH1 0x20 DUP3 ADD SWAP1 POP DUP2 DUP2 SUB PUSH0 DUP4 ADD MSTORE PUSH2 0x1552 DUP2 PUSH2 0x1519 JUMP JUMPDEST SWAP1 POP SWAP2 SWAP1 POP JUMP JUMPDEST PUSH32 0x416464726573733A20696E73756666696369656E742062616C616E636520666F PUSH0 DUP3 ADD MSTORE PUSH32 0x722063616C6C0000000000000000000000000000000000000000000000000000 PUSH1 0x20 DUP3 ADD MSTORE POP JUMP JUMPDEST PUSH0 PUSH2 0x15B3 PUSH1 0x26 DUP4 PUSH2 0x133E JUMP JUMPDEST SWAP2 POP PUSH2 0x15BE DUP3 PUSH2 0x1559 JUMP JUMPDEST PUSH1 0x40 DUP3 ADD SWAP1 POP SWAP2 SWAP1 POP JUMP JUMPDEST PUSH0 PUSH1 0x20 DUP3 ADD SWAP1 POP DUP2 DUP2 SUB PUSH0 DUP4 ADD MSTORE PUSH2 0x15E0 DUP2 PUSH2 0x15A7 JUMP JUMPDEST SWAP1 POP SWAP2 SWAP1 POP JUMP JUMPDEST PUSH0 DUP2 MLOAD SWAP1 POP SWAP2 SWAP1 POP JUMP JUMPDEST PUSH0 DUP2 SWAP1 POP SWAP3 SWAP2 POP POP JUMP JUMPDEST PUSH0 JUMPDEST DUP4 DUP2 LT ISZERO PUSH2 0x1618 JUMPI DUP1 DUP3 ADD MLOAD DUP2 DUP5 ADD MSTORE PUSH1 0x20 DUP2 ADD SWAP1 POP PUSH2 0x15FD JUMP JUMPDEST PUSH0 DUP5 DUP5 ADD MSTORE POP POP POP POP JUMP JUMPDEST PUSH0 PUSH2 0x162D DUP3 PUSH2 0x15E7 JUMP JUMPDEST PUSH2 0x1637 DUP2 DUP6 PUSH2 0x15F1 JUMP JUMPDEST SWAP4 POP PUSH2 0x1647 DUP2 DUP6 PUSH1 0x20 DUP7 ADD PUSH2 0x15FB JUMP JUMPDEST DUP1 DUP5 ADD SWAP2 POP POP SWAP3 SWAP2 POP POP JUMP JUMPDEST PUSH0 PUSH2 0x165E DUP3 DUP5 PUSH2 0x1623 JUMP JUMPDEST SWAP2 POP DUP2 SWAP1 POP SWAP3 SWAP2 POP POP JUMP JUMPDEST PUSH32 0x416464726573733A2063616C6C20746F206E6F6E2D636F6E7472616374000000 PUSH0 DUP3 ADD MSTORE POP JUMP JUMPDEST PUSH0 PUSH2 0x169D PUSH1 0x1D DUP4 PUSH2 0x133E JUMP JUMPDEST SWAP2 POP PUSH2 0x16A8 DUP3 PUSH2 0x1669 JUMP JUMPDEST PUSH1 0x20 DUP3 ADD SWAP1 POP SWAP2 SWAP1 POP JUMP JUMPDEST PUSH0 PUSH1 0x20 DUP3 ADD SWAP1 POP DUP2 DUP2 SUB PUSH0 DUP4 ADD MSTORE PUSH2 0x16CA DUP2 PUSH2 0x1691 JUMP JUMPDEST SWAP1 POP SWAP2 SWAP1 POP JUMP JUMPDEST PUSH0 DUP2 MLOAD SWAP1 POP SWAP2 SWAP1 POP JUMP JUMPDEST PUSH0 PUSH1 0x1F NOT PUSH1 0x1F DUP4 ADD AND SWAP1 POP SWAP2 SWAP1 POP JUMP JUMPDEST PUSH0 PUSH2 0x16F5 DUP3 PUSH2 0x16D1 JUMP JUMPDEST PUSH2 0x16FF DUP2 DUP6 PUSH2 0x133E JUMP JUMPDEST SWAP4 POP PUSH2 0x170F DUP2 DUP6 PUSH1 0x20 DUP7 ADD PUSH2 0x15FB JUMP JUMPDEST PUSH2 0x1718 DUP2 PUSH2 0x16DB JUMP JUMPDEST DUP5 ADD SWAP2 POP POP SWAP3 SWAP2 POP POP JUMP JUMPDEST PUSH0 PUSH1 0x20 DUP3 ADD SWAP1 POP DUP2 DUP2 SUB PUSH0 DUP4 ADD MSTORE PUSH2 0x173B DUP2 DUP5 PUSH2 0x16EB JUMP JUMPDEST SWAP1 POP SWAP3 SWAP2 POP POP JUMP INVALID LOG2 PUSH5 0x6970667358 0x22 SLT KECCAK256 MSTORE8 0xE9 DUP1 NUMBER 0xAD LOG3 GASLIMIT INVALID SAR 0xAD 0xC4 MOD DUP10 0xCD RETURNDATASIZE DUP2 0x24 MOD 0xF6 DUP5 0xE8 SSTORE TIMESTAMP 0x4B ADDRESS 0xA6 0xE8 PUSH4 0x567D3A90 PUSH5 0x736F6C6343 STOP ADDMOD ISZERO STOP CALLER "
				},
				"gasEstimates": {
					"creation": {
						"codeDepositCost": "1201800",
						"executionCost": "infinite",
						"totalCost": "infinite"
					},
					"external": {
						"UpdateTokens(uint256,address,uint256,uint8)": "infinite",
						"addTokens(address,uint256,uint8)": "98234",
						"claim()": "infinite",
						"getRangeTime()": "2521",
						"getTokenAddressByIndex(uint256)": "7147",
						"owner()": "2626",
						"removeTokens(uint256)": "infinite",
						"renounceOwnership()": "30457",
						"setRangeTime(uint256)": "24776",
						"tokenLength()": "2506",
						"transferOwnership(address)": "30841",
						"userCooldown(address)": "2890"
					}
				},
				"methodIdentifiers": {
					"UpdateTokens(uint256,address,uint256,uint8)": "161b12a0",
					"addTokens(address,uint256,uint8)": "c751c0a6",
					"claim()": "4e71d92d",
					"getRangeTime()": "898f6637",
					"getTokenAddressByIndex(uint256)": "5715c5b7",
					"owner()": "8da5cb5b",
					"removeTokens(uint256)": "b8cb65ee",
					"renounceOwnership()": "715018a6",
					"setRangeTime(uint256)": "aa68f5c3",
					"tokenLength()": "de66341e",
					"transferOwnership(address)": "f2fde38b",
					"userCooldown(address)": "e809290b"
				}
			},
			"storageLayout": {
				"storage": [
					{
						"astId": 7,
						"contract": "src\\EsperFaucet.sol:EsperFaucet",
						"label": "_owner",
						"offset": 0,
						"slot": "0",
						"type": "t_address"
					},
					{
						"astId": 990,
						"contract": "src\\EsperFaucet.sol:EsperFaucet",
						"label": "_tokens",
						"offset": 0,
						"slot": "1",
						"type": "t_array(t_struct(TokenInfo)986_storage)dyn_storage"
					},
					{
						"astId": 994,
						"contract": "src\\EsperFaucet.sol:EsperFaucet",
						"label": "userCooldown",
						"offset": 0,
						"slot": "2",
						"type": "t_mapping(t_address,t_uint256)"
					},
					{
						"astId": 997,
						"contract": "src\\EsperFaucet.sol:EsperFaucet",
						"label": "rangeMintTime",
						"offset": 0,
						"slot": "3",
						"type": "t_uint256"
					}
				],
				"types": {
					"t_address": {
						"encoding": "inplace",
						"label": "address",
						"numberOfBytes": "20"
					},
					"t_array(t_struct(TokenInfo)986_storage)dyn_storage": {
						"base": "t_struct(TokenInfo)986_storage",
						"encoding": "dynamic_array",
						"label": "struct EsperFaucet.TokenInfo[]",
						"numberOfBytes": "32"
					},
					"t_mapping(t_address,t_uint256)": {
						"encoding": "mapping",
						"key": "t_address",
						"label": "mapping(address => uint256)",
						"numberOfBytes": "32",
						"value": "t_uint256"
					},
					"t_struct(TokenInfo)986_storage": {
						"encoding": "inplace",
						"label": "struct EsperFaucet.TokenInfo",
						"members": [
							{
								"astId": 981,
								"contract": "src\\EsperFaucet.sol:EsperFaucet",
								"label": "token",
								"offset": 0,
								"slot": "0",
								"type": "t_address"
							},
							{
								"astId": 983,
								"contract": "src\\EsperFaucet.sol:EsperFaucet",
								"label": "amount",
								"offset": 0,
								"slot": "1",
								"type": "t_uint256"
							},
							{
								"astId": 985,
								"contract": "src\\EsperFaucet.sol:EsperFaucet",
								"label": "decimal",
								"offset": 0,
								"slot": "2",
								"type": "t_uint8"
							}
						],
						"numberOfBytes": "96"
					},
					"t_uint256": {
						"encoding": "inplace",
						"label": "uint256",
						"numberOfBytes": "32"
					},
					"t_uint8": {
						"encoding": "inplace",
						"label": "uint8",
						"numberOfBytes": "1"
					}
				}
			},
			"userdoc": {
				"kind": "user",
				"methods": {
					"setRangeTime(uint256)": {
						"notice": "Owner-only function to set the Range time for each mint."
					}
				},
				"version": 1
			}
		}
	}
}